S013000041546D65676133325243352E73726563B3
S11300000C946C000C9496000C9494000C94940042
S11300100C9494000C9494000C9494000C9494000C
S11300200C9494000C94BC000C9494000C949400D4
S11300300C9494000C9494000C9494000C949400EC
S11300400C9494000C9494000C9494000C949400DC
S11300500C94940008000000BE922449123EABAAFE
S1130060AA2ABECDCCCC4C3E00000080BEABAAAACE
S1130070AA3E00000000BF000000803F0000000016
S113008000084178D3BB4387D1133D190E3CC3BD4F
S11300904282AD2B3E68EC8276BED98FE1A93E4CFC
S11300A080EFFFBE01C4FF7F3F0000000000076334
S11300B04236B79BD8A71A39685618AEBAAB558CD6
S11300C01D3CB7CC5763BD6DEDFD753EF61772311F
S11300D0BF000000803F220111241FBECFE5D8E0FD
S11300E0DEBFCDBF10E0A0E6B0E0E8E0FEE002C075
S11300F005900D92AC37B107D9F721E0ACE7B0E039
S113010001C01D92AB31B207E1F710E0CCE6D0E0BC
S113011004C02197FE010E94FC06CB36D107C9F723
S11301200E94E2000C9402070C9400001F920F92AC
S11301300FB60F9211242F933F934F935F936F93B6
S11301407F938F939F93AF93BF93EF93FF938CE72A
S113015090E00E945E01FF91EF91BF91AF919F915A
S11301608F917F916F915F914F913F912F910F905C
S11301700FBE0F901F9018951F920F920FB60F92FB
S113018011242F933F934F935F936F937F938F9398
S11301909F93AF93BF93EF93FF938CE790E00E94FC
S11301A05601FF91EF91BF91AF919F918F917F91F4
S11301B06F915F914F913F912F910F900FBE0F90D0
S11301C01F90189540E855E260E070E085E890E003
S11301D00E942B028CE790E00E943B018CE790E0A8
S11301E00E9409028823D1F38CE790E00E940D025B
S11301F0182F8CE790E00E941702D82F8CE790E02C
S11302000E942502C82F612F70E085E890E00E94CB
S1130210230360E670E085E890E00E947A026D2F87
S113022070E085E890E00E9423036CE670E085E8C6
S113023090E00E947A026C2F70E085E890E00E94C2
S11302403003CCCF85E890E00E942A028CE790E04E
S11302500E942B0108950895FC0110828EE090E025
S113026096838583128211821086178285E090E03E
S11302709483838308959C01BA98C29A9BB790642F
S11302809BBF95B7916095BF95B79D7F95BF1FBCE8
S113029082E08EBD9EB59A7F9EBD1DBC1CBC84E0D1
S11302A089BF7894C9010E942C010895FC0127811B
S11302B030852F5F3F4F308727830895FF920F9338
S11302C01F93CF93DF9300D000D0CDB7DEB78C015E
S11302D08CB59DB5F80127813085821B930B8299DB
S11302E002C0F12C03C06894FF24F1F89C012D5640
S11302F03A402F3E364018F424E0F20E08C08857E6
S11303009340833F964018F0C8010E942C01F801E5
S11303102381348125303105C9F485819681019783
S1130320968385832181328141E050E0BA0102C085
S1130330660F771F8A95E2F7CB01822B932B92836A
S11303408183548343831DBC1CBC59C081E08983D1
S113035081E98A838BE98B838BEF8C83FE01E20F27
S1130360F31F818190E002C095958795FA94E2F796
S1130370AC01437055272417350719F02430310593
S113038024F0C8010E942C013AC0F801548343832D
S11303904230510541F48581968101979683858386
S11303A0892B41F520C041305105B1F4F801858114
S11303B096810197968385832181328141E050E0C3
S11303C0BA0102C0660F771F8A95E2F7CB01822B30
S11303D0932B928381830EC0F80125813681232BD0
S11303E049F480FD07C086E090E0F801948383839C
S11303F081E080831DBC1CBCF801108617820F901D
S11304000F900F900F90DF91CF911F910F91FF905C
S11304100895FC01808110820895FC0181819281FC
S113042088279870892F8695869586950895FC016E
S1130430818192810024880F991F001C880F991FC5
S1130440001C892F902D8F710895FC018181928168
S11304508F7308950895CF93DF93EC01DB01CA01F4
S1130460880F991FAA1FBB1F880F991FAA1FBB1FA4
S11304709C01AD01220F331F441F551F220F331F50
S1130480441F551F60E074E284EF90E00E94DA0696
S1130490DA01C9010197A109B10989B9892F9A2FF4
S11304A0AB2FBB2780BD1BB888E18AB986E880BD25
S11304B0FE01E058FF4F11821082DE01E054F10981
S11304C083E28D93AE17BF07E1F71FAE9E0120585C
S11304D03F4F83E28193E217F307E1F7C158DF4FFF
S11304E01882DF91CF9108955D9BFECF6CB95E9B1E
S11304F0FECF08950F931F93CF93DF93EB01688191
S1130500662341F08C012196C8010E94740269910E
S11305106111FACFDF91CF911F910F9108954F92FE
S11305205F926F927F928F929F92AF92BF92EF925F
S1130530FF920F931F93CF93DF935C01992354F49D
S11305408DE280930701B194A194B108EE24E39461
S1130550F12C02C0E12CF12C1A141B047CF4B5011B
S11305600B2C000C880B990B0E9454040E94E0048D
S11305700E941C048B0177231CF443C000E010E0AC
S1130580E701C95FDE4FB501BB0C880B990B0E94D4
S113059054044B015C01B801012E000C880B990B2B
S11305A00E9454049B01AC0160E070E080E291E49D
S11305B00E94A5052B013C019B01AC01C501B401BE
S11305C00E94AA030E941C0420E3260F29939E0183
S11305D0275031407901072E000C880B990B0E949B
S11305E05404A30192010E9438059B01AC01C5018A
S11305F0B4010E943D030E941C045B0101501109D7
S113060012F6F701E95FFE4F1082C7010196449785
S11306104CF4E701C85FDE4F8BE191E019928C172F
S11306209D07E1F787E091E0DF91CF911F910F9152
S1130630FF90EF90BF90AF909F908F907F906F90BE
S11306405F904F900895CF93DF93EC01CB010E940C
S11306508F02BC01CE010E947A02DF91CF910895EE
S1130660CF93DF93EC010E94230368E770E0CE018F
S11306700E947A02DF91CF9108955058BB27AA2790
S11306800E9455030C94A6040E94980438F00E941A
S11306909F0420F039F49F3F19F426F40C94950438
S11306A00EF4E095E7FB0C948F04E92F0E94B70445
S11306B058F3BA17620773078407950720F079F493
S11306C0A6F50C94D9040EF4E0950B2EBA2FA02DA8
S11306D00B01B90190010C01CA01A0011124FF27EB
S11306E0591B99F0593F50F4503E68F11A16F040E6
S11306F0A22F232F342F4427585FF3CF46953795E5
S11307002795A795F0405395C9F77EF41F16BA0BA9
S1130710620B730B840BBAF09150A1F0FF0FBB1F57
S1130720661F771F881FC2F70EC0BA0F621F731FA0
S1130730841F48F4879577956795B795F7959E3FFD
S113074008F0B0CF9395880F08F09927EE0F97958E
S1130750879508950E94BE030C94A6040E949F04EA
S113076058F00E94980440F029F45F3F29F00C945B
S11307708F0451110C94DA040C9495040E94B7046C
S113078068F39923B1F3552391F3951B550BBB27BC
S1130790AA2762177307840738F09F5F5F4F220F01
S11307A0331F441FAA1FA9F335D00E2E3AF0E0E8F8
S11307B032D091505040E695001CCAF72BD0FE2F42
S11307C029D0660F771F881FBB1F261737074807D6
S11307D0AB07B0E809F0BB0B802DBF01FF2793588E
S11307E05F4F3AF09E3F510578F00C948F040C94BF
S11307F0DA045F3FE4F3983ED4F3869577956795E2
S1130800B795F7959F5FC9F7880F911D96958795C2
S113081097F90895E1E0660F771F881FBB1F6217E1
S113082073078407BA0720F0621B730B840BBA0B9F
S1130830EE1F88F7E09508950E9423046894B1118F
S11308400C94DA0408950E94BF0488F09F5798F02E
S1130850B92F9927B751B0F0E1F0660F771F881FC1
S1130860991F1AF0BA95C9F714C0B13091F00E94DB
S1130870D904B1E008950C94D904672F782F882700
S1130880B85F39F0B93FCCF3869577956795B39502
S1130890D9F73EF490958095709561957F4F8F4F71
S11308A09F4F0895E89409C097FB3EF49095809576
S11308B0709561957F4F8F4F9F4F9923A9F0F92F22
S11308C096E9BB279395F695879577956795B795A0
S11308D0F111F8CFFAF4BB0F11F460FF1BC06F5F86
S11308E07F4F8F4F9F4F16C0882311F096E911C098
S11308F0772321F09EE8872F762F05C0662371F0B9
S113090096E8862F70E060E02AF09A95660F771FCC
S1130910881FDAF7880F9695879597F9089597F9C0
S11309209F6780E870E060E008959FEF80EC089591
S113093000240A94161617061806090608950024BA
S11309400A9412161306140605060895092E039434
S1130950000C11F4882352F0BB0F40F4BF2B11F4A8
S113096060FF04C06F5F7F4F8F4F9F4F089557FD07
S11309709058440F551F59F05F3F71F04795880F09
S113098097FB991F61F09F3F79F0879508951216A0
S113099013061406551FF2CF4695F1DF08C016164C
S11309A017061806991FF1CF8695710561050894FD
S11309B00895E894BB2766277727CB0197F9089514
S11309C00E94F00429ED3BE54EED5EE30C943805FE
S11309D016F00C942F060C94950468940C948F04D0
S11309E00E94BF04A8F39923C1F3AEF3DF93CF931E
S11309F01F930F93FF92C92FDD2788232AF0219795
S1130A00660F771F881FDAF720E030E040E85FEBDD
S1130A109FE3883920F0803E38F021968F770E943A
S1130A203E03E4E5F0E004C00E943E03E1E8F0E0A8
S1130A300E943D068B01BE01EC01FB2E6F5771092C
S1130A407595771F880B990B0E94540428E132E7AF
S1130A5041E35FE30E944B05AF2D9801AE01FF9087
S1130A600F911F91CF91DF910E9455030C94A6041E
S1130A700E944B050C94A6040E94980438F00E942E
S1130A809F0420F0952311F00C948F040C9495048A
S1130A9011240C94DA040E94B70470F3959FC1F3F7
S1130AA0950F50E0551F629FF001729FBB27F00D18
S1130AB0B11D639FAA27F00DB11DAA1F649F66276D
S1130AC0B00DA11D661F829F2227B00DA11D621FBC
S1130AD0739FB00DA11D621F839FA00D611D221F76
S1130AE0749F3327A00D611D231F849F600D211D5A
S1130AF0822F762F6A2F11249F5750409AF0F1F0DD
S1130B0088234AF0EE0FFF1FBB1F661F771F881F45
S1130B1091505040A9F79E3F510580F00C948F04EA
S1130B200C94DA045F3FE4F3983ED4F3869577950A
S1130B306795B795F795E7959F5FC1F7FE2B880FEB
S1130B40911D9695879597F90895FA01EE0FFF1F69
S1130B50309621053105A1F16115710561F48038E4
S1130B60BFE39B0749F168949038810561F08038B0
S1130B70BFEF9B0741F099234AF5FF3FE10531059B
S1130B80210519F1E8940894E795D901AA2329F4D9
S1130B90AB2FBE2FF85FD0F310C0FF5F70F4A695A3
S1130BA0E0F7F73950F019F0FF3A38F49F779F9344
S1130BB00DD00F9007FC9058089546F00C949504BE
S1130BC060E070E080E89FE308954FE79F775F93CC
S1130BD04F933F932F930E94F0042F913F914F9195
S1130BE05F910E9438050C94FD0529F416F00C94CD
S1130BF08F040C94D9040C9495040E94BF04A8F3A8
S1130C009638A0F707F80F92E8942BE33AEA48EBFA
S1130C105FE70E944E050F920F920F924DB75EB799
S1130C200F920E94A606EEEAF0E00E943D064F9164
S1130C305F91EF91FF91E595EE1FFF1F49F0FE577D
S1130C40E0684427EE0F441FFA95E1F74195550BF0
S1130C500E9470060F9007FE0C94640608959F3F4F
S1130C6031F0915020F4879577956795B795880F63
S1130C70911D9695879597F90895DF93CF931F93C8
S1130C800F93FF92EF92DF927B018C01689406C070
S1130C90DA2EEF010E944B05FE01E894A5912591FF
S1130CA0359145915591A6F3EF010E945503FE013C
S1130CB09701A801DA9469F7DF90EF90FF900F9104
S1130CC01F91CF91DF9108959B01AC0160E070E02A
S1130CD080E89FE30C94AA030C948F040C942F06D1
S1130CE00E94BF04D8F39923C9F3940F511DA3F3B1
S1130CF09150504094F059F0882332F0660F771FDA
S1130D00881F91505040C1F79E3F51052CF7880F22
S1130D10911D9695879597F908955F3FACF0983E9D
S1130D209CF0BB27869577956795B79508F4B160D5
S1130D309395C1F7BB0F58F711F460FFE8CF6F5FCD
S1130D407F4F8F4F9F4FE3CF0C94DA04FA01DC01FD
S1130D50AA0FBB1F9B01AC01BF5728F422273327DE
S1130D604427507820C0B75190F4AB2F0024469507
S1130D7037952795011CA395D2F3002071F0220F1B
S1130D80331F441FB395DAF30ED00C943D03613046
S1130D907105A0E88A07B94630F49B01AC016627C7
S1130DA0772788279078309621F0208331834283F7
S1130DB053830895A1E21A2EAA1BBB1BFD010DC08B
S1130DC0AA1FBB1FEE1FFF1FA217B307E407F507F7
S1130DD020F0A21BB30BE40BF50B661F771F881FD3
S1130DE0991F1A9469F760957095809590959B0169
S1130DF0AC01BD01CF010895EE0FFF1F0590F491E2
S10B0E00E02D0994F894FFCFE2
S1130E0809416464726573733A20000009436F6D85
S10F0E186D616E643A2000000A000000C6
S9030000FC
