:100000000C9435000C94EE000C945D000C945D0093
:100010000C945D000C945D000C945D000C945D00EC
:100020000C945D000C9414010C945D000C945D0024
:100030000C945D000C945D000C945D000C945D00CC
:100040000C945D000C945D000C945D000C945D00BC
:100050000C945D000C945D000C945D000C945D00AC
:100060000C945D000C945D00310211241FBECFEF93
:10007000D8E0DEBFCDBF11E0A0E0B1E0E2E8F8E1FA
:1000800002C005900D92AE3CB107D9F722E0AEEC6C
:10009000B1E001C01D92A03CB207E1F710E0C5E35A
:1000A000D0E004C02197FE010E94390CC433D1076F
:1000B000C9F70E94BD010C943F0C0C94000084E130
:1000C00092E00E9475078093CE016FEF89E192E084
:1000D0000E9481042FE789EA93E0215080409040FC
:1000E000E1F700C00000089589E192E00E949304C6
:1000F00085E192E00E946A078DE092E00E94660727
:10010000823071F0853021F0813009F04DC010C08F
:100110008091CF019091D00118161906A4F144C026
:100120008091CF019091D00118161906D4F03CC0EF
:100130008091CF019091D00118161906ACF5E1ED30
:10014000F1E09C01220F331F280F391F2F523E4F21
:100150008FEF8083818312823396E217F307C9F70A
:1001600023C0E1EDF1E09C01220F331F820F931FAA
:100170008F529E4F2FEF1082118222833396E81701
:10018000F907C9F711C0E1EDF1E09C01220F331F1F
:10019000820F931F8F529E4F2FEF10822183128266
:1001A0003396E817F907C9F74091CF015091D00174
:1001B00061ED71E08FEC91E00E94AE098DE092E07C
:1001C0000E946607813049F42FEF81EE94E02150C0
:1001D00080409040E1F700C0000008951F920F9208
:1001E0000FB60F9211242F933F934F935F936F930A
:1001F0007F938F939F93AF93BF93EF93FF9385E389
:1002000092E00E947003FF91EF91BF91AF919F9197
:100210008F917F916F915F914F913F912F910F90AF
:100220000FBE0F901F9018951F920F920FB60F924E
:1002300011242F933F934F935F936F937F938F93EB
:100240009F93AF93BF93EF93FF9385E392E00E9458
:100250006803FF91EF91BF91AF919F918F917F9133
:100260006F915F914F913F912F910F900FBE0F9023
:100270001F9018958F929F92AF92BF92CF92DF926C
:10028000EF92FF920F931F93CF93DF936B017C014B
:10029000C42FD1E020E030E0A9010E94A00B181685
:1002A0000CF0D0E0D093CE0100E010E09801B7014F
:1002B000A6018DE192E00E949F024B015C016C2F30
:1002C00070E080E090E00E94EE0A6B017C019B01EF
:1002D000AC01C501B4010E94DC090E94BF0A862F4F
:1002E0000E943E04C82FA5019401C701B6010E94D7
:1002F000DB090E94BF0A862F0E943E04482F6C2F04
:1003000089E192E00E946F04DF91CF911F910F91DC
:10031000FF90EF90DF90CF90BF90AF909F908F9025
:100320000895CF93DF9386E192E00E94DF0681304B
:1003300019F0823031F00BC01092CE01DFEFCAE627
:100340000FC081E08093CE01DAE6CFEF09C0809143
:10035000CE01811103C0DFEFC0E002C0D0E0CFEFDB
:100360008DE192E00E9433034D2F6C2F89E192E0E2
:100370000E946F04DF91CF91089540E855E260E05C
:1003800070E08EE392E00E94320985E392E00E94E1
:100390004D0341E060E089E192E00E94A20488E11F
:1003A00092E00E94CA0444EF62E086E192E00E947B
:1003B000CF0685E192E00E946C0784E192E00E9402
:1003C000720765E18DE092E00E940A09CFECD1E06E
:1003D000FF24FA940FE510E024E730E045E352E013
:1003E0006EE372E08DE092E00E94DE0888819981E0
:1003F0001816190684F4E1EDF1E09C01220F331F79
:10040000820F931F8F529E4FF08211821282339679
:10041000E817F907C9F760E088E192E00E94290631
:100420004B015C019B01AC010E94120C811106C0C2
:100430004F2DC501B4010E943A0102C00E949101F2
:100440004881598161ED71E0CE010E94AE092FE72C
:1004500088E391E0215080409040E1F700C0000027
:10046000B9CFCF92DF92EF92FF920F931F938EE35B
:1004700092E00E94310985E392E00E943D03C12C85
:10048000D12C76019701860140E050E06FEF72E4D5
:100490008DE192E00E94750289E192E00E943704AA
:1004A00088E192E00E94C90486E192E00E943E0643
:1004B00085E192E00E94690784E192E00E94710761
:1004C0008DE092E00E94F10684E190E00197F1F75F
:1004D00081E090E09093D0018093CF011F910F9124
:1004E000FF90EF90DF90CF900895CF92DF92EF9240
:1004F000FF920F931F93FC014083518362837383A8
:100500000483158326833783C086D186E286F386EB
:1005100080E090E0A0E8BFE3848B958BA68BB78B3F
:100520001486158616861786108A118A128A138AEF
:100530001F910F91FF90EF90DF90CF9008954F9211
:100540005F926F927F928F929F92AF92BF92CF9263
:10055000DF92EF92FF920F931F93CF93DF9300D020
:1005600000D000D0CDB7DEB79E838D83CB01BA011A
:10057000A90198010E94DB096B017C01ED81FE81DC
:1005800084889588A688B7882089318942895389CB
:100590000E94DB09A50194010E944D0A69837A83B8
:1005A0008B839C83A5019401C701B6010E94A50B12
:1005B000ED81FE8124853585468557850E94DC09BD
:1005C0004B015C01ED81FE81648775878687978783
:1005D0002081318142815381C701B6010E94A50B60
:1005E0002B013C01ED81FE812481358146815781BB
:1005F000C501B4010E94A50B9B01AC01C301B2016E
:100600000E94DC094B015C01ED81FE812085318572
:100610004285538569817A818B819C810E94A50BDB
:100620009B01AC01C501B4010E94DC09ED81FE8192
:10063000C08AD18AE28AF38A26960FB6F894DEBF82
:100640000FBECDBFDF91CF911F910F91FF90EF9023
:10065000DF90CF90BF90AF909F908F907F906F90E2
:100660005F904F900895FC011486158616861786B4
:10067000108A118A128A138A08950895FC01108243
:100680008EE090E096838583128211821086178215
:1006900085E090E09483838308959C0152985A9A50
:1006A000E89AE9E6F0E090819160908390819D7FE7
:1006B0009083E1EBF0E0908191609083E0E7F0E0DF
:1006C0009081916090837894C9010E943E030895BF
:1006D000FC01278130852F5F3F4F308727830895A6
:1006E000FF920F931F93CF93DF9300D000D0CDB72D
:1006F000DEB78C012091B20080E090E0F801978194
:10070000820F911D96958795969587954A9902C077
:10071000F12C03C06894FF24F1F89C012D563A4057
:100720002F3E364018F424E0F20E08C0885793405C
:10073000833F964018F0C8010E943E03F8012381D0
:10074000348125303105C9F48581968101979683DE
:1007500085832181328141E050E0BA0102C0660FF9
:10076000771F8A95E2F7CB01822B932B92838183AB
:10077000548343831092B20059C081E0898381E998
:100780008A838BE98B838BEF8C83FE01E20FF31F4F
:10079000818190E002C095958795FA94E2F7AC01CB
:1007A000437055272417350719F02430310524F0FC
:1007B000C8010E943E033AC0F8015483438342308B
:1007C000510541F485819681019796838583892B14
:1007D00041F520C041305105B1F4F8018581968181
:1007E0000197968385832181328141E050E0BA01EF
:1007F00002C0660F771F8A95E2F7CB01822B932BFD
:10080000928381830EC0F80125813681232B49F420
:1008100080FD07C086E090E0F8019483838381E047
:1008200080831092B200F801108617820F900F900B
:100830000F900F90DF91CF911F910F91FF9008952E
:10084000FC01808110820895FC0181819281002445
:10085000880F991F001C880F991F001C892F902D4D
:100860008F710895FC01818192818F730895FC013D
:1008700081E0828310828383118208950895262F58
:1008800030E0FC01E20FF31F4083662399F06130F2
:1008900029F547BDFC01E20FF31F40814423F1F02D
:1008A000FC01E20FF31F8281882311F05F9A089503
:1008B0005F98089550E05093890040938800FC01B0
:1008C000E20FF31F4081442349F0FC01E20FF31FC4
:1008D0008281882311F02A9A08952A9808951F93F7
:1008E000CF93DF93EC01142F462F60E00E943F046A
:1008F000412F61E0CE010E943F04DF91CF911F9113
:1009000008951F93CF93DF93EC01162F462F60E0DD
:100910000E943F04412F61E0CE010E943F04DF911D
:10092000CF911F910895CF93DF93EC0140E060E0F9
:100930000E943F0440E061E0CE010E943F04DF914D
:10094000CF910895FC019AB1906C9AB994B19660D8
:1009500094B994B5936894BD95B5916095BDA0E8A0
:10096000B0E09C9191689C93A1E8B0E09C91996063
:100970009C93613021F4928181E089278283413008
:1009800021F4938181E089278383CF010E9493041E
:100990000895089587B1877C87B984B18F7384B92E
:1009A00088B1886388B985B1806C85B90895623053
:1009B000C1F028F4662341F0613069F026C063304D
:1009C000B9F06430D9F021C086B183FB992790F942
:1009D00081E08927089586B18295817091E0892709
:1009E000089586B185FB992790F981E089270895BC
:1009F00083B18095881F8827881F089583B186FB5F
:100A0000992790F981E0892708950895CF92DF9280
:100A1000FF920F931F93CF93DF936C01F62ECAE0E2
:100A2000D0E000E010E06F2DC6010E94D704080F4F
:100A3000111D2197C1F781E0073011050CF480E00A
:100A4000DF91CF911F910F91FF90DF90CF9008958C
:100A50008F929F92AF92BF92CF92DF92EF92FF92CE
:100A60000F931F93CF935C010EEF1FEFC0E0C12CDB
:100A7000D12CE12CF12C6C2FC5010E940605882396
:100A800029F08FEFE81AF80AC00ED11ECF5F0F5F72
:100A90001F4FC53081F7B601DD0C880B990B0E9402
:100AA000F00A4B015C01B701FF0C880B990B0E9407
:100AB000F00A9B01AC01C501B4010E944D0ACF911F
:100AC0001F910F91FF90EF90DF90CF90BF90AF906C
:100AD0009F908F9008954F925F926F927F928F9226
:100AE0009F92AF92BF92CF92DF92EF92FF920F93BD
:100AF0001F93CF93DF936C01C0E0D0E00F2E412C09
:100B0000512CFAE76F2EF4E47F2EF02DE12CF12C1E
:100B100000E010E0BC2E6C2FC6010E940605882361
:100B200031F00F5F1F4FCE010297E80EF91E6B2DBB
:100B3000C6010E940605811103C00115110521F4AB
:100B4000C430D10551F54BC0B701FF0C880B990B90
:100B50000E94F00A4B015C01B801110F880B990B40
:100B60000E94F00A9B01AC01C501B4010E944D0A2C
:100B70004B015C019F77A30192015F770E94480AB5
:100B800088232CF0E12CF12C00E010E006C02401B9
:100B90003501E12CF12C00E010E02196C530D105A3
:100BA00009F0B8CF5301420120E030E04AE754E4B5
:100BB000C501B4010E94480A81110CC020E030E058
:100BC000A901CA01B9010E944D0A562F472F382F9B
:100BD000292F2AC0582D492D3A2D2B2D25C0B7017C
:100BE000FF0C880B990B0E94F00A4B015C01B801C5
:100BF000110F880B990B0E94F00A9B01AC01C501F3
:100C0000B4010E944D0A4B015C019B01AC015F776E
:100C1000C301B2019F770E94A00B18162CF2E12CA1
:100C2000F12C00E010E0B9CF652F742F832F922FA5
:100C3000DF91CF911F910F91FF90EF90DF90CF90B8
:100C4000BF90AF909F908F907F906F905F904F90EC
:100C50000895662319F0613021F006C00E9428052E
:100C600004C00E946B0501C004C0562F472F382FC7
:100C7000292F652F742F832F922F089521E0FC01D7
:100C800020830895ECE7F0E08081807F80836623F5
:100C900019F0613039F00BC0ECE7F0E08081826040
:100CA000808305C0ECE7F0E0808181608083EAE723
:100CB000F0E0808180648083808186FDFDCF80911B
:100CC00078009091790008956F927F928F929F9211
:100CD000AF92BF92CF92DF92EF92FF920F931F934A
:100CE000CF93DF938C01962EC5E0D0E0E12CF12C60
:100CF000AA24A394612CBB24B394C12C712C812C05
:100D0000F801D080692DC8010E944206F8012181B6
:100D100030E04A2D8217930708F0462D8B2D9C2D2D
:100D20004D1511F0872D982DE80EF91E219741F7EA
:100D300081E0F3E0EF16F1040CF480E0DF91CF9155
:100D40001F910F91FF90EF90DF90CF90BF90AF90E9
:100D50009F908F907F906F9008951F93CF93DF9314
:100D6000613041F018F0623041F015C021E0FC0123
:100D7000208311C0FC0110820EC0EC0160E00E94D3
:100D80006406182F61E0CE010E946406181303C0A8
:100D900081E018271883DF91CF911F910895FC01FE
:100DA000ACE7B0E09C9190649C93AAE7B0E09C9182
:100DB00090689C934183CF010E94AD0608950F93E4
:100DC0001F93CF938C0160E00E946406C82F61E0FE
:100DD000C8010E946406CC0F8C0FCF911F910F9118
:100DE0000895FC0181E080831182128216820895A9
:100DF000FC018181882309F45BC0CB01208124316F
:100E000089F1253141F0213009F052C065E071E0EF
:100E10000E94A109089523812330A9F028F42130EC
:100E200041F0223059F00895243091F02530A9F096
:100E300008956CE171E00E94A10908956FE271E0EC
:100E40000E94A109089560E471E00E94A10908953B
:100E500060E571E00E94A109089565E671E00E94D5
:100E6000A109089523812330A9F028F4213041F00D
:100E7000223059F00895243091F02530A9F00895DA
:100E800065E771E00E94A109089568E871E00E9499
:100E9000A109089569E971E00E94A109089569EA2C
:100EA00071E00E94A10908956EEB71E00E94A10912
:100EB0000895FC016083623041F4309903C025E15C
:100EC0002083089524E1FC0120830895FC0183819F
:100ED0000895089528980895209A28980E946A07EE
:100EE0000895089524982C9A089583B1829581706D
:100EF00091E089270895F999FECF1FBA811522E064
:100F0000920718F492BD81BD04C08FEF91E092BDAD
:100F100081BD60BDFA9AF99A0895FC01638363303C
:100F2000B9F028F4613041F0623061F023C06430E0
:100F3000A9F06530C9F01EC062E08AE090E00E942E
:100F40007B07089562E08AE090E00E947B070895A5
:100F500063E08AE090E00E947B07089564E08AE005
:100F600090E00E947B07089562E08AE090E00E9492
:100F70007B07089561E00E948D070895BF92CF928C
:100F8000DF92EF92FF920F931F93CF93DF93EC01C9
:100F90008B017A016901309B04C01A82309B40C0EA
:100FA0000AC0309908C08A81811105C039C063E048
:100FB000CE010E948D078B818230E9F5BB24B3946A
:100FC00005C062E0CE010E948D07F5CFF7010995BB
:100FD000309B04C01A82309B29C00FC030990DC0CD
:100FE0008A8181110AC022C063E0CE010E948D0770
:100FF00004C062E0CE010E948D078B81833011F422
:10100000F6010995B801CE010E94F80683EC99E03B
:101010000197F1F700C000008B818230B9F20BC05C
:1010200081E08A838B81823061F6C1CFBA828B8165
:101030008230F9F6D9CFDF91CF911F910F91FF90B8
:10104000EF90DF90CF90BF9008956E7FFC01648396
:1010500021E0260F25838BE090E00E947B07089516
:10106000FF920F931F93CF93DF93EC018B01CB0182
:101070000E942004882309F442C0C8010E9424046D
:10108000F82EC8010E943204182F8B81823019F08B
:101090008330F9F034C087E0F8120DC08D81181349
:1010A00043C063E0CE010E948D073EC064E0CE01E4
:1010B0000E948D0724C08BE0F81243C061E0CE018E
:1010C0000E948D07612FCE010E94250881E08E834A
:1010D00033C087E0F8122CC08C81181332C064E052
:1010E000CE010E948D070BC061E0CE010E948D07EA
:1010F000612FCE010E94250881E08E831DC08B8167
:10110000813019F0843059F01CC08E81882311F091
:101110001E8217C062E0CE010E948D0712C065E0FA
:10112000CE010E948D070DC08C811813E8CFBECF71
:101130008BE0F81206C0D8CF8B81813049F3843020
:1011400071F3DF91CF911F910F91FF900895AF92AE
:10115000BF92CF92DF92EF92FF920F931F93CF93A4
:10116000DF93EC015B017A016901BA010E9430084A
:101170008B818330C1F0F6010995B701CE010E9441
:1011800030088B81833011F4F8010995B501CE0147
:101190000E94F80683EC99E00197F1F700C0000087
:1011A0008B81833041F7DF91CF911F910F91FF9099
:1011B000EF90DF90CF90BF90AF900895EF92FF92A5
:1011C0000F931F93CF93DF93EC017B01B9018881CB
:1011D000843139F0853159F4B701CE010E94A70856
:1011E00006C09801AB01B701CE010E94BE07B7014E
:1011F000CE010E94F806DF91CF911F910F91FF90D1
:10120000EF900895F999FECF90E092BD81BDF89AD4
:1012100080B508951F93CF93DF93EC01162F389874
:10122000409A0E9459078AE00E940209682FCE0165
:101230000E948D078BE00E940209682FCE010E9458
:101240002508143151F48B81813019F0845082309B
:1012500020F462E0CE010E948D07DF91CF911F91B3
:1012600008950895CF93DF93EC01DB01CA01880F45
:10127000991FAA1FBB1F880F991FAA1FBB1F9C0184
:10128000AD01220F331F441F551F220F331F441F70
:10129000551F60E072E18AE790E00E94170CBA01E6
:1012A000A9014150510961097109BB27A72F962F48
:1012B000852F8093C5004093C40088E18093C100CE
:1012C000E2ECF0E0808180618083808186608083B1
:1012D000FE01E058FF4F11821082DE01E054F10957
:1012E00083E28D93AE17BF07E1F71FAE9E01205832
:1012F0003F4F83E28193E217F307E1F7C158DF4FD5
:101300001882DF91CF910895E0ECF0E0808185FFB5
:10131000FDCF6093C60008950F931F93CF93DF9383
:10132000EB016881662341F08C012196C8010E947F
:10133000840969916111FACFDF91CF911F910F91CB
:101340000895CF93DF93EC010E948C0960E071E077
:10135000CE010E948C09DF91CF910895FB015B982B
:10136000539AF894CA010197452B09F41EC00190C5
:10137000008007D0029005D001900190019001D02B
:1013800012C008D007D006D005D004D003D002D0B8
:1013900001D00895001C5B9A08F05B9800000000E3
:1013A00008F45B980895019710F7789485ED8A9575
:1013B000F1F7000008955058BB27AA270E94F309AF
:1013C0000C94660B0E94580B38F00E945F0B20F0C3
:1013D00039F49F3F19F426F40C94550B0EF4E09564
:1013E000E7FB0C944F0BE92F0E94770B58F3BA17C9
:1013F000620773078407950720F079F4A6F50C942B
:10140000990B0EF4E0950B2EBA2FA02D0B01B9010C
:1014100090010C01CA01A0011124FF27591B99F06A
:10142000593F50F4503E68F11A16F040A22F232F76
:10143000342F4427585FF3CF469537952795A795C6
:10144000F0405395C9F77EF41F16BA0B620B730B6D
:10145000840BBAF09150A1F0FF0FBB1F661F771FDE
:10146000881FC2F70EC0BA0F621F731F841F48F493
:10147000879577956795B795F7959E3F08F0B0CF1C
:101480009395880F08F09927EE0F97958795089503
:101490000E942B0B08F481E008950E94610A0C94CD
:1014A000660B0E945F0B58F00E94580B40F029F425
:1014B0005F3F29F00C944F0B51110C949A0B0C9434
:1014C000550B0E94770B68F39923B1F3552391F3E1
:1014D000951B550BBB27AA2762177307840738F0A3
:1014E0009F5F5F4F220F331F441FAA1FA9F335D000
:1014F0000E2E3AF0E0E832D091505040E695001CB4
:10150000CAF72BD0FE2F29D0660F771F881FBB1F6D
:10151000261737074807AB07B0E809F0BB0B802D4B
:10152000BF01FF2793585F4F3AF09E3F510578F077
:101530000C944F0B0C949A0B5F3FE4F3983ED4F35A
:10154000869577956795B795F7959F5FC9F7880F4B
:10155000911D9695879597F90895E1E0660F771F9D
:10156000881FBB1F621773078407BA0720F0621B2E
:10157000730B840BBA0BEE1F88F7E09508950E9459
:101580007F0B88F09F5798F0B92F9927B751B0F08B
:10159000E1F0660F771F881F991F1AF0BA95C9F7F7
:1015A00014C0B13091F00E94990BB1E008950C94F1
:1015B000990B672F782F8827B85F39F0B93FCCF3A4
:1015C000869577956795B395D9F73EF49095809574
:1015D000709561957F4F8F4F9F4F0895E89409C094
:1015E00097FB3EF490958095709561957F4F8F4F56
:1015F0009F4F9923A9F0F92F96E9BB279395F6956C
:10160000879577956795B795F111F8CFFAF4BB0FE9
:1016100011F460FF1BC06F5F7F4F8F4F9F4F16C04D
:10162000882311F096E911C0772321F09EE8872FD7
:10163000762F05C0662371F096E8862F70E060E093
:101640002AF09A95660F771F881FDAF7880F96950C
:10165000879597F90895990F0008550FAA0BE0E8B0
:10166000FEEF16161706E807F907C0F01216130664
:10167000E407F50798F0621B730B840B950B39F4A4
:101680000A2661F0232B242B252B21F408950A260A
:1016900009F4A140A6958FEF811D811D089597F94A
:1016A0009F6780E870E060E008959FEF80EC089508
:1016B00000240A9416161706180609060895002431
:1016C0000A9412161306140605060895092E0394AB
:1016D000000C11F4882352F0BB0F40F4BF2B11F41F
:1016E00060FF04C06F5F7F4F8F4F9F4F089557FD7E
:1016F0009058440F551F59F05F3F71F04795880F80
:1017000097FB991F61F09F3F79F087950895121616
:1017100013061406551FF2CF4695F1DF08C01616C2
:1017200017061806991FF1CF869571056105089473
:101730000895E894BB2766277727CB0197F908958A
:101740000E942B0B08F48FEF08950E94B80B0C94A5
:10175000660B0E94580B38F00E945F0B20F0952317
:1017600011F00C944F0B0C94550B11240C949A0B04
:101770000E94770B70F3959FC1F3950F50E0551FB2
:10178000629FF001729FBB27F00DB11D639FAA27D6
:10179000F00DB11DAA1F649F6627B00DA11D661F25
:1017A000829F2227B00DA11D621F739FB00DA11D46
:1017B000621F839FA00D611D221F749F3327A00D00
:1017C000611D231F849F600D211D822F762F6A2F9C
:1017D00011249F5750409AF0F1F088234AF0EE0F01
:1017E000FF1FBB1F661F771F881F91505040A9F72E
:1017F0009E3F510580F00C944F0B0C949A0B5F3F69
:10180000E4F3983ED4F3869577956795B795F79569
:10181000E7959F5FC1F7FE2B880F911D96958795E1
:1018200097F908950E942B0B880B990B0895A1E25C
:101830001A2EAA1BBB1BFD010DC0AA1FBB1FEE1F4A
:10184000FF1FA217B307E407F50720F0A21BB30B95
:10185000E40BF50B661F771F881F991F1A9469F711
:1018600060957095809590959B01AC01BD01CF016D
:101870000895EE0FFF1F0590F491E02D0994F89460
:02188000FFCF98
:101882000A000009005374617274204D6F64756C14
:1018920065206E6F7420757365640D004D6F6475FD
:1018A2006C652050524F4752414D494E470D004DF5
:1018B2006F64756C6520504F574552204F4E0D0096
:1018C2004D6F64756C6520535441525445440D006C
:1018D2004D6F64756C652053544F505045442053EE
:1018E2004146450D004D6F64756C652053544F5051
:1018F2005045440D004D616E75616C2050524F474A
:1019020052414D494E470D004D616E75616C20503C
:101912004F574552204F4E0D004D616E75616C2040
:10192200535441525445440D004D616E75616C2013
:1019320053544F5050454420534146450D004D618C
:0E1942006E75616C2053544F505045440D009B
:00000001FF
