:100000000C94C7000C94E4000C94E4000C94E400FD
:100010000C94E4000C94E4000C94E4000C94E400D0
:100020000C94E4000C94E4000C94E4000C94E400C0
:100030000C94E4000C94E4000C94E4000C94E400B0
:100040000C94E4000C94E4000C94E4000C94E400A0
:100050000C94E4000C94E4000C94E4000C94E40090
:100060000C94E4000C94E4006E616E00696E66000E
:1000700000407A10F35A00A0724E18090010A5D45F
:10008000E80000E87648170000E40B54020000CABC
:100090009A3B000000E1F505000080969800000002
:1000A00040420F000000A086010000001027000061
:1000B0000000E803000000006400000000000A00E7
:1000C000000000000100000000002C76D888DC67EA
:1000D0004F0823DFC1DFAE59E1B1B796E5E3E45342
:1000E000C63AE651997696E8E6C28426EB898C9B5F
:1000F00062ED407C6FFCEFBC9C9F40F2BAA56FA5FF
:10010000F490055A2AF75C936B6CF9676DC11BFC80
:10011000E0E40D47FEF520E6B500D0ED902E03009B
:10012000943577050080841E080000204E0A0000E8
:1001300000C80C333333330F986E12831141EF8DA7
:100140002114893BE65516CFFEE6DB18D1844B38E7
:100150001BF77C1D901DA4BBE424203284725E2218
:100160008100C9F124ECA1E53D27FF0000FF7F00DD
:10017000FFFF007FFF0000FF0000FF7F00FFFF0088
:100180007FFF0000FF7F00FFFF00FFFF007F1124C3
:100190001FBECFEFD8E0DEBFCDBF11E0A0E0B1E0E1
:1001A000E2E2F9E102C005900D92A630B107D9F75D
:1001B00021E0A6E0B1E001C01D92A031B207E1F755
:1001C0000E94E5020C948F0C0C940000E0ECF0E02F
:1001D000908195FFFDCF8093C60090E00895E0ECFC
:1001E000F0E080818823ECF78091C60090E00895CC
:1001F000DC01CB01880F991FAA1FBB1F880F991F15
:10020000AA1FBB1F9C01AD01220F331F441F551FA6
:10021000220F331F441F551F60E072E18AE790E010
:100220000E940709DA01C9010197A109B109809368
:10023000C400892F9A2FAB2FBB278093C50088E17C
:100240008093C100E2ECF0E0808180618083808156
:10025000866080836FEE70E086EE90E00E94870BF0
:100260000895CF93DF93EC017B836A83CB01880FE2
:10027000991F860F971F0E946F09998388831C829C
:100280001D821E821F822898209ADF91CF910895A7
:100290002F923F924F925F926F927F928F929F9296
:1002A000AF92BF92CF92DF92EF92FF920F931F9384
:1002B000CF93DF93CDB7DEB76A970FB6F894DEBF62
:1002C0000FBECDBF9C878B874F8B588F698F7A8FDE
:1002D00068017901DC0112960D90BC91A02DBE87BA
:1002E000AD87DC0114968D919D910D90BC91A02D50
:1002F0008F87988BA98BBA8BED85FE85309709F493
:100300000AC1BF0180E090E00E9437049B01AC016C
:10031000C701B6010E9496036B8B7C8B8D8B9E8BE5
:10032000412C512C212C312CB10180E090E00E9415
:1003300037042F85388949895A890E9413032B89EC
:100340003C894D895E890E9496036B017C010E9465
:1003500074044B015C010E940804462F50E09A018E
:10036000ABEABAEA0E9429099695879596958795F2
:10037000969587959C01220F331F820F931F880F3C
:10038000991F880F991F481B590BBA01660F771FD9
:10039000460F571FBA0166597E4F43E050E0CE0129
:1003A00004960E94680BC701B6010E947F030E9459
:1003B0000804462F50E09A01ABEABAEA0E942909E4
:1003C0009695879596958795969587959C01220F8A
:1003D000331F820F931F880F991F880F991F481B87
:1003E000590BBA01660F771F460F571FBA0166599E
:1003F0007E4F43E050E0CE0101960E94680BA501BC
:100400009401C701B6010E9412036B017C01AB8508
:10041000BC856D907C90640C751C9B01AC0160E008
:1004200070E080E89FE30E9412034B015C016D8144
:1004300070E080E090E00E943904A50194010E94E0
:100440001D056F83788789879A876A8170E080E0CD
:1004500090E00E943904A70196010E941D059B01AE
:10046000AC016F81788589859A850E9413030E946B
:100470000804162F6E8170E080E090E00E9439043D
:10048000A50194010E941D056F83788789879A874B
:100490006B8170E080E090E00E943904A701960132
:1004A0000E941D059B01AC016F81788589859A8525
:1004B0000E9413030E940804062F6C8170E080E004
:1004C00090E00E943904A50194010E941D054B0192
:1004D0005C01698170E080E090E00E943904A7012E
:1004E00096010E941D059B01AC01C501B4010E944B
:1004F00013030E940804F301608311830283FFEF5A
:100500002F1A3F0A23E0420E511C8D859E858215CD
:10051000930509F009CF2F89388D498D5A8DAB8508
:10052000BC8514966D917D918D919C9117970E9439
:100530001303EB85FC8564837583868397836A96B2
:100540000FB6F894DEBF0FBECDBFDF91CF911F91E4
:100550000F91FF90EF90DF90CF90BF90AF909F9062
:100560008F907F906F905F904F903F902F90089565
:10057000DC01ED91FC91119712969C91F8948FEF0C
:10058000890F9923E1F0019006D0019004D00190E9
:100590000E94CB0212C008D007D006D005D004D0EC
:1005A00003D002D001D00895001C289A08F02898A2
:1005B0000000000008F428980895815020F77894EE
:1005C000B5EDBA95F1F700000895CF93DF93CDB75D
:1005D000DEB728970FB6F894DEBF0FBECDBF60E040
:1005E00076E980E090E00E94F80061E070E0CE01E2
:1005F00001960E94310100E010E020E231E44DEC70
:100600005CEC6CEC7DE3CE0101960E944801CE01CA
:1006100001960E94B8028FE19EE40197F1F700C0B5
:100620000000E9CF5058BB27AA270E942A030C9448
:10063000CB040E94BD0438F00E94C40420F039F4B9
:100640009F3F19F426F40C94BA040EF4E095E7FBEE
:100650000C948B04E92F0E94DC0458F3BA1762074C
:1006600073078407950720F079F4A6F50C94160516
:100670000EF4E0950B2EBA2FA02D0B01B9019001BD
:100680000C01CA01A0011124FF27591B99F0593F01
:1006900050F4503E68F11A16F040A22F232F342F49
:1006A0004427585FF3CF469537952795A795F04097
:1006B0005395C9F77EF41F16BA0B620B730B840BAC
:1006C000BAF09150A1F0FF0FBB1F661F771F881F64
:1006D000C2F70EC0BA0F621F731F841F48F48795BC
:1006E00077956795B795F7959E3F08F0B0CF9395AE
:1006F000880F08F09927EE0F9795879508950E9427
:10070000FE0490F09F3748F4911116F40C941705ED
:1007100060E070E080E89FE3089526F01B16611DFD
:10072000711D811D0C9491040C94AC040E94AA03C9
:100730000C94CB040E94C40458F00E94BD0440F005
:1007400029F45F3F29F00C948B0451110C94170588
:100750000C94BA040E94DC0468F39923B1F3552386
:1007600091F3951B550BBB27AA27621773078407C4
:1007700038F09F5F5F4F220F331F441FAA1FA9F35A
:1007800035D00E2E3AF0E0E832D091505040E69548
:10079000001CCAF72BD0FE2F29D0660F771F881FA9
:1007A000BB1F261737074807AB07B0E809F0BB0B9C
:1007B000802DBF01FF2793585F4F3AF09E3F5105B0
:1007C00078F00C948B040C9417055F3FE4F3983E8B
:1007D000D4F3869577956795B795F7959F5FC9F799
:1007E000880F911D9695879597F90895E1E0660F1A
:1007F000771F881FBB1F621773078407BA0720F093
:10080000621B730B840BBA0BEE1F88F7E0950895FB
:100810000E94E40488F09F5798F0B92F9927B751A8
:10082000B0F0E1F0660F771F881F991F1AF0BA9594
:10083000C9F714C0B13091F00E941605B1E00895D7
:100840000C941605672F782F8827B85F39F0B93FC9
:10085000CCF3869577956795B395D9F73EF4909547
:100860008095709561957F4F8F4F9F4F0895E894C5
:1008700009C097FB3EF490958095709561957F4FE8
:100880008F4F9F4F9923A9F0F92F96E9BB27939596
:10089000F695879577956795B795F111F8CFFAF4A6
:1008A000BB0F11F460FF1BC06F5F7F4F8F4F9F4FD7
:1008B00016C0882311F096E911C0772321F09EE835
:1008C000872F762F05C0662371F096E8862F70E09B
:1008D00060E02AF09A95660F771F881FDAF7880F75
:1008E0009695879597F908950E94FE0490F09F379A
:1008F00048F4911116F00C94170560E070E080E860
:100900009FEB089526F41B16611D711D811D0C942B
:1009100091040C94AC0497F99F6780E870E060E064
:100920000895882371F4772321F09850872B762F30
:1009300007C0662311F499270DC09051862B70E0F3
:1009400060E02AF09A95660F771F881FDAF7880F04
:100950009695879597F908959F3F31F0915020F42F
:10096000879577956795B795880F911D969587958B
:1009700097F908959FEF80EC089500240A941616C5
:10098000170618060906089500240A94121613067D
:10099000140605060895092E0394000C11F488230B
:1009A00052F0BB0F40F4BF2B11F460FF04C06F5F27
:1009B0007F4F8F4F9F4F089557FD9058440F551FFD
:1009C00059F05F3F71F04795880F97FB991F61F0D1
:1009D0009F3F79F087950895121613061406551F48
:1009E000F2CF4695F1DF08C0161617061806991FB4
:1009F000F1CF869571056105089408950E94E4047D
:100A0000A0F0BEE7B91788F4BB279F3860F416162C
:100A1000B11D672F782F8827985FF7CF8695779538
:100A20006795B11D93959639C8F30895E894BB274F
:100A300066277727CB0197F908950E9430050C941B
:100A4000CB040E94BD0438F00E94C40420F095231A
:100A500011F00C948B040C94BA0411240C94170517
:100A60000E94DC0470F3959FC1F3950F50E0551F71
:100A7000629FF001729FBB27F00DB11D639FAA27F3
:100A8000F00DB11DAA1F649F6627B00DA11D661F42
:100A9000829F2227B00DA11D621F739FB00DA11D63
:100AA000621F839FA00D611D221F749F3327A00D1D
:100AB000611D231F849F600D211D822F762F6A2FB9
:100AC00011249F5750409AF0F1F088234AF0EE0F1E
:100AD000FF1FBB1F661F771F881F91505040A9F74B
:100AE0009E3F510580F00C948B040C9417055F3FDA
:100AF000E4F3983ED4F3869577956795B795F79587
:100B0000E7959F5FC1F7FE2B880F911D96958795FE
:100B100097F90895A0E1B0E0E0E9F5E00C94380918
:100B20007C011B016A01FC0117821682838181FF0F
:100B300044C39E012F5F3F4F3901F7019381F101BB
:100B400093FD859193FF81911F01882309F431C39F
:100B5000853239F493FD859193FF81911F01853290
:100B600039F4B70190E00E94D20B56016501E5CF40
:100B700010E0512C912CFFE1F915D8F08B3279F06F
:100B800038F4803279F08332A1F4F92DF0612EC06F
:100B90008D3261F0803369F4292D21602DC0392D0B
:100BA0003260932E892D8460982E2AC0E92DE8604A
:100BB00015C097FC2DC020ED280F2A3088F496FE32
:100BC00006C03AE0139F200D1124122F19C08AE0AD
:100BD000589E200D1124522EE92DE0629E2E10C049
:100BE0008E3231F496FCE5C2F92DF0649F2E08C0D8
:100BF0008C3621F4292D2068922E02C0883641F4CB
:100C0000F10193FD859193FF81911F018111B3CF74
:100C10009BEB980F933020F4992D9061805E07C074
:100C20009BE9980F933008F066C1992D9F7E96FF3F
:100C300016E09F73992E853619F49064992E08C09A
:100C4000863621F4392F3068932E02C011111150CD
:100C500097FE07C01C3350F444244394410E27E010
:100C60000BC0183038F027E017E005C027E09CE300
:100C7000492E02C0212F412C560184E0A80EB11C40
:100C8000F6016081718182819381042DA3010E940C
:100C9000900A6C01F981FC87F0FF02C0F3FF06C0E7
:100CA00091FC06C092FE06C000E205C00DE203C042
:100CB0000BE201C000E08C858C7019F001115AC262
:100CC0009BC297FE10C04C0CFC85F4FF04C08A81C7
:100CD000813309F44A94141474F528E0241578F546
:100CE00088E0482E2CC096FC2AC0812F90E08C15FD
:100CF0009D059CF03CEFC3163FEFD30674F0892DA1
:100D00008068982E0AC0E2E0F0E0EC0FFD1FE10FD2
:100D1000F11D8081803319F411501111F4CF97FE29
:100D20000EC044244394410E812F90E0C816D9068A
:100D30002CF41C1904C04424439401C010E097FE15
:100D400006C01C141D0434F4C601019605C085E0DC
:100D500090E002C081E090E001110196112331F092
:100D6000212F30E02F5F3F4F820F931F252D30E062
:100D70008217930714F4581A01C0512C892D8970D9
:100D800049F4552039F0B70180E290E00E94D20B7F
:100D90005A94F7CF002329F0B701802F90E00E94EA
:100DA000D20B93FC09C0552039F0B70180E390E0E5
:100DB0000E94D20B5A94F7CF97FE4CC04601D7FE43
:100DC00002C0812C912CC60188199909F301E80F02
:100DD000F91FFE87ED87960124193109388B2F877B
:100DE000012F10E01195019511093FEF831693062D
:100DF00029F4B7018EE290E00E94D20BC814D90406
:100E00004CF08F8598898815990524F4ED85FE8529
:100E1000818101C080E3F1E08F1A91082D853E8524
:100E20002F5F3F4F3E872D87801691062CF0B7012C
:100E300090E00E94D20BD9CFC814D90441F49A8112
:100E4000963320F4953319F43C8534FF81E3B701E0
:100E500090E04EC08A81813319F09C859F7E9C87EB
:100E6000B70190E00E94D20B111105C094FC18C08C
:100E700085E690E017C0B7018EE290E00E94D20BA9
:100E80001E5F82E001E0080FF301E80FF11D808191
:100E9000B70190E00E94D20B802F0113F3CFE6CF71
:100EA00085E490E0B7010E94D20BD7FC06C0C114C4
:100EB000D10441F4EC85E4FF05C0D194C194D1087C
:100EC0008DE201C08BE2B70190E00E94D20B80E37B
:100ED0002AE0C216D1042CF08F5FFAE0CF1AD108B5
:100EE000F7CFB70190E00E94D20BB701C601C096C0
:100EF0000E94D20B54C1833631F0833779F08335A9
:100F000009F056C020C0560132E0A30EB11CF60114
:100F10008081898301E010E0630112C05601F2E094
:100F2000AF0EB11CF601C080D18096FE03C0612FC8
:100F300070E002C06FEF7FEFC6010E947C0B8C0156
:100F4000F92DFF7714C0560122E0A20EB11CF60164
:100F5000C080D18096FE03C0612F70E002C06FEFA9
:100F60007FEFC6010E94710B8C01F92DF0689F2E56
:100F7000F3FD1AC0852D90E008171907A8F4B701F2
:100F800080E290E00E94D20B5A94F4CFF60197FCD5
:100F9000859197FE81916F01B70190E00E94D20B7D
:100FA00051105A94015011090115110579F7F7C034
:100FB000843611F0893661F5560197FE09C024E0A8
:100FC000A20EB11CF60160817181828193810AC0F9
:100FD000F2E0AF0EB11CF60160817181072E000CAA
:100FE000880B990BF92DFF769F2E97FF09C09095DE
:100FF0008095709561957F4F8F4F9F4FF0689F2E22
:101000002AE030E0A3010E940E0CC82EC6183FC093
:10101000092D853721F40F7E2AE030E01DC0097FBD
:101020008F3691F018F4883559F0C3C0803719F025
:10103000883711F0BEC0006104FF09C0046007C01A
:1010400094FE08C0066006C028E030E005C020E13C
:1010500030E002C020E132E0560107FF09C084E021
:10106000A80EB11CF601608171818281938108C054
:10107000F2E0AF0EB11CF6016081718180E090E07A
:10108000A3010E940E0CC82EC6180F77902E96FE54
:101090000BC0092D0E7FC11650F494FE0AC092FCBD
:1010A00008C0092D0E7E05C0DC2C092D03C0DC2CE8
:1010B00001C0D12E04FF0DC0FE01EC0DF11D808199
:1010C000803311F4097E09C002FF06C0D394D39483
:1010D00004C0802F867809F0D39403FD11C000FF6F
:1010E00006C01C2DD51480F4150D1D190DC0D51486
:1010F00058F4B70180E290E00E94D20BD394F7CF6E
:10110000D51410F45D1801C0512C04FF10C0B701B4
:1011100080E390E00E94D20B02FF17C001FD03C0E4
:1011200088E790E002C088E590E0B7010CC0802F0E
:10113000867859F001FF02C08BE201C080E207FD12
:101140008DE2B70190E00E94D20BC11638F4B701CE
:1011500080E390E00E94D20B1150F7CFCA94F301C4
:10116000EC0DF11D8081B70190E00E94D20BC110FF
:10117000F5CF15C0F4E0F51560F584E0581A93FE3C
:101180001FC0011127C02C8523FF2AC008E610E0EC
:10119000392D3071932EF8018491811124C055208E
:1011A00009F4E4CCB70180E290E00E94D20B5A949B
:1011B000F6CFF7018681978126C08FEF9FEF23C07E
:1011C000B70180E290E00E94D20B5A945110F8CF00
:1011D000D8CF512CB701802F90E00E94D20BD3CFF3
:1011E0000CE610E0D5CF91108052B70190E00E943C
:1011F000D20B0F5F1F4FCFCF23E0251510F483E0F4
:10120000BDCF512CC0CF6096E2E10C945409A1E20D
:101210001A2EAA1BBB1BFD010DC0AA1FBB1FEE1F70
:10122000FF1FA217B307E407F50720F0A21BB30BBB
:10123000E40BF50B661F771F881F991F1A9469F737
:1012400060957095809590959B01AC01BD01CF0193
:101250000895A29FB001B39FC001A39F700D811D8F
:101260001124911DB29F700D811D1124911D0895AF
:101270002F923F924F925F926F927F928F929F92A6
:10128000AF92BF92CF92DF92EF92FF920F931F9394
:10129000CF93DF93CDB7DEB7CA1BDB0B0FB6F89445
:1012A000DEBF0FBECDBF09942A88398848885F8485
:1012B0006E847D848C849B84AA84B984C884DF80F6
:1012C000EE80FD800C811B81AA81B981CE0FD11DDA
:1012D0000FB6F894DEBF0FBECDBFED0108950F939A
:1012E0001F93CF93DF938230910510F482E090E05A
:1012F000E0910801F091090120E030E0A0E0B0E0C9
:10130000309719F1408151810281138148175907A3
:10131000C8F08417950769F4109731F012960C9372
:10132000129713961C9327C000930801109309018C
:1013300022C02115310519F04217530718F49A01FC
:10134000BD01EF01DF01F801DBCF21153105F9F017
:10135000281B390B2430310580F48A819B8161156B
:10136000710521F0FB019383828304C090930901EE
:1013700080930801FE01329644C0FE01E20FF31F84
:101380008193919322503109398328833AC0209167
:10139000060130910701232B41F420910201309185
:1013A0000301309307012093060120910001309141
:1013B00001012115310541F42DB73EB740910401DB
:1013C00050910501241B350BE0910601F0910701B6
:1013D000E217F307A0F42E1B3F0B2817390778F00C
:1013E000AC014E5F5F4F2417350748F04E0F5F1F6B
:1013F00050930701409306018193919302C0E0E06E
:10140000F0E0CF01DF91CF911F910F910895CF931D
:10141000DF93009709F481C0FC0132971382128296
:10142000A0910801B0910901109781F420813181C8
:10143000820F931F20910601309107012817390769
:1014400051F5F0930701E093060167C0ED0120E03C
:1014500030E0CE17DF0740F44A815B819E014115E1
:101460005105F1F0EA01F5CFD383C2834081518168
:10147000840F951FC817D90759F488819981840F63
:10148000951F0296918380838A819B8193838283B7
:101490002115310529F4F0930901E09308013DC0BD
:1014A000E901FB83EA8349915991C40FD51FEC17D9
:1014B000FD0761F480819181840F951F0296E901F7
:1014C00099838883828193819B838A83E0E0F0E023
:1014D00012968D919C911397009719F0FD01DC01F4
:1014E000F7CF8D919C9111979D012E5F3F4F820FF9
:1014F000931F20910601309107012817390769F4DD
:10150000309729F4109209011092080102C0138249
:101510001282B0930701A0930601DF91CF91089545
:10152000283008F027E03327DA01990F311D87FDB5
:10153000916000966105710539F432602E5F3D932C
:1015400030E32A95E1F708959F3F30F08038710528
:10155000610509F03C5F3C5F3D93913008F0806885
:10156000911DDF93CF931F930F93FF92EF92192F4B
:10157000987F9695E92F96959695E90FFF27E65364
:10158000FF4F99273327EE24FF24A701E701059099
:101590000894079428F4360FE71EF81E491F511DC2
:1015A000660F771F881F991F0694A1F7059007946F
:1015B00028F4E70EF81E491F561FC11D770F881F1C
:1015C000991F661F0694A1F70590079428F4F80E5A
:1015D000491F561FC71FD11D880F991F661F771FF0
:1015E0000694A1F70590079420F4490F561FC71FD2
:1015F000D81F990F661F771F881F0694A9F784913B
:101600001095177041F0D695C79557954795F79463
:10161000E7941A95C1F7E0E7F0E06894159015910A
:1016200035916591959105907FE27395E118F10AE6
:10163000430B560BC90BD009C0F7E10CF11E431F39
:10164000561FC91FD01D7EF4703311F48A95E6CF62
:10165000E894015030F0080F0AF40027021708F44C
:10166000202F2395022F7A3328F079E37D932A9552
:10167000E9F710C07D932A9589F6069497956795AA
:10168000379517951794E118F10A430B560BC90BC0
:10169000D00998F023957E9173957A3308F070E322
:1016A0007C932013B8F77E9170617D9330F0839521
:1016B00071E37D9370E32A95E1F71124EF90FF9099
:1016C0000F911F91CF91DF91992787FD90950895F4
:1016D000FB01DC0102C005900D9241505040D8F74B
:1016E0000895FC010590615070400110D8F7809575
:1016F00090958E0F9F1F0895FC01615070400190DE
:101700000110D8F7809590958E0F9F1F08950F9325
:101710001F93CF93DF93009731F46115710519F48E
:1017200080E090E03AC08B01EC016EE070E081E077
:1017300090E00E946C0CFC01892B91F380E883837C
:101740000115110571F01387028781E88383809169
:101750000A0190910B01892B21F4F0930B01E09386
:101760000A012097C9F0D187C08783818260838373
:1017700080910C0190910D01892B71F4F0930D0172
:10178000E0930C0180910E0190910F01892B21F4BF
:10179000F0930F01E0930E01CF01DF91CF911F91E4
:1017A0000F9108950F931F93CF93DF93FB01238134
:1017B00021FD03C08FEF9FEF2CC022FF16C0468192
:1017C0005781248135814217530744F4A081B181A8
:1017D0009D012F5F3F4F318320838C93268137817A
:1017E0002F5F3F4F3783268314C08B01EC01FB0131
:1017F0000084F185E02D0995892BE1F6D801169634
:101800008D919C911797019617969C938E9316979E
:10181000CE01DF91CF911F910F910895FA01AA2770
:10182000283051F1203181F1E8946F936E7F6E5F23
:101830007F4F8F4F9F4FAF4FB1E03ED0B4E03CD0D1
:10184000670F781F891F9A1FA11D680F791F8A1FB4
:10185000911DA11D6A0F711D811D911DA11D20D01B
:1018600009F468943F912AE0269F11243019305DD5
:101870003193DEF6CF010895462F4770405D4193C6
:10188000B3E00FD0C9F7F6CF462F4F70405D4A3313
:1018900018F0495D31FD4052419302D0A9F7EACFDB
:1018A000B4E0A6959795879577956795BA95C9F70A
:1018B00000976105710508959B01AC010A2E0694FD
:1018C0005795479537952795BA95C9F7620F731FB6
:1018D000841F951FA01D08950F931F93CF93DF932F
:1018E000869F8001879F100D969F100D1124C801BF
:1018F0000E946F09EC01009729F0A80160E070E0F8
:101900000E94880CCE01DF91CF911F910F91089515
:10191000DC0101C06D9341505040E0F70895F89408
:02192000FFCFF7
:061922000000100120008E
:00000001FF
