S022000075617274426C7565746F6F74685F636F6D756E69636174696F6E2E7372656328
S11300000C946C000C9494000C9494000C94940044
S11300100C9494000C9494000C9494000C9494000C
S11300200C9494000C9494000C9494000C949400FC
S11300300C9494000C9494000C9494000C949400EC
S11300400C9494000C9494000C9494000C949400DC
S11300500C94940008000000BE922449123EABAAFE
S1130060AA2ABECDCCCC4C3E00000080BEABAAAACE
S1130070AA3E00000000BF000000803F0000000016
S113008000084178D3BB4387D1133D190E3CC3BD4F
S11300904282AD2B3E68EC8276BED98FE1A93E4CFC
S11300A080EFFFBE01C4FF7F3F0000000000076334
S11300B04236B79BD8A71A39685618AEBAAB558CD6
S11300C01D3CB7CC5763BD6DEDFD753EF61772311F
S11300D0BF000000803FD50011241FBECFE5D8E04B
S11300E0DEBFCDBF10E0A0E6B0E0EAE0FDE002C074
S11300F005900D92A839B107D9F721E0A8E9B0E03D
S113010001C01D92AE32B207E1F710E0CCE6D0E0B8
S113011004C02197FE010E947D06CB36D107C9F7A2
S11301200E9496000C9483060C94000040E855E26B
S113013060E070E088E990E00E94DB0088E990E0EC
S11301400E942E01C82F88E990E00E949C018C0136
S1130150CC23A1F36AE770E088E990E00E947A0179
S1130160C8010E948502BC0188E990E00E948F01C9
S113017062E870E088E990E00E947A01C8010E9478
S11301809202BC0188E990E00E9440026BE870E0B2
S113019088E990E00E947A01C8010E949702BC019C
S11301A088E990E00E944002C9CF88E990E00E946B
S11301B0DA0008950895CF93DF93EC01DB01CA01BF
S11301C0880F991FAA1FBB1F880F991FAA1FBB1F47
S11301D09C01AD01220F331F441F551F220F331FF3
S11301E0441F551F60E074E284EF90E00E945B06B8
S11301F0DA01C9010197A109B10989B9892F9A2F97
S1130200AB2FBB2780BD1BB888E18AB986E880BDC7
S1130210FE01E058FF4F11821082DE01E054F10923
S113022083E28D93AE17BF07E1F71FAE9E012058FE
S11302303F4F83E28193E217F307E1F7C158DF4FA1
S11302401882DF91CF9108955D9BFECF6CB95E9BC0
S1130250FECF08955F9BFECF8CB10895CF93DF93BB
S11302605F9B3EC0EC010E942A018A30D9F18823A9
S1130270D9F1FE01E058FF4F40815181DE01A40F06
S1130280B51F8C934F5F5F4F518340838D3071F561
S1130290CE01805C9F4FFC0120E030E0241735073D
S11302A034F4DF01A054B1096C91608306C0421795
S11302B0530711F4108201C010822F5F3F4F319613
S11302C02034310559F7FE0123E22193E817F90799
S11302D0E1F71FAEC058DF4F1982188281E007C0D2
S11302E080E005C080E003C080E001C080E0DF91D1
S11302F0CF9108950F931F93CF93DF93EB01688100
S1130300662341F08C012196C8010E942401699161
S11303106111FACFDF91CF911F910F910895CF937F
S1130320DF93EC010E947A0164E970E0CE010E943F
S11303307A01DF91CF910895805C9F4F08954F9289
S11303405F926F927F928F929F92AF92BF92EF9241
S1130350FF920F931F93CF93DF935C01992354F47F
S11303608DE280931A01B194A194B108EE24E39430
S1130370F12C02C0E12CF12C1A141B047CF4B501FD
S11303800B2C000C880B990B0E94D5030E9461046E
S11303900E949D038B0177231CF443C000E010E00E
S11303A0E701C65EDE4FB501BB0C880B990B0E94BA
S11303B0D5034B015C01B801012E000C880B990B8D
S11303C00E94D5039B01AC0160E070E080E291E4FF
S11303D00E9426052B013C019B01AC01C501B4011F
S11303E00E942B030E949D0320E3260F29939E0164
S11303F02A5131407901072E000C880B990B0E9479
S1130400D503A30192010E94B9049B01AC01C5016B
S1130410B4010E94BE020E949D035B0101501109B8
S113042012F6F701E65EFE4F1082C701019644976B
S11304304CF4E701C55EDE4F8EE291E019928C1711
S11304409D07E1F78AE191E0DF91CF911F910F9130
S1130450FF90EF90BF90AF909F908F907F906F90A0
S11304605F904F900895CF93DF93EC01CB010E94EE
S11304709F01BC01CE010E947A01DF91CF910895C2
S1130480CF93DF93EC010E94330264E970E0CE0164
S11304900E947A01DF91CF910895FC0180818D3211
S11304A029F421E030E06FEF7FEF04C020E030E07A
S11304B061E070E0DF01A20FB31F9C919923D9F092
S11304C02F5F3F4FE20FF31F20E030E0A901440FFC
S11304D0551F220F331F220F331F220F331F420FCA
S11304E0531F292F30E020533109240F351F9191D8
S11304F09111ECCF02C020E030E0629FC001639F05
S1130500900D729F900D11240895DC01E4E7F0E052
S113051028E730E08D918193E217F307D9F784E758
S113052090E00895FC01848190E0C0970895FC0157
S11305303696A0E6B0E020E030E0919180ED890F9E
S11305408A3010F09D3221F49D932F5F3F4FF5CFF9
S1130550F901E05AFF4F1082C901019644974CF407
S1130560F901EF59FF4F84E790E01192E817F9077A
S1130570E1F780E690E00E944D0208955058BB27B1
S1130580AA270E94D6020C9427040E94190438F06A
S11305900E94200420F039F49F3F19F426F40C94AF
S11305A016040EF4E095E7FB0C941004E92F0E9466
S11305B0380458F3BA17620773078407950720F0C5
S11305C079F4A6F50C945A040EF4E0950B2EBA2F88
S11305D0A02D0B01B90190010C01CA01A001112445
S11305E0FF27591B99F0593F50F4503E68F11A16F1
S11305F0F040A22F232F342F4427585FF3CF469582
S113060037952795A795F0405395C9F77EF41F16A3
S1130610BA0B620B730B840BBAF09150A1F0FF0F6D
S1130620BB1F661F771F881FC2F70EC0BA0F621F59
S1130630731F841F48F4879577956795B795F79549
S11306409E3F08F0B0CF9395880F08F09927EE0FDE
S11306509795879508950E943F030C9427040E9460
S1130660200458F00E94190440F029F45F3F29F057
S11306700C94100451110C945B040C9416040E9405
S1130680380468F39923B1F3552391F3951B550B63
S1130690BB27AA2762177307840738F09F5F5F4F51
S11306A0220F331F441FAA1FA9F335D00E2E3AF090
S11306B0E0E832D091505040E695001CCAF72BD0A8
S11306C0FE2F29D0660F771F881FBB1F26173707F9
S11306D04807AB07B0E809F0BB0B802DBF01FF272B
S11306E093585F4F3AF09E3F510578F00C941004F4
S11306F00C945B045F3FE4F3983ED4F386957795BE
S11307006795B795F7959F5FC9F7880F911D9695E3
S1130710879597F90895E1E0660F771F881FBB1F3F
S1130720621773078407BA0720F0621B730B840BEC
S1130730BA0BEE1F88F7E09508950E94A40368940D
S1130740B1110C945B0408950E94400488F09F57F3
S113075098F0B92F9927B751B0F0E1F0660F771FE1
S1130760881F991F1AF0BA95C9F714C0B13091F0D7
S11307700E945A04B1E008950C945A04672F782F0C
S11307808827B85F39F0B93FCCF38695779567959C
S1130790B395D9F73EF490958095709561957F4F08
S11307A08F4F9F4F0895E89409C097FB3EF49095AE
S11307B08095709561957F4F8F4F9F4F9923A9F036
S11307C0F92F96E9BB279395F695879577956795C5
S11307D0B795F111F8CFFAF4BB0F11F460FF1BC009
S11307E06F5F7F4F8F4F9F4F16C0882311F096E99C
S11307F011C0772321F09EE8872F762F05C066234A
S113080071F096E8862F70E060E02AF09A95660F02
S1130810771F881FDAF7880F9695879597F90895BB
S113082097F99F6780E870E060E008959FEF80EC9F
S1130830089500240A941616170618060906089542
S113084000240A9412161306140605060895092EA8
S11308500394000C11F4882352F0BB0F40F4BF2B17
S113086011F460FF04C06F5F7F4F8F4F9F4F089557
S113087057FD9058440F551F59F05F3F71F047954D
S1130880880F97FB991F61F09F3F79F08795089532
S1130890121613061406551FF2CF4695F1DF08C051
S11308A0161617061806991FF1CF8695710561056E
S11308B008940895E894BB2766277727CB0197F916
S11308C008950E94710429ED3BE54EED5EE30C941E
S11308D0B90416F00C94B0050C94160468940C94A6
S11308E010040E944004A8F39923C1F3AEF3DF93EC
S11308F0CF931F930F93FF92C92FDD2788232AF0EC
S11309002197660F771F881FDAF720E030E040E870
S11309105FEB9FE3883920F0803E38F021968F7793
S11309200E94BF02E4E5F0E004C00E94BF02E1E8D7
S1130930F0E00E94BE058B01BE01EC01FB2E6F5757
S113094071097595771F880B990B0E94D50328E1CF
S113095032E741E35FE30E94CC04AF2D9801AE017E
S1130960FF900F911F91CF91DF910E94D6020C94BA
S113097027040E94CC040C9427040E94190438F024
S11309800E94200420F0952311F00C9410040C9480
S1130990160411240C945B040E94380470F3959F90
S11309A0C1F3950F50E0551F629FF001729FBB2762
S11309B0F00DB11D639FAA27F00DB11DAA1F649FFE
S11309C06627B00DA11D661F829F2227B00DA11DB1
S11309D0621F739FB00DA11D621F839FA00D611D37
S11309E0221F749F3327A00D611D231F849F600D58
S11309F0211D822F762F6A2F11249F5750409AF081
S1130A00F1F088234AF0EE0FFF1FBB1F661F771F0C
S1130A10881F91505040A9F79E3F510580F00C94D7
S1130A2010040C945B045F3FE4F3983ED4F3869582
S1130A3077956795B795F795E7959F5FC1F7FE2B77
S1130A40880F911D9695879597F90895FA01EE0FF1
S1130A50FF1F309621053105A1F16115710561F47F
S1130A608038BFE39B0749F168949038810561F0B1
S1130A708038BFEF9B0741F099234AF5FF3FE1051A
S1130A803105210519F1E8940894E795D901AA23C1
S1130A9029F4AB2FBE2FF85FD0F310C0FF5F70F4C2
S1130AA0A695E0F7F73950F019F0FF3A38F49F773C
S1130AB09F930DD00F9007FC9058089546F00C9426
S1130AC0160460E070E080E89FE308954FE79F77A5
S1130AD05F934F933F932F930E9471042F913F9103
S1130AE04F915F910E94B9040C947E0529F416F08D
S1130AF00C9410040C945A040C9416040E944004A0
S1130B00A8F39638A0F707F80F92E8942BE33AEA93
S1130B1048EB5FE70E94CF040F920F920F924DB7FC
S1130B205EB70F920E942706EEEAF0E00E94BE052F
S1130B304F915F91EF91FF91E595EE1FFF1F49F0F3
S1130B40FE57E0684427EE0F441FFA95E1F74195FC
S1130B50550B0E94F1050F9007FE0C94E5050895CE
S1130B609F3F31F0915020F4879577956795B7951D
S1130B70880F911D9695879597F90895DF93CF93E4
S1130B801F930F93FF92EF92DF927B018C01689485
S1130B9006C0DA2EEF010E94CC04FE01E894A59170
S1130BA02591359145915591A6F3EF010E94D60206
S1130BB0FE019701A801DA9469F7DF90EF90FF90A6
S1130BC00F911F91CF91DF9108959B01AC0160E0DB
S1130BD070E080E89FE30C942B030C9410040C94B5
S1130BE0B0050E944004D8F39923C9F3940F511D12
S1130BF0A3F39150504094F059F0882332F0660FDB
S1130C00771F881F91505040C1F79E3F51052CF724
S1130C10880F911D9695879597F908955F3FACF0DD
S1130C20983E9CF0BB27869577956795B79508F411
S1130C30B1609395C1F7BB0F58F711F460FFE8CF8B
S1130C406F5F7F4F8F4F9F4FE3CF0C945B04FA018C
S1130C50DC01AA0FBB1F9B01AC01BF5728F422275C
S1130C6033274427507820C0B75190F4AB2F002489
S1130C70469537952795011CA395D2F3002071F072
S1130C80220F331F441FB395DAF30ED00C94BE0227
S1130C9061307105A0E88A07B94630F49B01AC01C4
S1130CA06627772788279078309621F02083318330
S1130CB0428353830895A1E21A2EAA1BBB1BFD0194
S1130CC00DC0AA1FBB1FEE1FFF1FA217B307E40727
S1130CD0F50720F0A21BB30BE40BF50B661F771F7F
S1130CE0881F991F1A9469F760957095809590955F
S1130CF09B01AC01BD01CF010895EE0FFF1F0590CC
S10D0D00F491E02D0994F894FFCF5C
S1130D0A23232323232323232323232323232323A5
S1130D1A23230000232323230000547970653A090E
S1130D2A0000496E6465783A09000056616C75657D
S10B0D3A3A0900000D0A000053
S9030000FC
