S0140000575332383132425F746573742E7372656338
S11300000C942B000C9448000C9448000C94480069
S11300100C9448000C9448000C9448000C9448003C
S11300200C9448000C9448000C9448000C9448002C
S11300300C9448000C9448000C9448000C9448001C
S11300400C9448000C9448000C9448000C9448000C
S11300500C9448000E0111241FBECFE5D8E0DEBF8A
S1130060CDBF20E0A0E6B0E001C01D92AE39B207DA
S1130070E1F710E0CBE2D0E004C02197FE010E943A
S11300808603CA32D107C9F70E94B2000C948C03CC
S11300900C9400008F929F92AF92BF92CF92DF9206
S11300A0EF92FF92CF93DF93EC016A017B016091A1
S11300B060007091610061507109072E000C880B7B
S11300C0990B0E94650220E030E040E05FE30E946B
S11300D0F1024B015C01A70196010E94F1026B0140
S11300E07C01BE010D2E000C880B990B0E94650249
S11300F0A50194010E944E019B01AC01C701B60108
S11301000E944E019F7720E030E048EC52E40E94C8
S1130110F1029B01AC0160E070E08FE793E40E9480
S11301204E010E942D026F3F710519F014F06FEF1C
S113013070E0CB01992314F480E090E0249721F43B
S1130140682F70E0809503C060E0782F8095DF9180
S1130150CF91FF90EF90DF90CF90BF90AF909F90A2
S11301608F90089587B1806687B986B1876886B90C
S1130170C12CD12CAA24AA94B12C0F2EF0E6EF2E78
S1130180F0E0FF2EF02DC6010196B5010E945E033A
S11301906C01BC01990F880B990B0E94650220E049
S11301A030E04FEF52E40E944E01905820E030E0DE
S11301B04FEF52E40E94BB012B013C01F701408147
S11301C0518114161506F4F400E610E0C0E0D0E006
S11301D0B301A201CE010E944A00DD2354F0F701CD
S11301E020813181C217D30724F4F8016283738319
S11301F084832196F701408151810D5F1F4FC417FD
S1130200D50734F362E670E0C7010E9419018FE359
S11302109CE90197F1F700C00000B5CF84E190E0BC
S11302200197F1F785E090E090936100809360007E
S11302300895FB01A898A09AF894CA010197452B48
S113024009F424C00190008007D0029005D00190E9
S11302500190019001D017C008D007D006D005D076
S113026004D003D002D001D00895A89A001C000045
S1130270000008F0A8980000000000000000000042
S113028008F4A8980895019708F0DCCF78948FE3D8
S113029091E00197F1F700C0000008955058BB2782
S11302A0AA270E9466010C94B7020E94A90238F0A2
S11302B00E94B00220F039F49F3F19F426F40C9404
S11302C0A6020EF4E095E7FB0C94A002E92F0E942D
S11302D0C80258F3BA17620773078407950720F01A
S11302E079F4A6F50C94EA020EF4E0950B2EBA2FDD
S11302F0A02D0B01B90190010C01CA01A001112428
S1130300FF27591B99F0593F50F4503E68F11A16D3
S1130310F040A22F232F342F4427585FF3CF469564
S113032037952795A795F0405395C9F77EF41F1686
S1130330BA0B620B730B840BBAF09150A1F0FF0F50
S1130340BB1F661F771F881FC2F70EC0BA0F621F3C
S1130350731F841F48F4879577956795B795F7952C
S11303609E3F08F0B0CF9395880F08F09927EE0FC1
S11303709795879508950E94CF010C94B7020E9427
S1130380B00258F00E94A90240F029F45F3F29F01E
S11303900C94A00251110C94EB020C94A6020E943E
S11303A0C80268F39923B1F3552391F3951B550BB8
S11303B0BB27AA2762177307840738F09F5F5F4F34
S11303C0220F331F441FAA1FA9F335D00E2E3AF073
S11303D0E0E832D091505040E695001CCAF72BD08B
S11303E0FE2F29D0660F771F881FBB1F26173707DC
S11303F04807AB07B0E809F0BB0B802DBF01FF270E
S113040093585F4F3AF09E3F510578F00C94A00248
S11304100C94EB025F3FE4F3983ED4F38695779512
S11304206795B795F7959F5FC9F7880F911D9695C6
S1130430879597F90895E1E0660F771F881FBB1F22
S1130440621773078407BA0720F0621B730B840BCF
S1130450BA0BEE1F88F7E09508950E943402689461
S1130460B1110C94EB0208950E94D00288F09F57BA
S113047098F0B92F9927B751B0F0E1F0660F771FC4
S1130480881F991F1AF0BA95C9F714C0B13091F0BA
S11304900E94EA02B1E008950C94EA02672F782FD3
S11304A08827B85F39F0B93FCCF38695779567957F
S11304B0B395D9F73EF490958095709561957F4FEB
S11304C08F4F9F4F0895E89409C097FB3EF4909591
S11304D08095709561957F4F8F4F9F4F9923A9F019
S11304E0F92F96E9BB279395F695879577956795A8
S11304F0B795F111F8CFFAF4BB0F11F460FF1BC0EC
S11305006F5F7F4F8F4F9F4F16C0882311F096E97E
S113051011C0772321F09EE8872F762F05C066232C
S113052071F096E8862F70E060E02AF09A95660FE5
S1130530771F881FDAF7880F9695879597F908959E
S113054097F99F6780E870E060E008959FEF80EC82
S1130550089500240A941616170618060906089525
S113056000240A9412161306140605060895092E8B
S11305700394000C11F4882352F0BB0F40F4BF2BFA
S113058011F460FF04C06F5F7F4F8F4F9F4F08953A
S113059057FD9058440F551F59F05F3F71F0479530
S11305A0880F97FB991F61F09F3F79F08795089515
S11305B0121613061406551FF2CF4695F1DF08C034
S11305C0161617061806991FF1CF86957105610551
S11305D008940895E894BB2766277727CB0197F9F9
S11305E008950E9404030C94B7020E94A90238F0F3
S11305F00E94B00220F0952311F00C94A0020C94F8
S1130600A60211240C94EB020E94C80270F3959F79
S1130610C1F3950F50E0551F629FF001729FBB27F5
S1130620F00DB11D639FAA27F00DB11DAA1F649F91
S11306306627B00DA11D661F829F2227B00DA11D44
S1130640621F739FB00DA11D621F839FA00D611DCA
S1130650221F749F3327A00D611D231F849F600DEB
S1130660211D822F762F6A2F11249F5750409AF014
S1130670F1F088234AF0EE0FFF1FBB1F661F771FA0
S1130680881F91505040A9F79E3F510580F00C946B
S1130690A0020C94EB025F3FE4F3983ED4F38695FA
S11306A077956795B795F795E7959F5FC1F7FE2B0B
S11306B0880F911D9695879597F9089597FB072EB6
S11306C016F4009407D077FD09D00E94720307FC4A
S11306D005D03EF4909581959F4F0895709561954E
S11306E07F4F0895AA1BBB1B51E107C0AA1FBB1F64
S11306F0A617B70710F0A61BB70B881F991F5A95AA
S1130700A9F780959095BC01CD010895EE0FFF1FC8
S10F07100590F491E02D0994F894FFCFBB
S9030000FC
