S0150000416C6C576861745765486176652E7372656322
S11300000C94A8000C94D0000C94D0000C94D00054
S11300100C94D0000C94D0000C94D0000C94910655
S11300200C94D0000C94D0000C94D0000C94D0000C
S11300300C94D0000C94D0000C94D0000C94D000FC
S11300400C94D0000C94D0000C94D0000C94D000EC
S11300500C94D00008000000BE922449123EABAAC2
S1130060AA2ABECDCCCC4C3E00000080BEABAAAACE
S1130070AA3E00000000BF000000803F0000000016
S113008000084178D3BB4387D1133D190E3CC3BD4F
S11300904282AD2B3E68EC8276BED98FE1A93E4CFC
S11300A080EFFFBE01C4FF7F3F0000000000076334
S11300B04236B79BD8A71A39685618AEBAAB558CD6
S11300C01D3CB7CC5763BD6DEDFD753EF61772311F
S11300D0BF000000803F080307171E0307090D0037
S11300E005050F0F010000070B100B1000000000A6
S11300F00107070D0D00000105030A0E18030A0489
S11301000900101C283001010003050C0F1E050C0A
S1130110040B001015252501010002050C11220510
S11301200C050C000000000001010002050C112266
S1130130050C050C0010102020010100010F15070B
S11301400B070B070B0F14000F1400010000F70638
S113015011241FBECFE5D8E0DEBFCDBF10E0A0E67E
S1130160B0E0EEEBF7E102C005900D92A038B107C4
S1130170D9F721E0A0E8B0E001C01D92AB34B2078A
S1130180E1F710E0C8EAD0E004C02197FE010E9424
S1130190CE0BC73AD107C9F70E94BC060C94DD0BFD
S11301A00C9400002091AC009091B400921748F197
S11301B03091AD00931728F53091B2003323A9F0A4
S11301C0482F50E0692F621B9A0102C0220F331F8F
S11301D06A95E2F74091980050919900242B352BB1
S11301E0309399002093980038C020919800309162
S11301F09900220F331F282B3093990020939800E5
S11302002CC02091AE00921740F13091AF009317AB
S113021020F53091B2003323A9F0482F50E0692F24
S1130220621B9A0102C0220F331F6A95E2F74091C4
S1130230960050919700242B352B309397002093F0
S113024096000BC02091960030919700220F331F27
S1130250282B30939700209396002091A3002330FD
S1130260C9F42FEE290F243008F06DC0282F30E098
S11302708FEE890F02C0220F331F8A95E2F7409157
S1130280940050919500242B352B309395002093A6
S1130290940059C0253009F056C02CEE290F2430A3
S11302A0A0F4282F30E048EF490F02C0220F331F7B
S11302B04A95E2F74091960050919700242B352BF4
S11302C0309397002093960012C028EE290F243013
S11302D070F4282F30E04CEE490F02C0220F331F78
S11302E04A95E2F730918D00232B20938D009033B3
S11302F050F58823A1F0E92FE695E695E695F0E020
S1130300E257FF4F892F877021E030E002C0220FAF
S1130310331F8A95E2F78081282B208314C0E92FAC
S1130320E695E695E695F0E0E257FF4F892F877052
S113033021E030E002C0220F331F8A95E2F72095B6
S11303408081282320839F5F9093B400089592981E
S11303508A980895FC018091A200882309F4BBC007
S11303609091A100933059F018F4923099F18FC014
S1130370973009F483C0923309F468C088C020918F
S11303809D0030919E0080919D0090919E00232FAE
S113039033278095909599272817390709F08BC042
S11303A080919D0090919E00992790939E00809348
S11303B09D0080919B0090919C0020919D00309124
S11303C09E00982F8827822B932B90939E008093D6
S11303D09D005DC020919D0030919E0080919D0004
S11303E090919E00232F3327809590959927281765
S11303F0390751F480919D0090919E009927909324
S11304009E0080939D0043C080919F009091A00026
S11304108E3E9748B9F48BE08093A10080919D00B3
S113042090919E00892F99279093A00080939F001C
S113043080919D0090919E00992790939E008093B7
S11304409D0025C088E38093A10021C020919D00D8
S113045030919E0080919D0090919E00232F332720
S113046099272817390739F580919D0090919E00AE
S1130470992790939E0080939D0009C080919F00CE
S11304809091A0008F7D9093A00080939F00809115
S1130490A100808380919F009091A000928381832A
S11304A080919D0090919E009483838380919A0013
S11304B0858381E003C01092A10080E010929E0029
S11304C010929D001092A00010929F0010929A002A
S11304D01092A200089580E00895CF93DF9380B333
S11304E09091A2009111E8C3847090918C009111B5
S11304F05BC0811106C080918B008F5F80938B005D
S1130500DBC380918B008823E9F081E080938C0029
S113051080938A001092890010929700109296009E
S1130520109299001092980010928D0010929500EC
S1130530109294009FEF9093B400809388001092DF
S11305408700BAC380918500909186008F3F2FEF7A
S1130550920709F4B1C301969093860080938500B5
S113056080916400909165008F3F4FEF940709F4E8
S1130570A3C301969093650080936400883E9240E3
S113058008F49AC38091830090918400892B09F424
S113059093C310928400109283008FEF9FEF909387
S11305A065008093640088C390918A00992309F4BC
S11305B0B9C0882379F0809188008F5F8093880088
S11305C08A3E08F439C210928C0010928B0010926B
S11305D0880072C380918B0091EE980F9B3030F4A9
S11305E0909188009650953008F469C392EA980F68
S11305F0943558F49091880022ED290F2C3208F498
S113060061C39751973108F460C394EC980F90310B
S113061030F4909188009C53903108F459C398EDBC
S1130620980F973130F49091880093519D3008F4DD
S113063052C395EF980F963020F09AEE980F9B30A6
S113064000F59091880025EF290F263020F02AEE3E
S1130650290F2B30B0F4909382008151803118F02F
S11306609151903140F41092810080E4809387008E
S113067067EE70E038C381E08093810067EE70E03C
S113068032C38350853058F48091880099EE980FD6
S1130690983008F423C38950853008F422C310929B
S11306A08C001092B4008091B30080FF23C090911D
S11306B0A300973179F1993069F12091A500409117
S11306C08800241770F450E030E0220F331F241701
S11306D035073CF08695817091E089270E94D2000D
S11306E019C090918100911115C0869581700E9466
S11306F0D20010C08091A300883061F480918800FA
S11307008751883020F481E00E94D20003C080E049
S11307100E94D20081E080938B0010928800109296
S11307208A0085C190918900992309F472C18823B4
S113073009F4E0C29091B0002091B40092131CC05F
S11307408091B1008130C1F48091B30080FD0AC072
S113075080918B009091A800891738F09091A9009E
S1130760981718F01092B10067C110928C00109283
S11307708B0010928800A0C2809188008F5F8093C4
S113078088003091A300313031F5482F50E04C30CF
S113079051050CF12B30F8F0E3EAF0E081E0820F30
S11307A08587822F90E00B97982F88274091980097
S11307B050919900842B952B9093990080939800E5
S11307C08385280F2F5F24878AE08093880080899F
S11307D080FFE5C06CC04091B30040FF1DC0682F8E
S11307E070E04091A70050E0440F551F641775074F
S11307F09CF0622F70E0492F50E042505109641779
S1130800750754F04091B100411106C0E3EAF0E0ED
S113081081E0868780894BC08A3E08F40DC1422F4F
S113082050E0892F90E001974817590741F48091CF
S1130830B100811104C02F5F2093B400FDC0323099
S113084011F03C3169F521112BC080918500909104
S113085086008830974008F5E3EAF0E081E0868777
S113086082E080831586809162009091630090936A
S1130870990080939800809160009091610090931A
S113088097008093960080919A00816080939A00EB
S11308901092860010928500CFC01092A200CCC0A6
S11308A010928C0010928B001092880005C29091D7
S11308B08B002091A500291798F48695817091E00A
S11308C089270E94D200C3EAD0E088898695817086
S11308D00E94D2008889869581708093810022C00D
S11308E08091A4009817D0F08091A70020918200F5
S11308F0821778F430E090E0880F991F82179307ED
S113090044F081E090918100911180E08093810016
S113091002C0809181000E94D20004C010928C0019
S11309201092880080918800809382001092890040
S11309306CC08091A300833091F58091B400803124
S113094071F580918B008550883020F58091880066
S113095094EC980F903130F41092890081E18093E7
S1130960B40053C0E3EAF0E09AE0908390E1938707
S113097090E2948795878F50803130F481E00E9413
S1130980D2001092890041C080E00E94D2001092EF
S113099089003BC010928C001092880036C0809170
S11309A08B009091A4008917A0F09091A50098174E
S11309B080F0909188002091A600921750F0209129
S11309C0A700291730F081E00E94D200109289001C
S11309D01CC09091A8008917A0F09091A9009817C5
S11309E080F0809188009091AA00891750F090912E
S11309F0AB00981730F080E00E94D200109289007A
S1130A0004C010928C001092880081E080938B00C7
S1130A100EC0811106C080918B008F5F80938B0084
S1130A200BC081E0809389008093880005C0809189
S1130A308C00882309F440C18091B0009091B400E7
S1130A4089133AC19091B100911136C1409160006F
S1130A5050916100209196003091970042175307FE
S1130A6089F46091850070918600603B744050F475
S1130A70909180009F5F909380009091A3009130AB
S1130A8041F012C0109280009091A300913061F463
S1130A9036C1809180008150823008F030C11092BC
S1130AA0860010928500C8C061E06093A20098306F
S1130AB0B9F5C90180959095937040918300509148
S1130AC0840084179507C1F490939700809396004F
S1130AD0109284001092830028E02093A1002091BA
S1130AE09800309199003093A00020939F00909338
S1130AF09E0080939D00A0C020FD0BC03093840015
S1130B002093830010926500109264001092A2005A
S1130B1093C010928400109283001092A2008CC0A3
S1130B20923011F58111EFC020918500309186003B
S1130B3028303740B0F42091620030916300309344
S1130B4099002093980050939700409396008091C9
S1130B509A00816080939A0010928600109285001A
S1130B60D2C01092A200CFC09530C1F5EEE8F0E0FB
S1130B70808191814281282F2F7082958F708227E6
S1130B80292F2F70822792959F709827892F90E0A4
S1130B90242F2F7030E08217930711F01092A200D7
S1130BA0EEE8F0E08381942F98278481892795814A
S1130BB089131092A20090919A0080918D00892B44
S1130BC080939A0085E08093A10080919800909191
S1130BD099009093A00080939F001EC09093A10061
S1130BE020919800309199003093A00020939F00A9
S1130BF0923029F430936300209362000DC0973043
S1130C0059F4209187008091960090919700822B4F
S1130C10909397008093960080919600909197000E
S1130C2090939E0080939D008091940090919500F4
S1130C3090939C0080939B008091A200882391F163
S1130C40809196009091970020916000309161000E
S1130C5028173907B9F4409162005091630020913C
S1130C609800309199004217530761F42091850050
S1130C70309186002A3C384028F420919A00216063
S1130C8020939A002091980030919900309363004A
S1130C90209362009093610080936000109286001C
S1130CA01092850010928C0010929700109296007A
S1130CB010928B00109288008091A2002FC06CE3E8
S1130CC071E011C06BE271E00EC06AE171E00BC02B
S1130CD069E071E008C068EF70E005C066ED70E09F
S1130CE002C066ED70E041E150E083EA90E00E94CA
S1130CF0D40BD7CC8091B30080FF1BCED8CD81E03C
S1130D008093A2006BCF9093A10020919800309122
S1130D1099003093A00020939F006CCFDF91CF9176
S1130D2008951F920F920FB60F9211242F933F93A1
S1130D304F935F936F937F938F939F93AF93BF93DF
S1130D40EF93FF930E946D02FF91EF91BF91AF91DA
S1130D509F918F917F916F915F914F913F912F91CF
S1130D600F900FBE0F901F90189587B1806687B9BA
S1130D7086B1876886B90895CF93DF9300D000D0F9
S1130D8000D0CDB7DEB740E855E260E070E085EB17
S1130D9090E00E94FD060E94B5060E94A70189E228
S1130DA094E09BBD8ABD89E08EBD80E189BF7894C3
S1130DB0CE0101960E94AA018823D1F366E670E071
S1130DC085EB90E00E944C076A817B8185EB90E083
S1130DD00E94F50761E770E085EB90E00E944C0704
S1130DE06C817D8185EB90E00E940208E1CF85EB68
S1130DF090E00E94FC0608950895CF93DF93EC01E0
S1130E00DB01CA01880F991FAA1FBB1F880F991FF6
S1130E10AA1FBB1F9C01AD01220F331F441F551F86
S1130E20220F331F441F551F60E074E284EF90E0EB
S1130E300E94AC0BDA01C9010197A109B10989B972
S1130E40892F9A2FAB2FBB2780BD1BB888E18AB9A5
S1130E5086E880BDFE01E058FF4F11821082DE015A
S1130E60E054F10983E28D93AE17BF07E1F71FAE9B
S1130E709E0120583F4F83E28193E217F307E1F785
S1130E80C158DF4F1882DF91CF9108955D9BFECF4B
S1130E906CB95E9BFECF08950F931F93CF93DF939E
S1130EA0EB016881662341F08C012196C8010E9400
S1130EB0460769916111FACFDF91CF911F910F918C
S1130EC008954F925F926F927F928F929F92AF920A
S1130ED0BF92EF92FF920F931F93CF93DF935C0126
S1130EE0992354F48DE280933701B194A194B1080D
S1130EF0EE24E394F12C02C0E12CF12C1A141B040F
S1130F007CF4B5010B2C000C880B990B0E9426096C
S1130F100E94B2090E94EE088B0177231CF443C09F
S1130F2000E010E0E701C95CDE4FB501BB0C880BA3
S1130F30990B0E9426094B015C01B801012E000C9B
S1130F40880B990B0E9426099B01AC0160E070E0BC
S1130F5080E291E40E94770A2B013C019B01AC01E1
S1130F60C501B4010E947C080E94EE0820E3260F0C
S1130F7029939E01275331407901072E000C880BD9
S1130F80990B0E942609A30192010E940A0A9B015F
S1130F90AC01C501B4010E940F080E94EE085B0178
S1130FA00150110912F6F701E95CFE4F1082C701E6
S1130FB0019644974CF4E701C85CDE4F8BE491E062
S1130FC019928C179D07E1F787E391E0DF91CF91A8
S1130FD01F910F91FF90EF90BF90AF909F908F90D3
S1130FE07F906F905F904F900895CF93DF93EC01C3
S1130FF0CB010E946107BC01CE010E944C07DF9126
S1131000CF910895CF93DF93EC010E94F5076DE72C
S113101070E0CE010E944C07DF91CF9108955058A3
S1131020BB27AA270E9427080C9478090E946A0902
S113103038F00E94710920F039F49F3F19F426F426
S11310400C9467090EF4E095E7FB0C946109E92F11
S11310500E94890958F3BA17620773078407950732
S113106020F079F4A6F50C94AB090EF4E0950B2E60
S1131070BA2FA02D0B01B90190010C01CA01A001E6
S11310801124FF27591B99F0593F50F4503E68F141
S11310901A16F040A22F232F342F4427585FF3CF82
S11310A0469537952795A795F0405395C9F77EF453
S11310B01F16BA0B620B730B840BBAF09150A1F09C
S11310C0FF0FBB1F661F771F881FC2F70EC0BA0F22
S11310D0621F731F841F48F4879577956795B795AA
S11310E0F7959E3F08F0B0CF9395880F08F09927A5
S11310F0EE0F9795879508950E9490080C947809AF
S11311000E94710958F00E946A0940F029F45F3F77
S113111029F00C94610951110C94AC090C946709E1
S11311200E94890968F39923B1F3552391F3951B20
S1131130550BBB27AA2762177307840738F09F5FF4
S11311405F4F220F331F441FAA1FA9F335D00E2E61
S11311503AF0E0E832D091505040E695001CCAF7CE
S11311602BD0FE2F29D0660F771F881FBB1F261791
S113117037074807AB07B0E809F0BB0B802DBF0168
S1131180FF2793585F4F3AF09E3F510578F00C9437
S113119061090C94AC095F3FE4F3983ED4F386955F
S11311A077956795B795F7959F5FC9F7880F911D58
S11311B09695879597F90895E1E0660F771F881F44
S11311C0BB1F621773078407BA0720F0621B730BF7
S11311D0840BBA0BEE1F88F7E09508950E94F5087A
S11311E06894B1110C94AC0908950E94910988F097
S11311F09F5798F0B92F9927B751B0F0E1F0660FD7
S1131200771F881F991F1AF0BA95C9F714C0B13017
S113121091F00E94AB09B1E008950C94AB09672FDB
S1131220782F8827B85F39F0B93FCCF38695779546
S11312306795B395D9F73EF490958095709561952F
S11312407F4F8F4F9F4F0895E89409C097FB3EF45A
S113125090958095709561957F4F8F4F9F4F9923FF
S1131260A9F0F92F96E9BB279395F695879577957D
S11312706795B795F111F8CFFAF4BB0F11F460FF3D
S11312801BC06F5F7F4F8F4F9F4F16C0882311F095
S113129096E911C0772321F09EE8872F762F05C0A9
S11312A0662371F096E8862F70E060E02AF09A9544
S11312B0660F771F881FDAF7880F9695879597F939
S11312C0089597F99F6780E870E060E008959FEFC4
S11312D080EC089500240A941616170618060906C9
S11312E0089500240A941216130614060506089598
S11312F0092E0394000C11F4882352F0BB0F40F420
S1131300BF2B11F460FF04C06F5F7F4F8F4F9F4F5F
S1131310089557FD9058440F551F59F05F3F71F0E1
S11313204795880F97FB991F61F09F3F79F0879548
S11313300895121613061406551FF2CF4695F1DFD1
S113134008C0161617061806991FF1CF8695710561
S1131350610508940895E894BB2766277727CB0195
S113136097F908950E94C20929ED3BE54EED5EE32D
S11313700C940A0A16F00C94010B0C9467096894F7
S11313800C9461090E949109A8F39923C1F3AEF367
S1131390DF93CF931F930F93FF92C92FDD278823E9
S11313A02AF02197660F771F881FDAF720E030E0D4
S11313B040E85FEB9FE3883920F0803E38F02196C7
S11313C08F770E941008E4E5F0E004C00E94100842
S11313D0E1E8F0E00E940F0B8B01BE01EC01FB2E53
S11313E06F5771097595771F880B990B0E94260911
S11313F028E132E741E35FE30E941D0AAF2D980123
S1131400AE01FF900F911F91CF91DF910E942708A9
S11314100C9478090E941D0A0C9478090E946A09A8
S113142038F00E94710920F0952311F00C946109A1
S11314300C94670911240C94AC090E94890970F377
S1131440959FC1F3950F50E0551F629FF001729F65
S1131450BB27F00DB11D639FAA27F00DB11DAA1F74
S1131460649F6627B00DA11D661F829F2227B00DC1
S1131470A11D621F739FB00DA11D621F839FA00D4C
S1131480611D221F749F3327A00D611D231F849F9C
S1131490600D211D822F762F6A2F11249F575040F3
S11314A09AF0F1F088234AF0EE0FFF1FBB1F661F6E
S11314B0771F881F91505040A9F79E3F510580F037
S11314C00C9461090C94AC095F3FE4F3983ED4F3A7
S11314D0869577956795B795F795E7959F5FC1F7DB
S11314E0FE2B880F911D9695879597F90895FA011B
S11314F0EE0FFF1F309621053105A1F1611571052D
S113150061F48038BFE39B0749F168949038810502
S113151061F08038BFEF9B0741F099234AF5FF3F04
S1131520E1053105210519F1E8940894E795D901FD
S1131530AA2329F4AB2FBE2FF85FD0F310C0FF5FAE
S113154070F4A695E0F7F73950F019F0FF3A38F443
S11315509F779F930DD00F9007FC9058089546F005
S11315600C94670960E070E080E89FE308954FE71A
S11315709F775F934F933F932F930E94C2092F91BC
S11315803F914F915F910E940A0A0C94CF0A29F46B
S113159016F00C9461090C94AB090C9467090E9431
S11315A09109A8F39638A0F707F80F92E8942BE373
S11315B03AEA48EB5FE70E94200A0F920F920F92DB
S11315C04DB75EB70F920E94780BEEEAF0E00E94EE
S11315D00F0B4F915F91EF91FF91E595EE1FFF1F68
S11315E049F0FE57E0684427EE0F441FFA95E1F7EF
S11315F04195550B0E94420B0F9007FE0C94360B3D
S113160008959F3F31F0915020F487957795679521
S1131610B795880F911D9695879597F90895DF934F
S1131620CF931F930F93FF92EF92DF927B018C0174
S1131630689406C0DA2EEF010E941D0AFE01E894A8
S1131640A5912591359145915591A6F3EF010E94FD
S11316502708FE019701A801DA9469F7DF90EF905B
S1131660FF900F911F91CF91DF9108959B01AC01E1
S113167060E070E080E89FE30C947C080C946109BE
S11316800C94010B0E949109D8F39923C9F3940F88
S1131690511DA3F39150504094F059F0882332F037
S11316A0660F771F881F91505040C1F79E3F510528
S11316B02CF7880F911D9695879597F908955F3FAC
S11316C0ACF0983E9CF0BB27869577956795B795C7
S11316D008F4B1609395C1F7BB0F58F711F460FF9C
S11316E0E8CF6F5F7F4F8F4F9F4FE3CF0C94AC09D0
S11316F0FA01DC01AA0FBB1F9B01AC01BF5728F400
S1131700222733274427507820C0B75190F4AB2FB9
S11317100024469537952795011CA395D2F3002004
S113172071F0220F331F441FB395DAF30ED00C94DB
S11317300F0861307105A0E88A07B94630F49B01AF
S1131740AC016627772788279078309621F020838C
S11317503183428353830895A1E21A2EAA1BBB1B33
S1131760FD010DC0AA1FBB1FEE1FFF1FA217B30769
S1131770E407F50720F0A21BB30BE40BF50B661F7F
S1131780771F881F991F1A9469F760957095809543
S113179090959B01AC01BD01CF010895EE0FFF1F91
S11317A00590F491E02D0994FB01DC0102C0059041
S11117B00D9241505040D8F70895F894FFCFA1
S11317BEFFFFFFFFFFFF416464726573733A2000FD
S11317CE0009436F6D6D616E643A2000000A0000DB
S9030000FC
