:100000000C942B000C9453000C9453000C9453004C
:100010000C9453000C9453000C9453000C94530014
:100020000C9453000C9453000C9453000C94530004
:100030000C9453000C9453000C9453000C945300F4
:100040000C9453000C9453000C9453000C945300E4
:100050000C945300E70011241FBECFE5D8E0DEBFAB
:10006000CDBF10E0A0E6B0E0EAECF3E002C00590FE
:100070000D92A036B107D9F721E0A0E6B0E001C0AB
:100080001D92AB30B207E1F710E0CBE2D0E004C044
:100090002197FE010E94DD01CA32D107C9F70E94F3
:1000A00055000C94E3010C94000040E855E260E038
:1000B00070E089E890E00E94720188E890E00E9478
:1000C0002D01E3E8F0E0A081B1812C9181E090E086
:1000D000AC01048002C0440F551F0A94E2F740951A
:1000E00024232C93A281B3814C919C01048002C0F3
:1000F000220F331F0A94E2F7242B2C93EEE7F0E053
:10010000A081B1812C91AC01048002C0440F551F25
:100110000A94E2F7409524232C93A281B3814C9159
:100120009C01048002C0220F331F0A94E2F7242BA3
:100130002C93E9E7F0E0A081B1812C91AC0104801F
:1001400002C0440F551F0A94E2F7409524232C93D4
:10015000A281B3812C91048002C0880F991F0A9458
:10016000E2F7822B8C93E0E6F0E069E770E041E093
:1001700050E0A081B1818C919A01048002C0220FCD
:10018000331F0A94E2F7209582238C93A281B381D6
:100190002C91CA01048002C0880F991F0A94E2F7CB
:1001A000822B8C933596E617F70719F720E04BE082
:1001B00060E088E890E00E9431012FEF83ED90E34A
:1001C000215080409040E1F700C00000EFCF89E867
:1001D00090E00E94710188E890E00E942C01E3E821
:1001E000F0E02AE330E0318320838BE390E09383D7
:1001F00082831482EEE7F0E031832083938382834D
:1002000051E05483E9E7F0E03183208393838283D4
:1002100042E04483E0E6F0E024E330E031832083F1
:1002200085E390E0938382831482368325839087CD
:100230008783518733872287958784874687308BCA
:100240002787928B818B43E0438B358B248B978B55
:10025000868B84E0808F089508958F9A82ED83BD08
:10026000089580E4489FA001112430E03063422BC0
:10027000532B70E0762F6627770F770F770F462B7B
:10028000572B8DE090E061E070E0F9E9E1EA9B0135
:10029000082E02C0220F331F0A94E2F724233523CD
:1002A000232B69F0E5BDAEEDB0E01197F1F700004A
:1002B000F5BDAEEDB0E01197F1F700000CC0F5BD53
:1002C000AEEDB0E01197F1F70000E5BDAEEDB0E0A6
:1002D0001197F1F700000197D0F681EA85BD15BCB2
:1002E00008950895CF93DF93EC01DB01CA01880FD5
:1002F000991FAA1FBB1F880F991FAA1FBB1F9C0114
:10030000AD01220F331F441F551F220F331F441FFF
:10031000551F60E074E284EF90E00E94BB01DA01B7
:10032000C9010197A109B10989B9892F9A2FAB2F6A
:10033000BB2780BD1BB888E18AB986E880BDFE0175
:10034000E058FF4F11821082DE01E054F10983E290
:100350008D93AE17BF07E1F71FAE9E0120583F4FA8
:1003600083E28193E217F307E1F7C158DF4F188268
:10037000DF91CF910895A1E21A2EAA1BBB1BFD01AC
:100380000DC0AA1FBB1FEE1FFF1FA217B307E40774
:10039000F50720F0A21BB30BE40BF50B661F771FCC
:1003A000881F991F1A9469F76095709580959095AC
:1003B0009B01AC01BD01CF010895EE0FFF1F059019
:0A03C000F491E02D0994F894FFCFAA
:00000001FF
