S01C00005363616C616B5F53746174655F4D616368696E652E7372656345
S11300000C94CC000C94520A0C94E9000C94E90072
S11300100C94E9000C94E9000C94E9000C94E900B8
S11300200C94E9000C94760A0C94E9000C94E90011
S11300300C94E9000C94E9000C94E9000C94E90098
S11300400C94E9000C94E9000C94E9000C94E90088
S11300500C94E9000C94E9000C94E9000C94E90078
S11300600C94E9000C94E900084AD73B3BCE016E9E
S113007084BCBFFDC12F3D6C74319ABD56833DDAFB
S11300803D00C77F11BED9E4BB4C3E916BAAAABE0A
S1130090000000803F006E616E00696E66000040E3
S11300A07A10F35A00A0724E18090010A5D4E80083
S11300B000E87648170000E40B54020000CA9A3B9B
S11300C0000000E1F5050000809698000000404221
S11300D00F000000A08601000000102700000000AF
S11300E0E803000000006400000000000A000000B3
S11300F000000100000000002C76D888DC674F085F
S113010023DFC1DFAE59E1B1B796E5E3E453C63A64
S1130110E651997696E8E6C28426EB898C9B62EDDB
S1130120407C6FFCEFBC9C9F40F2BAA56FA5F49095
S1130130055A2AF75C936B6CF9676DC11BFCE0E40C
S11301400D47FEF520E6B500D0ED902E0300943562
S113015077050080841E080000204E0A000000C8B5
S11301600C333333330F986E12831141EF8D211406
S1130170893BE65516CFFEE6DB18D1844B381BF7D6
S11301807C1D901DA4BBE424203284725E22810075
S1130190C9F124ECA1E53D2711241FBECFEFD8E01F
S11301A0DEBFCDBF11E0A0E0B1E0E8EEFBE202C0AB
S11301B005900D92A83FB107D9F722E0A8EFB1E06E
S11301C001C01D92AB33B207E1F70E9430040C94D6
S11301D0F2150C9400001092FD011092FC01809322
S11301E0FE01682F8CE00E949C0708952091FE0177
S11301F0223069F018F4213031F038C0233089F00E
S1130200243051F133C083E00E94EB0008959B0138
S1130210AC010E94B30E882361F183E00E94EB00DD
S113022008959B01AC010E94B30E811104C082E0C9
S11302300E94EB0008958091FC019091FD018431AE
S1130240910530F401969093FD018093FC0108958B
S113025084E00E94EB0008959B01AC010E94B30E60
S1130260811107C082E00E94EB00089581E00E94A2
S1130270EB0008958F929F92AF92BF92CF92DF923C
S1130280EF92FF920F931F93CF93DF9300D0CDB7DC
S1130290DEB70E94AF066B017C0180E00E9412076A
S11302A0898381E00E9412078A83AE014F5F5F4F0A
S11302B0C701B6010E94F6008091FE018230A1F0D0
S11302C018F4813041F029C1833009F442C08430EC
S11302D009F474C022C10E94930791E0811101C006
S11302E090E090930E0219C111E020E030E0A901E2
S11302F0C701B6010E94350E18160CF010E01093D9
S11303000E0200E010E09801B701A60180E00E940F
S11303106F086B017C0120E030E04FE753E40E945A
S1130320620B0E94CE0CCB010E94A3058C01A70195
S1130330960160E070E08FE793E40E94610B0E94F5
S1130340CE0CCB010E94A305BC01C8010E9421066A
S1130350E4C0898181110BC08A818130C9F4109273
S11303600E02EE24EA94F12C0AE61FEF1FC081303E
S113037079F48A8181110CC081E080930E020F2EE2
S1130380FAE6EF2EFF24FA94F02D0FEF10E00EC0E2
S113039080910E02811106C0EE24EA94F12C00E053
S11303A010E004C0E12CF12C0FEF10E080E00E947B
S11303B02209B701C8010E942106AFC062E370E0C0
S11303C082E390E00E94210680E00E9412078111DE
S11303D006C081E00E941207882309F49EC08AE2C5
S11303E091E00E94201480E00E941207082F10E080
S11303F0F12CE12CD12C18C08FEC97E00197F1F788
S113040000C0000026E83DE34CE45AE3612F7F2D51
S11304108E2D9D2D0E94620B162FF72EE82ED92EBD
S113042084E591E00E94201480E00E941207882352
S113043019F381E00E9412078823F1F260E070E072
S113044080E090E00E9421069FEF20E782E0915037
S113045020408040E1F700C0000026E031E845E993
S11304605DE3612F7F2D8E2D9D2D0E94E10B9B015D
S1130470AC016BED7FE089E490E40E94610B4B01D9
S11304805C01DF92EF92FF921F9388E791E09F93C4
S11304908F930E94031420E030E044E353E4C50149
S11304A0B4010E94420E2BED3FE049E450E40E9467
S11304B05C0C9F938F937F936F938FE891E09F934E
S11304C08F930E9403146EEC7FEF8EEC9FEF0E94DB
S11304D021069FEF22E587E0915020408040E1F71C
S11304E000C0000060E070E080E090E00E9421061F
S11304F09FEF20E782E0915020408040E1F700C068
S1130500000022E330E0402FC501B4010E94AE0791
S11305100FB6F894DEBF0FBECDBF0F900F90DF91E2
S1130520CF911F910F91FF90EF90DF90CF90BF90EC
S1130530AF909F908F900895809329028230A9F004
S113054028F4882341F0813059F01EC0833091F0A3
S11305508430A9F019C061E08AE00E949C0717C0AA
S113056061E08AE00E949C0712C062E08AE00E9477
S11305709C070DC063E08AE00E949C0708C061E00C
S11305808AE00E949C0703C080E00E949C0280E0F5
S11305900E94EB000895682F6E7F60932E0281E025
S11305A0860F809302028BE00E949C070895CF93EC
S11305B0DF9380912902882319F0833029F007C042
S11305C081E00E949C0203C084E00E949C020E947D
S11305D0380A8823D9F10E943D0AC82F0E944C0A88
S11305E0D82F80912902813019F08230C1F02EC0B9
S11305F0C73061F480910202D81324C082E00E94C3
S11306009C0220C083E00E949C0220C0CB30F1F405
S113061080E00E949C028D2F0E94CB0217C0C7303D
S113062041F480912E02D81311C083E00E949C02F1
S11306300DC0CB3059F480E00E949C028D2F0E94A3
S1130640CB0204C080912E02D817E1F2DF91CF9142
S113065008952F923F924F925F926F927F928F9262
S11306609F92AF92BF92CF92DF92EF92FF920F933D
S11306701F93CF93DF93CDB7DEB7A5970FB6F8944A
S1130680DEBF0FBECDBF49015A012701380124E264
S1130690E6E0F1E0DE01119601900D922A95E1F772
S11306A0A50194010E94610B6B017C0120E030E004
S11306B040E85FE3C301B2010E94620BA50194010B
S11306C00E94610B9B01AC01C701B6010E945C0C46
S11306D020E030E040E451E40E94420E4B015C0112
S11306E00E94410D6B017C010E94D50C70E08B01CE
S11306F0000F111F600F711F01E010E00C0F1D1F90
S1130700060F171FC501B4010E94400C0E94D50CAE
S11307108BEA689F812D1124869586958695982F5E
S1130720990F890F880F880F681B70E01B01220C3A
S1130730331C260E371E81E090E08C0F9D1F280E7F
S1130740391EA7019601C501B4010E94610B6B011A
S11307507C019B01AC0160E070E080E89FE30E94B3
S1130760610B4B015C01F801618170E080E090E075
S11307700E94060DA50194010E94420E2B013C012A
S1130780F101618170E080E090E00E94060DA70114
S113079096010E94420E9B01AC01C301B2010E946A
S11307A0620B0E94D50C6DA3F801628170E080E0B9
S11307B090E00E94060DA50194010E94420E2B01B7
S11307C03C01F101628170E080E090E00E94060D3E
S11307D0A70196010E94420E9B01AC01C301B20124
S11307E00E94620B0E94D50C762EF801608170E0A5
S11307F080E090E00E94060DA50194010E94420E43
S11308004B015C01F101608170E080E090E00E94A6
S1130810060DA70196010E94420E9B01AC01C50181
S1130820B4010E94620B0E94D50C7DA1872DA59670
S11308300FB6F894DEBF0FBECDBFDF91CF911F91ED
S11308400F91FF90EF90DF90CF90BF90AF909F906B
S11308508F907F906F905F904F903F902F9008956E
S113086060E076E980E090E00E94AC0A0E945409BE
S1130870C12CD12C76019701860140E050E861E358
S113088073E480E00E942D0863E082E00E942F065A
S113089064EF71E086E00E947C070E9456060E9485
S11308A090070E9499078BE00E94A6070E94CB0242
S11308B08AE00E94A6070E949C028CE00E94A60780
S11308C00E94EB0067E087E00E942F060F2EF4EAF7
S11308D08F2EF1E09F2EF02D0F2EFDEBAF2EF1E0C9
S11308E0BF2EF02D0F2EFDECCF2EF1E0DF2EF02DDC
S11308F0C4EED1E00E94D70280912902813009F42C
S113090047C038F0823009F48AC0833009F48FC0BC
S113091099C060E070E080E090E00E94210640E031
S113092065EA8FEF0E94500B2FE788E391E0215096
S113093080409040E1F700C0000040E060E080E0CB
S11309400E94500B2FE788E391E0215080409040B3
S1130950E1F700C0000040E065EA8FEF0E94500B11
S11309602FE788E391E0215080409040E1F700C0F8
S1130970000040E060E080E00E94500B2FE788E335
S113098091E0215080409040E1F700C000005AC03F
S113099060E070E080E090E00E9421066091F80140
S11309A07091F9018091FA019091FB01E12CF12CF5
S11309B00AE714E420E030E0A9010E9429032AE9AF
S11309C039E949E95EE30E94E50A0E94580B20E0F8
S11309D030E040EA50E46091F8017091F9018091AF
S11309E0FA019091FB010E94620B2B013C01A801CA
S11309F097010E94350E18164CF04092F80150925F
S1130A00F9016092FA017092FB011CC01092F80186
S1130A101092F9011092FA011092FB0113C040E008
S1130A2064E680E00E94500B0E943A010BC060E033
S1130A3070E080E090E00E94210640E060E084E6FF
S1130A400E94500B8AE090E00E9419148091FE01EC
S1130A501F928F93809129021F928F939F928F925E
S1130A600E94031481E00E949205182F092F80E050
S1130A700E9492050F931F939F938F93BF92AF92FF
S1130A800E94031484E00E949306E82E83E00E94EF
S1130A909306F82E82E00E949306082F81E00E94BC
S1130AA09306182F80E00E9493061F92EF921F92E4
S1130AB0FF921F920F931F921F931F928F93DF92A7
S1130AC0CF920E94031481E00E94F006E82E792E52
S1130AD080E00E94F006082FF92E81E00E941207A0
S1130AE0182F80E00E9412077F92EF92FF920F93DB
S1130AF01F921F931F928F93DF93CF930E9403142F
S1130B009FE728E381E0915020408040E1F700C056
S1130B1000008DB79EB782960FB6F8949EBF0FBEA5
S1130B208DBFE8CE811105C080912A0290912B02DD
S1130B300895813029F480912C0290912D0208951A
S1130B408FEF9FEF08958F3F910519F014F08FEF09
S1130B5090E081302FEF920714F481E09FEF089525
S1130B60811108C0CB010E94A30590932B028093AE
S1130B702A0238C0813041F4CB010E94A30590932E
S1130B802D0280932C0205C0882361F1813009F085
S1130B9057C080913002873011F417BC08956091DA
S1130BA02C0270912D02072E000C880B990B0E94C9
S1130BB0060D9F770E94D50C67BD81E090913002AD
S1130BC0923009F480E091E020912C0230912D02C2
S1130BD0121613060CF090E0891711F05F9A08952D
S1130BE05F98089580912F02873029F4109289002C
S1130BF010928800089560912A0270912B02072EAA
S1130C00000C880B990B0E94060D9F770E94D50C4F
S1130C10709389006093880081E090912F02923054
S1130C2009F480E091E020912A0230912B021216FF
S1130C3013060CF090E0891711F02A9A08952A9867
S1130C400895CF93DF93EB01BC0180E00E94B005CF
S1130C50BE0181E00E94B005DF91CF910895EFE2DB
S1130C60F2E080836183EAE2F2E01182108213826F
S1130C7012828AB1806C8AB984B1866084B984B5E1
S1130C80836884BD85B5816085BDE0E8F0E080813E
S1130C9081688083E1E8F0E080818960808360E09E
S1130CA070E080E090E00E942106089587B1877C7F
S1130CB087B984B18F7384B988B1886388B985B1E1
S1130CC0806C85B908958230C1F028F4882341F0FE
S1130CD0813069F026C08330B9F08430D9F021C066
S1130CE086B183FB992790F981E08927089586B11D
S1130CF08295817091E08927089586B185FB9927B3
S1130D0090F981E08927089583B18095881F882709
S1130D10881F089583B186FB992790F981E089277C
S1130D20089580E00895FF920F931F93CF93DF936C
S1130D30F82ECAE0D0E000E010E08F2D0E94630698
S1130D40080F111D2197C9F781E0073011050CF434
S1130D5080E0DF91CF911F910F91FF9008958F92C2
S1130D609F92AF92BF92CF92DF92EF92FF920F9336
S1130D701F93CF930EEF1FEFC0E0C12CD12CE12CB9
S1130D80F12C8C2F0E949306882329F08FEFE81A08
S1130D90F80AC00ED11ECF5F0F5F1F4FC53089F711
S1130DA0B601DD0C880B990B0E94060D4B015C010A
S1130DB0B701FF0C880B990B0E94060D9B01AC0137
S1130DC0C501B4010E945C0CCF911F910F91FF905B
S1130DD0EF90DF90CF90BF90AF909F908F90089549
S1130DE0ECE7F0E09081907F9083882319F08130C4
S1130DF039F00BC0ECE7F0E080818260808305C0AD
S1130E00ECE7F0E0808181608083EAE7F0E08081B4
S1130E1080648083808186FDFDCF809178009091ED
S1130E20790008959F92AF92BF92CF92DF92EF9292
S1130E30FF920F931F93CF93DF93982E05E010E05A
S1130E40E12CF12CCC24C394D12CA12CB12CC09135
S1130E50FF01D0E0892D0E94F0062C2D3D2D4091FC
S1130E600C0250910D028417950710F02A2D3B2D8A
S1130E708C2D9D2D2C173D0711F08A2D9B2DE80EEE
S1130E80F91E0150110919F781E093E0E916F10404
S1130E900CF480E0DF91CF911F910F91FF90EF90C0
S1130EA0DF90CF90BF90AF909F900895CF938530FF
S1130EB041F0863049F08430D1F481E08093FF0121
S1130EC019C01092FF0116C080E00E941207C82FBB
S1130ED081E00E941207C81306C081E0C11180E0BE
S1130EE08093FF0107C084E00E94560703C084E09A
S1130EF00E945607CF910895ECE7F0E0908190644A
S1130F009083EAE7F0E090819068908391E0909379
S1130F10FF0170930D0260930C020E94560708951E
S1130F2024982C9A089583B18295817091E0892741
S1130F3008953898409A0895F999FECF1FBA90E021
S1130F4092BD81BD60BDFA9AF99A0895F999FECFD0
S1130F5090E092BD81BDF89A80B50895CF92DF925A
S1130F60EF92FF921F93CF93DF93142FE9012AE9A5
S1130F7039E949E15DE30E94420E9B01AC010E9404
S1130F80620B24E134E747EC5DE30E945C0C6B01E7
S1130F907C01BE010D2E000C880B990B0E94060DDE
S1130FA02AE037ED43E25EE30E94420E9B01AC016E
S1130FB0C701B6010E945C0C6B017C01112341F056
S1130FC0662777276C1B7D0BCE010E94210607C084
S1130FD0BE01882799278C1B9D0B0E94210620E0C7
S1130FE030E048EC52E4C701B6010E94420E6B01A6
S1130FF07C0120E030E0A9010E94350E1816B4F4FB
S1131000C0E0D0E08FE19EE40197F1F700C000005A
S11310102196BE010D2E000C880B990B0E94060D23
S1131020A70196010E94570C882364F360E070E0E6
S113103080E090E00E9421069FEF20E782E091503B
S113104020408040E1F700C00000DF91CF911F9164
S1131050FF90EF90DF90CF900895CF92DF92EF92C0
S1131060FF920F931F9390E0FC01EE0FFF1FDF012F
S1131070A80FB91FAA0FBB1FAA0FBB1FAA0FBB1F24
S1131080AF5EBD4F4D935D936D937C931397149610
S11310900D931D932D933C9317971896CD92DD9243
S11310A0ED92FC921B9740E050E060E87FE3549699
S11310B04D935D936D937C93579750961D921D921B
S11310C01D921C925397FD01148615861686178669
S11310D01F910F91FF90EF90DF90CF9008952F9282
S11310E03F924F925F926F927F928F929F92AF92B4
S11310F0BF92CF92DF92EF92FF920F931F93CF9301
S1131100DF9300D000D000D0CDB7DEB78983CB0108
S1131110BA01A90198010E94610B6B017C018981CC
S1131120082F10E01801220C331CF101E00FF11F0D
S1131130EE0FFF1FEE0FFF1FEE0FFF1FEF5EFD4FC1
S1131140FE83ED8384889588A688B78824853585B1
S113115046855785C701B6010E94610BA50194011C
S11311600E945C0C69837A838B839C83A501940120
S1131170C701B6010E94420EED81FE8120893189AA
S1131180428953890E94620B4B015C01ED81FE810F
S1131190608B718B828B938B20813181428153814F
S11311A0C701B6010E94420E2B013C01ED81FE8174
S11311B02481358146815781C501B4010E94420EC4
S11311C09B01AC01C301B2010E94620B4B015C01A3
S11311D0ED81FE81208531854285538569817A813F
S11311E08B819C810E94420E9B01AC01C501B4011C
S11311F00E94620BF101E00FF11FEE0FFF1FEE0FD3
S1131200FF1FEE0FFF1FEF5EFD4FC486D586E686F7
S1131210F78626960FB6F894DEBF0FBECDBFDF91DA
S1131220CF911F910F91FF90EF90DF90CF90BF90DF
S1131230AF909F908F907F906F905F904F903F9072
S11312402F90089590E0FC01EE0FFF1FDF01A80F1F
S1131250B91FAA0FBB1FAA0FBB1FAA0FBB1FAF5EEC
S1131260BD4F50961D921D921D921C925397FD01E5
S113127014861586168617860895109203028EE04A
S113128090E09093100280930F021092010210924A
S11312900002109209021092080285E090E09093F7
S11312A00B0280930A02089552985A9AE89AE9E642
S11312B0F0E080818160808380818D7F8083E1EB99
S11312C0F0E0808181608083E0E7F0E080818160EC
S11312D0808378940E943D0908958091080290913A
S11312E009020196909309028093080208951F93BE
S11312F0CF93DF9300D000D0CDB7DEB72091B200FA
S113130080E090E090910802820F911D9695879558
S1131310969587954A9902C010E001C012E09C019D
S11313202D563A402F3E364010F41C5F07C08857B4
S11313309340833F964010F00E943D0920910A0299
S113134030910B022530310519F580910F029091EF
S1131350100201979093100280930F0220910002D3
S11313603091010241E050E0BA0102C0660F771FDC
S11313708A95E2F7CB01822B932B90930102809301
S1131380000250930B0240930A021092B20068C00C
S113139081E0898381E98A838BE98B838BEF8C835A
S11313A0FE01E20FF31F818190E002C095958795BD
S11313B01A95E2F7AC01437055272417350719F045
S11313C0243031051CF00E943D094AC050930B02A1
S11313D040930A024230510561F480910F029091CA
S11313E0100201979093100280930F02892B91F5BC
S11313F028C041305105E9F480910F029091100208
S113140001979093100280930F0220910002309173
S1131410010241E050E0BA0102C0660F771F8A95CD
S1131420E2F7CB01822B932B90930102809300026D
S113143011C020910F0230911002232B59F480FD2A
S113144009C086E090E090930B0280930A0281E049
S1131450809303021092B2001092090210920802C3
S11314600F900F900F900F90DF91CF911F910895DF
S113147080910302109203020895809100029091DA
S113148001020024880F991F001C880F991F001C5B
S1131490892F902D8F7108958091000290910102FF
S11314A08F7308951F920F920FB60F9211242F93EA
S11314B03F934F935F936F937F938F939F93AF93D8
S11314C0BF93EF93FF930E947709FF91EF91BF9130
S11314D0AF919F918F917F916F915F914F913F91C8
S11314E02F910F900FBE0F901F9018951F920F927F
S11314F00FB60F9211242F933F934F935F936F93E3
S11315007F938F939F93AF93BF93EF93FF930E9427
S11315106D09FF91EF91BF91AF919F918F917F9151
S11315206F915F914F913F912F910F900FBE0F904C
S11315301F901895E0ECF0E0908195FFFDCF80932B
S1131540C60090E00895E0ECF0E080818823ECF799
S11315508091C60090E00895DC01CB01880F991FAB
S1131560AA1FBB1F880F991FAA1FBB1F9C01AD0197
S1131570220F331F441F551F220F331F441F551FB3
S113158060E072E18AE790E00E943512DA01C90155
S11315900197A109B1098093C400892F9A2FAB2F19
S11315A0BB278093C50088E18093C100E2ECF0E0A2
S11315B080818061808380818660808363EA7AE0B1
S11315C08AE99AE00E947C130895CF92DF92EF9209
S11315D0FF921F93CF93DF93C62FD82F69017A010F
S11315E0672F70E080E090E00E94060DA70196014D
S11315F00E94420E0E94D50C162F6D2F70E080E0E1
S113160090E00E94060DA70196010E94420E0E94DE
S1131610D50CD62F6C2F70E080E090E00E94060D70
S1131620A70196010E94420E0E94D50C712F8D2FA6
S1131630DF91CF911F91FF90EF90DF90CF900895AD
S1131640CF93DF932898209AF89484E092E0EC01F9
S1131650099006D0099004D009900E94300B12C062
S113166008D007D006D005D004D003D002D001D0D2
S11316700895001C289A08F028980000000008F437
S113168028980895C0930402D0930502E0930602BB
S11316907894D5EDDA95F1F70000DF91CF910895B4
S11316A0E4E0F2E06083818342830E94200B08958A
S11316B06093040270930502809306020E94200B3B
S11316C008955058BB27AA270E94790B0C94E30D68
S11316D00E94D50D38F00E94DC0D20F039F49F3FB4
S11316E019F426F40C94AB0D0EF4E095E7FB0C947E
S11316F07C0DE92F0E94F40D58F3BA1762077307A3
S11317008407950720F079F4A6F50C942E0E0EF4B8
S1131710E0950B2EBA2FA02D0B01B90190010C01FD
S1131720CA01A0011124FF27591B99F0593F50F415
S1131730503E68F11A16F040A22F232F342F44276D
S1131740585FF3CF469537952795A795F040539565
S1131750C9F77EF41F16BA0B620B730B840BBAF035
S11317609150A1F0FF0FBB1F661F771F881FC2F7A0
S11317700EC0BA0F621F731F841F48F487957795B4
S11317806795B795F7959E3F08F0B0CF9395880F6E
S113179008F09927EE0F9795879508950E94D50D27
S11317A060F080E891E009F49EEF0E94DC0D28F0DF
S11317B040E851E071F45EEF0CC00C94AB0D0C9456
S11317C02E0EE92FE0780E94F40D40F3092E052A2D
S11317D0B1F3261737074807590738F00E2E07F8D4
S11317E0E02569F0E025E0640AC0EF6307F800949F
S11317F007FADB01B9019D01DC01CA01AD01EF93D8
S11318000E94730C0E94E30D0E94110C5F915523FA
S113181039F02BED3FE049E450FD49EC0C94620BA8
S11318200895DF93DD27B92FBF7740E85FE31616ED
S1131830170648075B0718F4D92F0E943A0E9F93A6
S11318408F937F936F930E94AF0EE8E6F0E00E94BF
S1131850AE0D0E94E30D2F913F914F915F910E9435
S1131860550EDD2351F09058A2EA2AED3FE049ECF1
S11318705FE3D0785D270E94790BDF910C94E30D30
S11318800E94160E90F09F3748F4911116F40C94B0
S11318902F0E60E070E080E89FE3089526F01B16A9
S11318A0611D711D811D0C94820D0C949D0D0E946F
S11318B0580D08F481E008950E94700C0C94E30D17
S11318C00E94DC0D58F00E94D50D40F029F45F3FD2
S11318D029F00C947C0D51110C942F0E0C94AB0D2B
S11318E00E94F40D68F39923B1F3552391F3951BEA
S11318F0550BBB27AA2762177307840738F09F5F2D
S11319005F4F220F331F441FAA1FA9F335D00E2E99
S11319103AF0E0E832D091505040E695001CCAF706
S11319202BD0FE2F29D0660F771F881FBB1F2617C9
S113193037074807AB07B0E809F0BB0B802DBF01A0
S1131940FF2793585F4F3AF09E3F510578F00C946F
S11319507C0D0C942F0E5F3FE4F3983ED4F38695F0
S113196077956795B795F7959F5FC9F7880F911D90
S11319709695879597F90895E1E0660F771F881F7C
S1131980BB1F621773078407BA0720F0621B730B2F
S1131990840BBA0BEE1F88F7E09508950E94D50CCE
S11319A06894B1110C942F0E08950E94FC0D88F0D8
S11319B09F5798F0B92F9927B751B0F0E1F0660F0F
S11319C0771F881F991F1AF0BA95C9F714C0B13050
S11319D091F00E942E0EB1E008950C942E0E672F04
S11319E0782F8827B85F39F0B93FCCF3869577957F
S11319F06795B395D9F73EF4909580957095619568
S1131A007F4F8F4F9F4F0895E89409C097FB3EF492
S1131A1090958095709561957F4F8F4F9F4F992337
S1131A20A9F0F92F96E9BB279395F69587957795B5
S1131A306795B795F111F8CFFAF4BB0F11F460FF75
S1131A401BC06F5F7F4F8F4F9F4F16C0882311F0CD
S1131A5096E911C0772321F09EE8872F762F05C0E1
S1131A60662371F096E8862F70E060E02AF09A957C
S1131A70660F771F881FDAF7880F9695879597F971
S1131A8008950E94160E90F09F3748F4911116F0B5
S1131A900C942F0E60E070E080E89FEB089526F42C
S1131AA01B16611D711D811D0C94820D0C949D0DDE
S1131AB0990F0008550FAA0BE0E8FEEF161617065B
S1131AC0E807F907C0F012161306E407F50798F0C3
S1131AD0621B730B840B950B39F40A2661F0232BDC
S1131AE0242B252B21F408950A2609F4A140A69558
S1131AF08FEF811D811D089597F99F6780E870E03D
S1131B0060E00895882371F4772321F09850872B9F
S1131B10762F07C0662311F499270DC09051862BA8
S1131B2070E060E02AF09A95660F771F881FDAF755
S1131B30880F9695879597F908959F3F31F09150B6
S1131B4020F4879577956795B795880F911D96959D
S1131B50879597F908959FEF80EC0895DF93CF93CD
S1131B601F930F93FF92EF92DF927B018C01689495
S1131B7006C0DA2EEF010E94550EFE01E894A591ED
S1131B802591359145915591A6F3EF010E94790B6A
S1131B90FE019701A801DA9469F7DF90EF90FF90B6
S1131BA00F911F91CF91DF91089500240A94161686
S1131BB0170618060906089500240A941216130637
S1131BC0140605060895092E0394000C11F48823C5
S1131BD052F0BB0F40F4BF2B11F460FF04C06F5FE1
S1131BE07F4F8F4F9F4F089557FD9058440F551FB7
S1131BF059F05F3F71F04795880F97FB991F61F08B
S1131C009F3F79F087950895121613061406551F01
S1131C10F2CF4695F1DF08C0161617061806991F6D
S1131C20F1CF869571056105089408950E94FC0D15
S1131C30A0F0BEE7B91788F4BB279F3860F41616E6
S1131C40B11D672F782F8827985FF7CF86957795F2
S1131C506795B11D93959639C8F30895E894BB2709
S1131C6066277727CB0197F908950E94580D08F449
S1131C708FEF08959B01AC0160E070E080E89FE382
S1131C800C945C0C0E94550E0C94E30D0E94D50D2F
S1131C9038F00E94DC0D20F0952311F00C947C0D9B
S1131CA00C94AB0D11240C942F0E0E94F40D70F3C0
S1131CB0959FC1F3950F50E0551F629FF001729FED
S1131CC0BB27F00DB11D639FAA27F00DB11DAA1FFC
S1131CD0649F6627B00DA11D661F829F2227B00D49
S1131CE0A11D621F739FB00DA11D621F839FA00DD4
S1131CF0611D221F749F3327A00D611D231F849F24
S1131D00600D211D822F762F6A2F11249F5750407A
S1131D109AF0F1F088234AF0EE0FFF1FBB1F661FF5
S1131D20771F881F91505040A9F79E3F510580F0BE
S1131D300C947C0D0C942F0E5F3FE4F3983ED4F387
S1131D40869577956795B795F795E7959F5FC1F762
S1131D50FE2B880F911D9695879597F908959B0101
S1131D60AC010C94420E0E94580D880B990B0895F7
S1131D70A0E1B0E0EEEBFEE00C9457127C011B01F5
S1131D806A01FC0117821682838181FF44C39E018C
S1131D902F5F3F4F3901F7019381F10193FD859145
S1131DA093FF81911F01882309F431C3853239F4EB
S1131DB093FD859193FF81911F01853239F4B70119
S1131DC090E00E94C71356016501E5CF10E0512C45
S1131DD0912CFFE1F915D8F08B3279F038F4803288
S1131DE079F08332A1F4F92DF0612EC08D3261F0C7
S1131DF0803369F4292D21602DC0392D3260932E52
S1131E00892D8460982E2AC0E92DE86015C097FCBE
S1131E102DC020ED280F2A3088F496FE06C03AE043
S1131E20139F200D1124122F19C08AE0589E200DF3
S1131E301124522EE92DE0629E2E10C08E3231F410
S1131E4096FCE5C2F92DF0649F2E08C08C3621F46F
S1131E50292D2068922E02C0883641F4F10193FDA9
S1131E60859193FF81911F018111B3CF9BEB980F53
S1131E70933020F4992D9061805E07C09BE9980F00
S1131E80933008F066C1992D9F7E96FF16E09F73EC
S1131E90992E853619F49064992E08C0863621F45B
S1131EA0392F3068932E02C01111115097FE07C0CC
S1131EB01C3350F444244394410E27E00BC01830E3
S1131EC038F027E017E005C027E09CE3492E02C064
S1131ED0212F412C560184E0A80EB11CF60160812B
S1131EE0718182819381042DA3010E948E126C0161
S1131EF0F981FC87F0FF02C0F3FF06C091FC06C025
S1131F0092FE06C000E205C00DE203C00BE201C070
S1131F1000E08C858C7019F001115AC29BC297FEA7
S1131F2010C04C0CFC85F4FF04C08A81813309F491
S1131F304A94141474F528E0241578F588E0482EA2
S1131F402CC096FC2AC0812F90E08C159D059CF036
S1131F503CEFC3163FEFD30674F0892D8068982EAA
S1131F600AC0E2E0F0E0EC0FFD1FE10FF11D8081FB
S1131F70803319F411501111F4CF97FE0EC044248C
S1131F804394410E812F90E0C816D9062CF41C19F5
S1131F9004C04424439401C010E097FE06C01C14FE
S1131FA01D0434F4C601019605C085E090E002C02A
S1131FB081E090E001110196112331F0212F30E0EE
S1131FC02F5F3F4F820F931F252D30E08217930719
S1131FD014F4581A01C0512C892D897049F45520E4
S1131FE039F0B70180E290E00E94C7135A94F7CF0A
S1131FF0002329F0B701802F90E00E94C71393FCBF
S113200009C0552039F0B70180E390E00E94C7135E
S11320105A94F7CF97FE4CC04601D7FE02C0812CDC
S1132020912CC60188199909F301E80FF91FFE875D
S1132030ED87960124193109388B2F87012F10E081
S11320401195019511093FEF8316930629F4B70101
S11320508EE290E00E94C713C814D9044CF08F8517
S113206098898815990524F4ED85FE85818101C040
S113207080E3F1E08F1A91082D853E852F5F3F4F55
S11320803E872D87801691062CF0B70190E00E94C0
S1132090C713D9CFC814D90441F49A81963320F4D4
S11320A0953319F43C8534FF81E3B70190E04EC0C9
S11320B08A81813319F09C859F7E9C87B70190E0CB
S11320C00E94C713111105C094FC18C085E690E066
S11320D017C0B7018EE290E00E94C7131E5F82E032
S11320E001E0080FF301E80FF11D8081B70190E0D2
S11320F00E94C713802F0113F3CFE6CF85E490E04D
S1132100B7010E94C713D7FC06C0C114D10441F41F
S1132110EC85E4FF05C0D194C194D1088DE201C0DF
S11321208BE2B70190E00E94C71380E32AE0C21655
S1132130D1042CF08F5FFAE0CF1AD108F7CFB701A2
S113214090E00E94C713B701C601C0960E94C7134E
S113215054C1833631F0833779F0833509F056C0A2
S113216020C0560132E0A30EB11CF60180818983A0
S113217001E010E0630112C05601F2E0AF0EB11CA1
S1132180F601C080D18096FE03C0612F70E002C0CA
S11321906FEF7FEFC6010E9471138C01F92DFF7759
S11321A014C0560122E0A20EB11CF601C080D180F9
S11321B096FE03C0612F70E002C06FEF7FEFC6018F
S11321C00E9466138C01F92DF0689F2EF3FD1AC04E
S11321D0852D90E008171907A8F4B70180E290E074
S11321E00E94C7135A94F4CFF60197FC859197FE89
S11321F081916F01B70190E00E94C71351105A9466
S1132200015011090115110579F7F7C0843611F051
S1132210893661F5560197FE09C024E0A20EB11C6F
S1132220F60160817181828193810AC0F2E0AF0E70
S1132230B11CF60160817181072E000C880B990B8B
S1132240F92DFF769F2E97FF09C090958095709584
S113225061957F4F8F4F9F4FF0689F2E2AE030E0AB
S1132260A3010E945014C82EC6183FC0092D8537FB
S113227021F40F7E2AE030E01DC0097F8F3691F0F3
S113228018F4883559F0C3C0803719F0883711F035
S1132290BEC0006104FF09C0046007C094FE08C00A
S11322A0066006C028E030E005C020E130E002C04E
S11322B020E132E0560107FF09C084E0A80EB11CFA
S11322C0F601608171818281938108C0F2E0AF0ED2
S11322D0B11CF6016081718180E090E0A3010E944D
S11322E05014C82EC6180F77902E96FE0BC0092DD9
S11322F00E7FC11650F494FE0AC092FC08C0092D4A
S11323000E7E05C0DC2C092D03C0DC2C01C0D12EAF
S113231004FF0DC0FE01EC0DF11D8081803311F42A
S1132320097E09C002FF06C0D394D39404C0802F51
S1132330867809F0D39403FD11C000FF06C01C2D5C
S1132340D51480F4150D1D190DC0D51458F4B7011A
S113235080E290E00E94C713D394F7CFD51410F411
S11323605D1801C0512C04FF10C0B70180E390E058
S11323700E94C71302FF17C001FD03C088E790E065
S113238002C088E590E0B7010CC0802F867859F030
S113239001FF02C08BE201C080E207FD8DE2B701BC
S11323A090E00E94C713C11638F4B70180E390E0AF
S11323B00E94C7131150F7CFCA94F301EC0DF11D1D
S11323C08081B70190E00E94C713C110F5CF15C0FA
S11323D0F4E0F51560F584E0581A93FE1FC001116E
S11323E027C02C8523FF2AC006E910E0392D30715F
S11323F0932EF8018491811124C0552009F4E4CC72
S1132400B70180E290E00E94C7135A94F6CFF70117
S11324108681978126C08FEF9FEF23C0B70180E2AA
S113242090E00E94C7135A945110F8CFD8CF512C82
S1132430B701802F90E00E94C713D3CF0AE910E0C0
S1132440D5CF91108052B70190E00E94C7130F5F5F
S11324501F4FCFCF23E0251510F483E0BDCF512CBF
S1132460C0CF6096E2E10C947312A1E21A2EAA1B6B
S1132470BB1BFD010DC0AA1FBB1FEE1FFF1FA21730
S1132480B307E407F50720F0A21BB30BE40BF50B2D
S1132490661F771F881F991F1A9469F760957095B6
S11324A0809590959B01AC01BD01CF0108952F92B9
S11324B03F924F925F926F927F928F929F92AF92D0
S11324C0BF92CF92DF92EF92FF920F931F93CF931D
S11324D0DF93CDB7DEB7CA1BDB0B0FB6F894DEBFB4
S11324E00FBECDBF09942A88398848885F846E84DA
S11324F07D848C849B84AA84B984C884DF80EE8024
S1132500FD800C811B81AA81B981CE0FD11D0FB62C
S1132510F894DEBF0FBECDBFED010895283008F05A
S113252027E03327DA01990F311D87FD916000966A
S11325306105710539F432602E5F3D9330E32A95CD
S1132540E1F708959F3F30F080387105610509F087
S11325503C5F3C5F3D93913008F08068911DDF93B0
S1132560CF931F930F93FF92EF92192F987F969515
S1132570E92F96959695E90FFF27E850FF4F992785
S11325803327EE24FF24A701E7010590089407945C
S113259028F4360FE71EF81E491F511D660F771FDA
S11325A0881F991F0694A1F70590079428F4E70E55
S11325B0F81E491F561FC11D770F881F991F661FDC
S11325C00694A1F70590079428F4F80E491F561FA6
S11325D0C71FD11D880F991F661F771F0694A1F787
S11325E00590079420F4490F561FC71FD81F990F51
S11325F0661F771F881F0694A9F78491109517709A
S113260041F0D695C79557954795F794E7941A9551
S1132610C1F7EEE9F0E06894159015913591659154
S1132620959105907FE27395E118F10A430B560BDF
S1132630C90BD009C0F7E10CF11E431F561FC91F77
S1132640D01D7EF4703311F48A95E6CFE8940150DE
S113265030F0080F0AF40027021708F4202F2395FE
S1132660022F7A3328F079E37D932A95E9F710C095
S11326707D932A9589F606949795679537951795CE
S11326801794E118F10A430B560BC90BD00998F0C3
S113269023957E9173957A3308F070E37C9320132D
S11326A0B8F77E9170617D9330F0839571E37D93EB
S11326B070E32A95E1F71124EF90FF900F911F9199
S11326C0CF91DF91992787FD90950895FC0105909E
S11326D0615070400110D8F7809590958E0F9F1F20
S11326E00895FC016150704001900110D8F7809565
S11326F090958E0F9F1F08950F931F93CF93DF9391
S1132700009731F46115710519F480E090E03AC046
S11327108B01EC016EE070E081E090E00E94AE1469
S1132720FC01892B91F380E883830115110571F075
S11327301387028781E8838380913102909132026A
S1132740892B21F4F0933202E09331022097C9F0EF
S1132750D187C08783818260838380913302909183
S11327603402892B71F4F0933402E09333028091A4
S1132770350290913602892B21F4F0933602E093CE
S11327803502CF01DF91CF911F910F9108950F93DF
S11327901F93CF93DF93FB01238121FD03C08FEFB0
S11327A09FEF2CC022FF16C04681578124813581BA
S11327B04217530744F4A081B1819D012F5F3F4F1D
S11327C0318320838C93268137812F5F3F4F37835A
S11327D0268314C08B01EC01FB010084F185E02DFC
S11327E00995892BE1F6D80116968D919C9117973E
S11327F0019617969C938E931697CE01DF91CF91F5
S11328001F910F910895A0E0B0E0E9E0F4E10C9489
S11328106712AE014B5F5F4FFA0161917191AF0195
S113282080913302909134020E94B80EE2E00C943D
S1132830831260913302709134020E94C713089589
S11328400F931F93CF93DF93E0913302F0913402FF
S1132850238121FF1BC08C01D0E0C0E0F8018191ED
S11328608F016091330270913402DB011896ED916F
S1132870FC911997882331F00995892B79F3DFEFBF
S1132880CFEFECCF8AE00995892B19F08FEF9FEFFA
S113289002C08D2F9C2FDF91CF911F910F9108952E
S11328A0FA01AA27283051F1203181F1E8946F937D
S11328B06E7F6E5F7F4F8F4F9F4FAF4FB1E03ED023
S11328C0B4E03CD0670F781F891F9A1FA11D680FC1
S11328D0791F8A1F911DA11D6A0F711D811D911DF4
S11328E0A11D20D009F468943F912AE0269F112469
S11328F03019305D3193DEF6CF010895462F4770CD
S1132900405D4193B3E00FD0C9F7F6CF462F4F7027
S1132910405D4A3318F0495D31FD4052419302D085
S1132920A9F7EACFB4E0A69597958795779567952B
S1132930BA95C9F700976105710508959B01AC012B
S11329400A2E06945795479537952795BA95C9F752
S1132950620F731F841F951FA01D08950F931F936B
S1132960CF93DF93869F8001879F100D969F100D54
S11329701124C8010E94CA14EC01009729F0A8018F
S113298060E070E00E94EB15CE01DF91CF911F91C2
S11329900F9108950F931F93CF93DF938230910586
S11329A010F482E090E0E0913902F0913A0220E0E4
S11329B030E0A0E0B0E0309719F14081518102810C
S11329C0138148175907C8F08417950769F41097BD
S11329D031F012960C93129713961C9327C0009310
S11329E0390210933A0222C02115310519F0421719
S11329F0530718F49A01BD01EF01DF01F801DBCFA1
S1132A0021153105F9F0281B390B2430310580F4E8
S1132A108A819B816115710521F0FB019383828377
S1132A2004C090933A0280933902FE01329644C066
S1132A30FE01E20FF31F81939193225031093983F0
S1132A4028833AC02091370230913802232B41F475
S1132A502091020130910301309338022093370210
S1132A6020910001309101012115310541F42DB768
S1132A703EB74091040150910501241B350BE091B0
S1132A803702F0913802E217F307A0F42E1B3F0B34
S1132A902817390778F0AC014E5F5F4F24173507CC
S1132AA048F04E0F5F1F50933802409337028193D2
S1132AB0919302C0E0E0F0E0CF01DF91CF911F914C
S1132AC00F910895CF93DF93009709F481C0FC011F
S1132AD0329713821282A0913902B0913A02109770
S1132AE081F420813181820F931F2091370230912C
S1132AF038022817390751F5F0933802E09337026A
S1132B0067C0ED0120E030E0CE17DF0740F44A81D2
S1132B105B819E0141155105F1F0EA01F5CFD383A4
S1132B20C28340815181840F951FC817D90759F476
S1132B3088819981840F951F0296918380838A816D
S1132B409B81938382832115310529F4F0933A0202
S1132B50E09339023DC0E901FB83EA83499159912D
S1132B60C40FD51FEC17FD0761F480819181840F98
S1132B70951F0296E90199838883828193819B83BF
S1132B808A83E0E0F0E012968D919C911397009770
S1132B9019F0FD01DC01F7CF8D919C9111979D01F6
S1132BA02E5F3F4F820F931F2091370230913802DE
S1132BB02817390769F4309729F410923A021092D1
S1132BC0390202C013821282B0933802A0933702F2
S1132BD0DF91CF910895DC0101C06D9341505040C5
S10B2BE0E0F70895F894FFCF1B
S1132BE800003B022000FF00FFFF007FFF0000FF02
S1132BF87F00FFFF007FFF0000FF0000FF7F00FF52
S1132C08FF007FFF0000FF7F00FF4C696E652064B2
S1132C1865746563746564212053746172742064F7
S1132C28697374616E6365206D6561737572656D32
S1132C38656E74004C696E652064657465637465BB
S1132C486421204D6561737572656D656E742064C9
S1132C58697374616E6365004D656173757265644B
S1132C682064697374616E63653A0925660A0045D0
S1132C787374696D6174656420616E676C653A0983
S1132C8825660A0050726F6772616D3A20257520B7
S1132C98546163746963733A2025750A004D6F742F
S1132CA86F72733A090925640925640A0050726F22
S1132CB878696D6974793A092575257525752575B9
S1132CC825750A004C696E653A0909257525750943
S10B2CD825750925750A0000A9
S9030000FC
