:100000000C944B000C94A9090C9468000C946800A3
:100010000C9468000C9468000C9468000C946800C0
:100020000C9468000C94CD090C9468000C94680042
:100030000C9468000C9468000C9468000C946800A0
:100040000C9468000C9468000C9468000C94680090
:100050000C9468000C9468000C9468000C94680080
:100060000C9468000C946800084AD73B3BCE016EA4
:1000700084BCBFFDC12F3D6C74319ABD56833DDAFF
:100080003D00C77F11BED9E4BB4C3E916BAAAABE0E
:10009000000000803F0011241FBECFEFD8E0DEBF7C
:1000A000CDBF11E0A0E0B1E0EEE6FCE102C00590BA
:1000B0000D92A030B107D9F721E0A0E0B1E001C076
:1000C0001D92AB3BB207E1F70E9443040C94350E3E
:1000D0000C94000010920501109204018093060117
:1000E000682F8CE00E940D070895209106012230B0
:1000F00069F018F4213031F038C0233089F0243011
:1001000051F133C083E00E946A0008959B01AC0165
:100110000E940E0E882361F183E00E946A00089518
:100120009B01AC010E940E0E811104C082E00E946E
:100130006A0008958091040190910501843691052B
:1001400030F401969093050180930401089584E0B2
:100150000E946A0008959B01AC010E940E0E81115D
:1001600007C082E00E946A00089581E00E946A0050
:100170000895CF92DF92EF92FF920F931F93CF9348
:10018000DF9300D0CDB7DEB70E9426066B017C015D
:1001900080E00E948906898381E00E9489068A8323
:1001A000AE014F5F5F4FC701B6010E94750080919D
:1001B00006018230A1F018F4813041F0EFC08330A5
:1001C00009F442C0843009F46FC0E8C00E940007FF
:1001D00091E0811101C090E090935801DFC011E0DF
:1001E00020E030E0A901C701B6010E94900D181669
:1001F0000CF010E01093580100E010E09801B701F6
:10020000A60180E00E94E0076B017C0120E030E065
:100210004FE753E40E94BD0A0E94290CCB010E94C3
:1002200026058C01A701960160E070E08FE793E45A
:100230000E94BC0A0E94290CCB010E942605BC0129
:10024000C8010E949805AAC0898181119CC08A8139
:100250008823A1F010925801EE24EA94F12C0AE6CA
:100260001FEF1AC081E0809358010F2EFAE6EF2E9F
:10027000FF24FA94F02D0FEF10E00EC0809158018A
:10028000811106C0EE24EA94F12C00E010E004C0D5
:10029000E12CF12C0FEF10E080E00E949308B701F1
:1002A000C8010E9498057AC062E370E082E390E0A2
:1002B0000E949805198111116AC08A8181111BC0A1
:1002C0006DC0C12CD12C76018FEC97E00197F1F72E
:1002D00000C0000024E537EB45EA58E3C701B6014A
:1002E0000E94BD0A6B017C018981882339F08A81D3
:1002F0008111EACF03C0C12CD12C760160E070E0FF
:1003000080E090E00E9498059FEF20E782E0915006
:1003100020408040E1F700C0000026E031E845E9D8
:100320005DE3C701B6010E943C0B6B017C016EECE2
:100330007FEF8EEC9FEF0E9498059FEF22E587E00C
:10034000915020408040E1F700C0000060E070E084
:1003500080E090E00E9498059FEF20E782E09150B6
:1003600020408040E1F700C00000A70196016BED3E
:100370007FE089E490E40E94BC0A22E330E0412F50
:100380000E941F070BC08A81811178CF6BCF8A81B1
:10039000811197CFC12CD12C7601B0CF0F900F9047
:1003A000DF91CF911F910F91FF90EF90DF90CF9051
:1003B00008958093B3018230A9F028F4882341F096
:1003C000813059F01EC0833091F08430A9F019C0FB
:1003D00061E08AE00E940D0717C061E08AE00E9498
:1003E0000D0712C062E08AE00E940D070DC063E0B5
:1003F0008AE00E940D0708C061E08AE00E940D07B4
:1004000003C080E00E94D90180E00E946A00089544
:10041000682F6E7F6093B80181E0860F80930A0198
:100420008BE00E940D0708953F924F925F926F926A
:100430007F928F929F92AF92BF92CF92DF92EF9274
:10044000FF920F931F93CF93DF9300D000D000D083
:10045000CDB7DEB78091B301882319F0833029F03E
:1004600007C081E00E94D90103C084E00E94D90145
:100470000E940907882309F4C4C0809111018111E9
:10048000C0C08091B301823009F4B4C0843009F453
:10049000B5C0813009F0B5C00F2EFAEFEF2EF12C68
:1004A000F02D0F2EF4ECCF2EF9E0DF2EF02D23E30C
:1004B000E216F1041CF03CE0E31AF108CE18DF0864
:1004C0008701FF2014F40F5F1F4F15950795101635
:1004D00011060CF088C01E821D82C80101979C0184
:1004E000990F440B550B29833A834B835C836981B5
:1004F0007A818B819C810E94610C4B015C014D8152
:100500005E81BA01550F880B990B0E94610CA50101
:1005100094010E94B70B2B013C0120E030E040E247
:1005200052E40E949D0D0E94300C362E20E030E0F7
:1005300048EC52E4C301B2010E949D0D0E94300CB0
:10054000862F40E0632D0E94AB0A8FEC97E0019765
:10055000F1F700C000002D813E812F5F3F4F3E83A9
:100560002D832017310719F61A82198249815A8181
:10057000BA01550F880B990B0E94610CA5019401DB
:100580000E94B70B9B01AC0160E070E080E89FE344
:100590000E94BC0A2B013C0120E030E040E252E422
:1005A0000E949D0D0E94300C362E20E030E048EC79
:1005B00052E4C301B2010E949D0D0E94300C862FAF
:1005C00040E0632D0E94AB0A8FEC97E00197F1F7B2
:1005D00000C0000029813A812F5F3F4F3A83298371
:1005E0002017310719F6DD200CF061CF82E00E9460
:1005F000D90107C083E00E94D90103C081E00E94B5
:10060000D9010E9409078093110126960FB6F8942C
:10061000DEBF0FBECDBFDF91CF911F910F91FF9035
:10062000EF90DF90CF90BF90AF909F908F907F9092
:100630006F905F904F903F9008952F923F924F920E
:100640005F926F927F928F929F92AF92BF92CF9262
:10065000DF92EF92FF920F931F93CF93DF93CDB76B
:10066000DEB7AB970FB6F894DEBF0FBECDBF490122
:100670005A012701380119823FEF3A833B831C82DC
:100680003D832FE72E831F82388719862A873B8771
:100690001C863D873E871F86388B298B1A8A3B8BA9
:1006A0001C8A1D8A3E8B1F8A288F398F1A8E3B8F9A
:1006B0002C8F1D8E3E8F1F8E18A239A31AA22BA33A
:1006C0003CA31DA23EA33FA318A639A72AA7A501B4
:1006D00094010E94BC0A6B017C01A5019401C30135
:1006E000B2010E94BC0A9B01AC01C701B6010E9485
:1006F000B70B20E030E040E651E40E949D0D4B0135
:100700005C010E949C0C6B017C010E94300C70E02B
:100710008B01000F111F600F711F01E010E00C0F23
:100720001D1F060F171FC501B4010E949B0B0E94DD
:10073000300C862F869593E9899F812D112486950B
:100740008695880F982F990F990F990F981B691B01
:1007500070E01B01220C331C260E371E81E090E056
:100760008C0F9D1F280E391EA7019601C501B401EB
:100770000E94BC0A6B017C019B01AC0160E070E04F
:1007800080E89FE30E94BC0A4B015C01F801618193
:1007900070E080E090E00E94610CA50194010E944D
:1007A0009D0D2B013C01F101618170E080E090E042
:1007B0000E94610CA70196010E949D0D9B01AC0156
:1007C000C301B2010E94BD0A0E94300C6BA7F80160
:1007D000628170E080E090E00E94610CA5019401CC
:1007E0000E949D0D2B013C01F101628170E080E0CF
:1007F00090E00E94610CA70196010E949D0D9B0153
:10080000AC01C301B2010E94BD0A0E94300C762ED9
:10081000F801608170E080E090E00E94610CA50129
:1008200094010E949D0D4B015C01F101608170E01B
:1008300080E090E00E94610CA70196010E949D0D4E
:100840009B01AC01C501B4010E94BD0A0E94300C9D
:100850007BA5872DAB960FB6F894DEBF0FBECDBF3C
:10086000DF91CF911F910F91FF90EF90DF90CF908C
:10087000BF90AF909F908F907F906F905F904F90C0
:100880003F902F90089560E875E280E090E00E942C
:10089000F1090E94C508C12CD12C7601970186016F
:1008A00040E050E861E373E480E00E949E0763E06B
:1008B00082E00E94A60564EF71E086E00E94E906EE
:1008C0000E94CD050E94FD060E9406078BE00E9453
:1008D00017070E9408028AE00E9417070E94D901A8
:1008E0008CE00E9417070E946A000E941402809107
:1008F000B301813009F447C038F0823009F48CC06C
:10090000833009F491C09BC060E070E080E090E02B
:100910000E94980540E065EA8FEF0E94AB0A2FE73E
:1009200088E391E0215080409040E1F700C0000052
:1009300040E060E080E00E94AB0A2FE788E391E0AE
:10094000215080409040E1F700C0000040E065EA9F
:100950008FEF0E94AB0A2FE788E391E0215080409F
:100960009040E1F700C0000040E060E080E00E94BD
:10097000AB0A2FE788E391E0215080409040E1F7F7
:1009800000C000005CC060E070E080E090E00E9489
:100990009805609100017091010180910201909190
:1009A0000301E12CF12C0AE714E420E030E0A90176
:1009B0000E941D032AE939E949E95EE30E943E0AE3
:1009C0000E94B30A20E030E040E450E4609100016E
:1009D0007091010180910201909103010E94BD0A72
:1009E0006B017C0120E030E04AE754E40E94900D66
:1009F00018164CF0C0920001D0920101E092020161
:100A0000F09203011CC0109200011092010110929B
:100A100002011092030113C040E064E680E00E94EE
:100A2000AB0A0E94B9000BC060E070E080E090E08B
:100A30000E94980540E060E084E60E94AB0A8FE1E6
:100A40009EE40197F1F700C000004FCF8F3F910562
:100A500019F014F08FEF90E081302FEF920714F42B
:100A600081E09FEF0895CF93DF93811108C0CB0100
:100A70000E9426059093B5018093B40131C0813066
:100A800041F4CB010E9426059093B7018093B601F3
:100A900005C0882329F1813009F047C0C091B60113
:100AA000D091B701BE010D2E000C880B990B0E944E
:100AB000610C9F770E94300C67BD2097B1F181E0F7
:100AC0009091BA01923009F480E091E01C161D0665
:100AD0000CF090E0891711F05F9A27C05F9825C04D
:100AE000C4EBD1E068817981072E000C880B990B4B
:100AF0000E94610C9F770E94300C70938900609374
:100B0000880088819981009781F021E03091B901B6
:100B1000323009F420E031E0181619060CF030E00C
:100B2000231711F02A9A01C02A98DF91CF910895D6
:100B3000CF93DF93EB01BC0180E00E943305BE013F
:100B400081E00E943305DF91CF910895E9EBF1E058
:100B500080836183E4EBF1E01182108213821282C0
:100B60008AB1806C8AB984B1866084B984B583689F
:100B700084BD85B5816085BDE0E8F0E08081816855
:100B80008083E1E8F0E080818960808360E070E04C
:100B900080E090E00E949805089587B1877C87B92E
:100BA00084B18F7384B988B1886388B985B1806C4A
:100BB00085B908958230C1F028F4882341F081304E
:100BC00069F026C08330B9F08430D9F021C086B1F5
:100BD00083FB992790F981E08927089586B1829552
:100BE000817091E08927089586B185FB992790F956
:100BF00081E08927089583B18095881F8827881F01
:100C0000089583B186FB992790F981E0892708959B
:100C100080E00895FF920F931F93CF93DF93F82EF8
:100C2000CAE0D0E000E010E08F2D0E94DA05080F46
:100C3000111D2197C9F781E0073011050CF480E000
:100C4000DF91CF911F910F91FF9008958F929F9206
:100C5000AF92BF92CF92DF92EF92FF920F931F93CA
:100C6000CF930EEF1FEFC0E0C12CD12CE12CF12C63
:100C70008C2F0E940A06882329F08FEFE81AF80AC1
:100C8000C00ED11ECF5F0F5F1F4FC53089F7B60171
:100C9000DD0C880B990B0E94610C4B015C01B701C4
:100CA000FF0C880B990B0E94610C9B01AC01C501E4
:100CB000B4010E94B70BCF911F910F91FF90EF905D
:100CC000DF90CF90BF90AF909F908F900895ECE70A
:100CD000F0E09081907F9083882319F0813039F083
:100CE0000BC0ECE7F0E080818260808305C0ECE718
:100CF000F0E0808181608083EAE7F0E080818064B9
:100D00008083808186FDFDCF80917800909179006D
:100D100008958F929F92AF92BF92CF92DF92EF92FF
:100D2000FF920F931F93CF93DF93B82EC5E0D0E0CF
:100D300000E010E0CC24C394812CDD24D394E12C7A
:100D4000912CA12CF09007018B2D0E9467062C2D71
:100D500040915601509157018417950708F0282DAE
:100D60008D2D9E2D2F1511F0892D9A2D080F191FED
:100D7000219741F781E0033011050CF480E0DF9109
:100D8000CF911F910F91FF90EF90DF90CF90BF9088
:100D9000AF909F908F900895CF93853041F086302B
:100DA00049F08430A1F481E08093070110C01092D3
:100DB00007010DC080E00E948906C82F81E00E94D3
:100DC0008906C81304C081E0C827C0930701CF91EA
:100DD0000895ECE7F0E0908190649083EAE7F0E01A
:100DE00090819068908391E09093070170935701F0
:100DF000609356010E94CC06089524982C9A089579
:100E000083B18295817091E0892708953898409A3E
:100E1000089586B1809581700895F999FECF1FBA23
:100E200090E092BD81BD60BDFA9AF99A0895F99952
:100E3000FECF90E092BD81BDF89A80B50895CF9223
:100E4000DF92EF92FF921F93CF93DF93142FE9016C
:100E50002AE939E949E15DE30E949D0D9B01AC015E
:100E60000E94BD0A24E134E747EC5DE30E94B70B22
:100E70006B017C01BE010D2E000C880B990B0E94AA
:100E8000610C21ED30ED40ED5DE30E949D0D9B0175
:100E9000AC01C701B6010E94B70B6B017C011123A5
:100EA00041F0662777276C1B7D0BCE010E949805C9
:100EB00007C0BE01882799278C1B9D0B0E949805AF
:100EC00020E030E048EC52E4C701B6010E949D0DDD
:100ED0006B017C0120E030E0A9010E94900D181602
:100EE000B4F4C0E0D0E08FE19EE40197F1F700C0D8
:100EF00000002196BE010D2E000C880B990B0E945C
:100F0000610CA70196010E94B20B882364F360E094
:100F100070E080E090E00E9498059FEF20E782E07B
:100F2000915020408040E1F700C00000DF91CF9158
:100F30001F91FF90EF90DF90CF900895CF92DF92B6
:100F4000EF92FF920F931F9390E0FC01EE0FFF1FB3
:100F5000DF01A80FB91FAA0FBB1FAA0FBB1FAA0F43
:100F6000BB1FA55ABE4F4D935D936D937C93139712
:100F700014960D931D932D933C9317971896CD922D
:100F8000DD92ED92FC921B9740E050E060E87FE339
:100F900054964D935D936D937C93579750961D9205
:100FA0001D921D921C925397FD011486158616867C
:100FB00017861F910F91FF90EF90DF90CF900895CB
:100FC0002F923F924F925F926F927F928F929F9259
:100FD000AF92BF92CF92DF92EF92FF920F931F9347
:100FE000CF93DF9300D000D000D0CDB7DEB7898398
:100FF000CB01BA01A90198010E94BC0A6B017C01D6
:101000008981082F10E01801220C331CF101E00F38
:10101000F11FEE0FFF1FEE0FFF1FEE0FFF1FE55A30
:10102000FE4FFE83ED8384889588A688B788248543
:10103000358546855785C701B6010E94BC0AA501C2
:1010400094010E94B70B69837A838B839C83A501EB
:101050009401C701B6010E949D0DED81FE8120899A
:101060003189428953890E94BD0A4B015C01ED819F
:10107000FE81608B718B828B938B208131814281C9
:101080005381C701B6010E949D0D2B013C01ED81EA
:10109000FE812481358146815781C501B4010E94BA
:1010A0009D0D9B01AC01C301B2010E94BD0A4B0121
:1010B0005C01ED81FE812085318542855385698102
:1010C0007A818B819C810E949D0D9B01AC01C501A1
:1010D000B4010E94BD0AF101E00FF11FEE0FFF1FE6
:1010E000EE0FFF1FEE0FFF1FE55AFE4FC486D58699
:1010F000E686F78626960FB6F894DEBF0FBECDBF04
:10110000DF91CF911F910F91FF90EF90DF90CF90E3
:10111000BF90AF909F908F907F906F905F904F9017
:101120003F902F90089590E0FC01EE0FFF1FDF012C
:10113000A80FB91FAA0FBB1FAA0FBB1FAA0FBB1F67
:10114000A55ABE4F50961D921D921D921C92539708
:10115000FD011486158616861786089510920D01D6
:101160008EE090E090935A0180935901109209010A
:1011700010920801109213011092120185E090E084
:101180009093550180935401089552985A9AE89A81
:10119000E9E6F0E080818160808380818D7F8083BB
:1011A000E1EBF0E0808181608083E0E7F0E0808126
:1011B0008160808378940E94AE0808958091120126
:1011C0009091130101969093130180931201089559
:1011D0001F93CF93DF9300D000D0CDB7DEB720911F
:1011E000B20080E090E090911201820F911D9695DF
:1011F0008795969587954A9902C010E001C012E044
:101200009C012D563A402F3E364010F41C5F07C01B
:1012100088579340833F964010F00E94AE0820917B
:101220005401309155012530310519F5809159014E
:1012300090915A01019790935A01809359012091FE
:1012400008013091090141E050E0BA0102C0660F87
:10125000771F8A95E2F7CB01822B932B909309019C
:101260008093080150935501409354011092B200AD
:1012700068C081E0898381E98A838BE98B838BEF66
:101280008C83FE01E20FF31F818190E002C09595EF
:1012900087951A95E2F7AC01437055272417350757
:1012A00019F0243031051CF00E94AE084AC050935A
:1012B0005501409354014230510561F48091590128
:1012C00090915A01019790935A0180935901892B6B
:1012D00091F528C041305105E9F480915901909170
:1012E0005A01019790935A01809359012091080166
:1012F0003091090141E050E0BA0102C0660F771F4A
:101300008A95E2F7CB01822B932B9093090180936E
:10131000080111C02091590130915A01232B59F431
:1013200080FD09C086E090E09093550180935401C0
:1013300081E080930D011092B2001092130110927F
:1013400012010F900F900F900F90DF91CF911F918E
:1013500008951F920F920FB60F9211242F933F936F
:101360004F935F936F937F938F939F93AF93BF93AD
:10137000EF93FF930E94E808FF91EF91BF91AF9127
:101380009F918F917F916F915F914F913F912F919D
:101390000F900FBE0F901F9018951F920F920FB6CF
:1013A0000F9211242F933F934F935F936F937F93EB
:1013B0008F939F93AF93BF93EF93FF930E94DE08A9
:1013C000FF91EF91BF91AF919F918F917F916F911D
:1013D0005F914F913F912F910F900FBE0F901F90F3
:1013E0001895DC01CB01880F991FAA1FBB1F880F1E
:1013F000991FAA1FBB1F9C01AD01220F331F441F61
:10140000551F220F331F441F551F60E072E18AE70A
:1014100090E00E94130EDA01C9010197A109B109F8
:101420008093C400892F9A2FAB2FBB278093C500D0
:1014300088E18093C100E2ECF0E0808180618083EC
:1014400080818660808310920C0110920B01E4E190
:10145000F1E024E531E083E28193E217F307E1F75D
:1014600010925301E3E7F1E023EB31E083E2819353
:10147000E217F307E1F71092B2010895CF92DF92DD
:10148000EF92FF921F93CF93DF93C62FD82F69015E
:101490007A01672F70E080E090E00E94610CA70164
:1014A00096010E949D0D0E94300C162F6D2F70E04A
:1014B00080E090E00E94610CA70196010E949D0DC2
:1014C0000E94300CD62F6C2F70E080E090E00E94DC
:1014D000610CA70196010E949D0D0E94300C712F96
:1014E0008D2FDF91CF911F91FF90EF90DF90CF90E4
:1014F0000895CF93DF932898209AF8948EE091E096
:10150000EC010990088007D00A9005D00990099055
:10151000099001D012C008D007D006D005D004D061
:1015200003D002D001D00895001C289A08F0289812
:101530000000000008F428980895C0930E01D0938D
:101540000F01E09310017894D5EDDA95F1F70000E2
:10155000DF91CF910895EEE0F1E0608381834283D3
:101560000E94790A089560930E0170930F01809391
:1015700010010E94790A08955058BB27AA270E949B
:10158000D40A0C943E0D0E94300D38F00E94370DA5
:1015900020F039F49F3F19F426F40C94060D0EF454
:1015A000E095E7FB0C94D70CE92F0E944F0D58F300
:1015B000BA17620773078407950720F079F4A6F538
:1015C0000C94890D0EF4E0950B2EBA2FA02D0B0173
:1015D000B90190010C01CA01A0011124FF27591B78
:1015E00099F0593F50F4503E68F11A16F040A22F7E
:1015F000232F342F4427585FF3CF469537952795EF
:10160000A795F0405395C9F77EF41F16BA0B620BED
:10161000730B840BBAF09150A1F0FF0FBB1F661F34
:10162000771F881FC2F70EC0BA0F621F731F841F77
:1016300048F4879577956795B795F7959E3F08F09D
:10164000B0CF9395880F08F09927EE0F979587955F
:1016500008950E94300D60F080E891E009F49EEF5B
:101660000E94370D28F040E851E071F45EEF0CC0A5
:101670000C94060D0C94890DE92FE0780E944F0D13
:1016800040F3092E052AB1F32617370748075907F3
:1016900038F00E2E07F8E02569F0E025E0640AC076
:1016A000EF6307F8009407FADB01B9019D01DC0143
:1016B000CA01AD01EF930E94CE0B0E943E0D0E9425
:1016C0006C0B5F91552339F02BED3FE049E450FD61
:1016D00049EC0C94BD0A0895DF93DD27B92FBF773D
:1016E00040E85FE31616170648075B0718F4D92F82
:1016F0000E94950D9F938F937F936F930E940A0E84
:10170000E8E6F0E00E94090D0E943E0D2F913F9106
:101710004F915F910E94B00DDD2351F09058A2EAE5
:101720002AED3FE049EC5FE3D0785D270E94D40AC0
:10173000DF910C943E0D0E94710D90F09F3748F49C
:10174000911116F40C948A0D60E070E080E89FE33C
:10175000089526F01B16611D711D811D0C94DD0C72
:101760000C94F80C0E94B30C08F481E008950E94D8
:10177000CB0B0C943E0D0E94370D58F00E94300D9B
:1017800040F029F45F3F29F00C94D70C51110C94D0
:101790008A0D0C94060D0E944F0D68F39923B1F346
:1017A000552391F3951B550BBB27AA276217730787
:1017B000840738F09F5F5F4F220F331F441FAA1F1B
:1017C000A9F335D00E2E3AF0E0E832D091505040D7
:1017D000E695001CCAF72BD0FE2F29D0660F771F85
:1017E000881FBB1F261737074807AB07B0E809F06B
:1017F000BB0B802DBF01FF2793585F4F3AF09E3FF0
:10180000510578F00C94D70C0C948A0D5F3FE4F3EB
:10181000983ED4F3869577956795B795F7959F5F32
:10182000C9F7880F911D9695879597F90895E1E07E
:10183000660F771F881FBB1F621773078407BA07DD
:1018400020F0621B730B840BBA0BEE1F88F7E09538
:1018500008950E94300C6894B1110C948A0D08957B
:101860000E94570D88F09F5798F0B92F9927B751CC
:10187000B0F0E1F0660F771F881F991F1AF0BA9534
:10188000C9F714C0B13091F00E94890DB1E00895FC
:101890000C94890D672F782F8827B85F39F0B93FEE
:1018A000CCF3869577956795B395D9F73EF49095E7
:1018B0008095709561957F4F8F4F9F4F0895E89465
:1018C00009C097FB3EF490958095709561957F4F88
:1018D0008F4F9F4F9923A9F0F92F96E9BB27939536
:1018E000F695879577956795B795F111F8CFFAF446
:1018F000BB0F11F460FF1BC06F5F7F4F8F4F9F4F77
:1019000016C0882311F096E911C0772321F09EE8D4
:10191000872F762F05C0662371F096E8862F70E03A
:1019200060E02AF09A95660F771F881FDAF7880F14
:101930009695879597F908950E94710D90F09F37BD
:1019400048F4911116F00C948A0D60E070E080E884
:101950009FEB089526F41B16611D711D811D0C94CB
:10196000DD0C0C94F80C990F0008550FAA0BE0E859
:10197000FEEF16161706E807F907C0F01216130651
:10198000E407F50798F0621B730B840B950B39F491
:101990000A2661F0232B242B252B21F408950A26F7
:1019A00009F4A140A6958FEF811D811D089597F937
:1019B0009F6780E870E060E00895882371F47723E2
:1019C00021F09850872B762F07C0662311F49927B2
:1019D0000DC09051862B70E060E02AF09A95660F5A
:1019E000771F881FDAF7880F9695879597F90895DE
:1019F0009F3F31F0915020F4879577956795B79583
:101A0000880F911D9695879597F908959FEF80EC23
:101A10000895DF93CF931F930F93FF92EF92DF927E
:101A20007B018C01689406C0DA2EEF010E94B00D94
:101A3000FE01E894A5912591359145915591A6F324
:101A4000EF010E94D40AFE019701A801DA9469F718
:101A5000DF90EF90FF900F911F91CF91DF9108954C
:101A600000240A941616170618060906089500247D
:101A70000A9412161306140605060895092E0394F7
:101A8000000C11F4882352F0BB0F40F4BF2B11F46B
:101A900060FF04C06F5F7F4F8F4F9F4F089557FDCA
:101AA0009058440F551F59F05F3F71F04795880FCC
:101AB00097FB991F61F09F3F79F087950895121663
:101AC00013061406551FF2CF4695F1DF08C016160F
:101AD00017061806991FF1CF8695710561050894C0
:101AE00008950E94570DA0F0BEE7B91788F4BB27F0
:101AF0009F3860F41616B11D672F782F8827985FDE
:101B0000F7CF869577956795B11D93959639C8F36C
:101B10000895E894BB2766277727CB0197F90895A6
:101B20000E94B30C08F48FEF08959B01AC0160E0B4
:101B300070E080E89FE30C94B70B0E94B00D0C940A
:101B40003E0D0E94300D38F00E94370D20F0952395
:101B500011F00C94D70C0C94060D11240C948A0DE2
:101B60000E944F0D70F3959FC1F3950F50E0551FE4
:101B7000629FF001729FBB27F00DB11D639FAA27E2
:101B8000F00DB11DAA1F649F6627B00DA11D661F31
:101B9000829F2227B00DA11D621F739FB00DA11D52
:101BA000621F839FA00D611D221F749F3327A00D0C
:101BB000611D231F849F600D211D822F762F6A2FA8
:101BC00011249F5750409AF0F1F088234AF0EE0F0D
:101BD000FF1FBB1F661F771F881F91505040A9F73A
:101BE0009E3F510580F00C94D70C0C948A0D5F3FFA
:101BF000E4F3983ED4F3869577956795B795F79576
:101C0000E7959F5FC1F7FE2B880F911D96958795ED
:101C100097F908959B01AC010C949D0D0E94B30CA3
:101C2000880B990B0895A1E21A2EAA1BBB1BFD017C
:101C30000DC0AA1FBB1FEE1FFF1FA217B307E407AB
:101C4000F50720F0A21BB30BE40BF50B661F771F03
:101C5000881F991F1A9469F76095709580959095E3
:0E1C60009B01AC01BD01CF010895F894FFCFA8
:00000001FF
