:100000000C94CC000C943F0A0C94E9000C94E90089
:100010000C94E9000C94E9000C94E9000C94E900BC
:100020000C94E9000C94630A0C94E9000C94E90028
:100030000C94E9000C94E9000C94E9000C94E9009C
:100040000C94E9000C94E9000C94E9000C94E9008C
:100050000C94E9000C94E9000C94E9000C94E9007C
:100060000C94E9000C94E900084AD73B3BCE016EA2
:1000700084BCBFFDC12F3D6C74319ABD56833DDAFF
:100080003D00C77F11BED9E4BB4C3E916BAAAABE0E
:10009000000000803F006E616E00696E66000040E7
:1000A0007A10F35A00A0724E18090010A5D4E80087
:1000B00000E87648170000E40B54020000CA9A3B9F
:1000C000000000E1F5050000809698000000404225
:1000D0000F000000A08601000000102700000000B3
:1000E000E803000000006400000000000A000000B7
:1000F00000000100000000002C76D888DC674F0863
:1001000023DFC1DFAE59E1B1B796E5E3E453C63A68
:10011000E651997696E8E6C28426EB898C9B62EDDF
:10012000407C6FFCEFBC9C9F40F2BAA56FA5F49099
:10013000055A2AF75C936B6CF9676DC11BFCE0E410
:100140000D47FEF520E6B500D0ED902E0300943566
:1001500077050080841E080000204E0A000000C8B9
:100160000C333333330F986E12831141EF8D21140A
:10017000893BE65516CFFEE6DB18D1844B381BF7DA
:100180007C1D901DA4BBE424203284725E22810079
:10019000C9F124ECA1E53D2711241FBECFEFD8E023
:1001A000DEBFCDBF12E0A0E0B1E0E2ECFBE202C0B6
:1001B00005900D92A030B107D9F722E0A0E0B2E09F
:1001C00001C01D92A334B207E1F70E941E040C94F3
:1001D000DF150C9400001092050210920402809327
:1001E0000602682F8CE00E9489070895CF93DF9361
:1001F000EA01209106022E3ED1F118F42E3B31F097
:1002000040C0203F89F0213F29F03BC080EF0E9491
:10021000EB003AC09B01AC010E94A00E8823A1F123
:1002200080EF0E94EB0030C09B01AC010E94A00E49
:10023000811104C081EF0E94EB0026C09881898162
:10024000892B21F08EEE0E94EB001EC080910402EB
:10025000909105028431910530F401969093050246
:100260008093040211C08EEE0E94EB000DC09B0132
:10027000AC010E94A00E811107C081EF0E94EB002B
:1002800003C08EEB0E94EB00DF91CF9108958F9217
:100290009F92AF92BF92CF92DF92EF92FF920F9315
:1002A0001F93CF93DF9300D0CDB7DEB70E949C069B
:1002B0006B017C0180E00E94FF06898381E00E943F
:1002C000FF068A83AE014F5F5F4FC701B6010E94F0
:1002D000F600809106028E3E09F45EC018F48E3B53
:1002E00039F00CC1803F09F440C0813F49F006C19C
:1002F0000E94800791E0811190E090931602FEC069
:1003000011E020E030E0A901C701B6010E94220EF1
:1003100018160CF010E01093160200E010E098019F
:10032000B701A60180E00E945C086B017C0120E01F
:1003300030E04FE753E40E944F0B0E94BB0CCB010F
:100340000E9490058C01A701960160E070E08FE7A4
:1003500093E40E944E0B0E94BB0CCB010E949005BF
:10036000BC01C8010E940E06C9C08091160281110D
:1003700007C06894EE24E7F8F12C00E010E004C018
:10038000E12CF12C00E810E080E00E940F09B70199
:10039000C8010E940E06B2C060E470E080E490E004
:1003A0000E940E0680E00E94FF06811106C081E0D7
:1003B0000E94FF06882309F49EC08AE291E00E9411
:1003C0000D1480E00E94FF06082F10E0F12CE12CB4
:1003D000D12C18C08FE19EE40197F1F700C0000016
:1003E0002BE634E643E25CE3612F7F2D8E2D9D2DBD
:1003F0000E944F0B162FF72EE82ED92E84E591E0A0
:100400000E940D1480E00E94FF06882319F381E00A
:100410000E94FF068823F1F260E070E080E090E047
:100420000E940E069FEF20E782E09150204080401E
:10043000E1F700C0000026E031E845E95DE3612F07
:100440007F2D8E2D9D2D0E94CE0B9B01AC016BED5F
:100450007FE089E490E40E944E0B4B015C01DF9247
:10046000EF92FF921F9388E791E09F938F930E94F2
:10047000F01320E030E044E353E4C501B4010E94EE
:100480002F0E2BED3FE049E450E40E94490C9F936E
:100490008F937F936F938FE891E09F938F930E9448
:1004A000F01360EC7FEF80EC9FEF0E940E069FEF51
:1004B00022E587E0915020408040E1F700C0000035
:1004C00060E070E080E090E00E940E069FEF20E781
:1004D00082E0915020408040E1F700C0000020E41D
:1004E00030E0402FC501B4010E949B070FB6F8947D
:1004F000DEBF0FBECDBF80E00E940F090F900F90AE
:10050000DF91CF911F910F91FF90EF90DF90CF90EF
:10051000BF90AF909F908F900895809331028A355D
:10052000A1F028F48035D9F08535A1F01DC0803FB9
:1005300039F0863FC9F460EF8AE00E94890717C04E
:1005400060EF8AE00E94890712C06AE58AE00E9493
:1005500089070DC065E58AE00E94890708C060EF41
:100560008AE00E94890703C086EF0E948D0280E026
:100570000E94EB000895682F6E7F6093360281E041
:10058000860F80930A028BE00E9489070895CF931B
:10059000DF9380913102853531F0863F39F480EF69
:1005A0000E948D0203C080E50E948D020E94250AF0
:1005B0008823D1F10E942A0AC82F0E94390AD82F15
:1005C000809131028A35C9F0803F71F5C73061F4FE
:1005D00080910A02D81324C08AE50E948D0220C0AF
:1005E00085E50E948D0220C0CB30F1F486EF0E9499
:1005F0008D028D2F0E94BB0217C0C73041F480913D
:100600003602D81311C085E50E948D020DC0CB3093
:1006100059F486EF0E948D028D2F0E94BB0204C008
:1006200080913602D817E1F2DF91CF9108952F9291
:100630003F924F925F926F927F928F929F92AF9272
:10064000BF92CF92DF92EF92FF920F931F93CF93BF
:10065000DF93CDB7DEB7A5970FB6F894DEBF0FBE18
:10066000CDBF49015A012701380124E2E6E0F1E05B
:10067000DE01119601900D922A95E1F7A5019401F2
:100680000E944E0B6B017C0120E030E040E85FE30C
:10069000C301B2010E944F0BA50194010E944E0BB1
:1006A0009B01AC01C701B6010E94490C20E030E07B
:1006B00040E451E40E942F0E4B015C010E942E0D7C
:1006C0006B017C010E94C20C70E08B01000F111FB6
:1006D000600F711F01E010E00C0F1D1F060F171FA8
:1006E000C501B4010E942D0C0E94C20C8BEA689FC8
:1006F000812D1124869586958695982F990F890FBF
:10070000880F880F681B70E01B01220C331C260E1B
:10071000371E81E090E08C0F9D1F280E391EA70127
:100720009601C501B4010E944E0B6B017C019B0137
:10073000AC0160E070E080E89FE30E944E0B4B014B
:100740005C01F801618170E080E090E00E94F30CB0
:10075000A50194010E942F0E2B013C01F101618142
:1007600070E080E090E00E94F30CA70196010E94E7
:100770002F0E9B01AC01C301B2010E944F0B0E94DE
:10078000C20C6DA3F801628170E080E090E00E94ED
:10079000F30CA50194010E942F0E2B013C01F101E5
:1007A000628170E080E090E00E94F30CA701960166
:1007B0000E942F0E9B01AC01C301B2010E944F0B9E
:1007C0000E94C20C762EF801608170E080E090E01B
:1007D0000E94F30CA50194010E942F0E4B015C01B5
:1007E000F101608170E080E090E00E94F30CA701CD
:1007F00096010E942F0E9B01AC01C501B4010E941D
:100800004F0B0E94C20C7DA1872DA5960FB6F894C0
:10081000DEBF0FBECDBFDF91CF911F910F91FF9033
:10082000EF90DF90CF90BF90AF909F908F907F9090
:100830006F905F904F903F902F90089560E076E921
:1008400080E090E00E94990A0E944109C12CD12CBD
:1008500076019701860140E050E861E373E480E0AF
:100860000E941A0863E082E00E941C0664EF71E0B7
:1008700086E00E9469070E9443060E947D070E944D
:1008800086078BE00E9493070E94BB028AE00E94C9
:1008900093070E948D028CE00E9493070E94EB0058
:1008A0000F2EF4EA8F2EF1E09F2EF02D0F2EF5EC97
:1008B000AF2EF1E0BF2EF02D0F2EF5EDCF2EF1E093
:1008C000DF2EF02DCCEED1E00E94C70280913102E4
:1008D0008A3509F491C020F4853509F495C09FC08C
:1008E000803F09F442C0863F09F099C060E070E0A3
:1008F00080E090E00E940E0640E065EA8FEF0E94E3
:100900003D0B2FE788E391E0215080409040E1F7D4
:1009100000C0000040E060E080E00E943D0B2FE757
:1009200088E391E0215080409040E1F700C0000052
:1009300040E065EA8FEF0E943D0B2FE788E391E0EE
:10094000215080409040E1F700C0000040E060E0AE
:1009500080E00E943D0B2FE788E391E0215080402A
:100960009040E1F700C000005AC060E070E080E015
:1009700090E00E940E066091000270910102809149
:10098000020290910302E12CF12C0AE714E420E02A
:1009900030E0A9010E9417032AE939E949E95EE339
:1009A0000E94D20A0E94450B20E030E040EA50E469
:1009B0006091000270910102809102029091030205
:1009C0000E944F0B2B013C01A80197010E94220EAF
:1009D00018164CF0409200025092010260920202FE
:1009E000709203021CC01092000210920102109239
:1009F00002021092030213C040E064E680E00E940D
:100A00003D0B0E9447010BC060E070E080E090E089
:100A10000E940E0640E060E084E60E943D0B8AE002
:100A200090E00E940614809106021F928F9380919D
:100A300031021F928F939F928F920E94F01381E058
:100A40000E947F05182F092F80E00E947F050F93D9
:100A50001F939F938F93BF92AF920E94F01384E0F5
:100A60000E948006E82E83E00E948006F82E82E035
:100A70000E948006082F81E00E948006182F80E0E7
:100A80000E9480061F92EF921F92FF921F920F9377
:100A90001F921F931F928F93DF92CF920E94F013A9
:100AA00081E00E94DD06E82E792E80E00E94DD06BE
:100AB000082FF92E81E00E94FF06182F80E00E9487
:100AC000FF067F92EF92FF920F931F921F931F9248
:100AD0008F93DF93CF930E94F0139FE728E381E089
:100AE000915020408040E1F700C000008DB79EB7D4
:100AF00082960FB6F8949EBF0FBE8DBFE5CE8111D2
:100B000005C080913202909133020895813029F41A
:100B1000809134029091350208958FEF9FEF0895F0
:100B20008F3F910519F014F08FEF90E081302FEF97
:100B3000920714F481E09FEF0895811108C0CB0162
:100B40000E949005909333028093320238C0813026
:100B500041F4CB010E9490059093350280933402BA
:100B600005C0882361F1813009F057C080913802B7
:100B7000873011F417BC08956091340270913502EA
:100B8000072E000C880B990B0E94F30C9F770E9494
:100B9000C20C67BD81E090913802923009F480E088
:100BA00091E02091340230913502121613060CF0B8
:100BB00090E0891711F05F9A08955F9808958091E9
:100BC0003702873029F41092890010928800089526
:100BD0006091320270913302072E000C880B990B42
:100BE0000E94F30C9F770E94C20C7093890060935F
:100BF000880081E090913702923009F480E091E022
:100C00002091320230913302121613060CF090E05C
:100C1000891711F02A9A08952A980895CF93DF939F
:100C2000EB01BC0180E00E949D05BE0181E00E94B5
:100C30009D05DF91CF910895E7E3F2E08083618322
:100C4000E2E3F2E011821082138212828AB1806C98
:100C50008AB984B1866084B984B5836884BD85B55A
:100C6000816085BDE0E8F0E0808181688083E1E813
:100C7000F0E080818960808360E070E080E090E057
:100C80000E940E06089587B1877C87B984B18F735F
:100C900084B988B1886388B985B1806C85B90895B5
:100CA0008230C1F028F4882341F0813069F026C0F9
:100CB0008330B9F08430D9F021C086B183FB992705
:100CC00090F981E08927089586B18295817091E03D
:100CD0008927089586B185FB992790F981E08927B6
:100CE000089583B18095881F8827881F089583B150
:100CF00086FB992790F981E08927089580E008957F
:100D0000FF920F931F93CF93DF93F82ECAE0D0E0AA
:100D100000E010E08F2D0E945006080F111D219752
:100D2000C9F781E0073011050CF480E0DF91CF9125
:100D30001F910F91FF9008958F929F92AF92BF9253
:100D4000CF92DF92EF92FF920F931F93CF930EEF0C
:100D50001FEFC0E0C12CD12CE12CF12C8C2F0E9474
:100D60008006882329F08FEFE81AF80AC00ED11EFA
:100D7000CF5F0F5F1F4FC53089F7B601DD0C880BC1
:100D8000990B0E94F30C4B015C01B701FF0C880B1F
:100D9000990B0E94F30C9B01AC01C501B4010E94A8
:100DA000490CCF911F910F91FF90EF90DF90CF9062
:100DB000BF90AF909F908F900895ECE7F0E0908106
:100DC000907F9083882319F0813039F00BC0ECE7D5
:100DD000F0E080818260808305C0ECE7F0E08081F4
:100DE00081608083EAE7F0E0808180648083808195
:100DF00086FDFDCF809178009091790008959F92B3
:100E0000AF92BF92CF92DF92EF92FF920F931F9318
:100E1000CF93DF93982E05E010E0E12CF12CCC2449
:100E2000C394D12CA12CB12CC0910702D0E0892D04
:100E30000E94DD062C2D3D2D40911402509115028B
:100E40008417950710F02A2D3B2D8C2D9D2D2C17E6
:100E50003D0711F08A2D9B2DE80EF91E0150110956
:100E600019F781E093E0E916F1040CF480E0DF91DA
:100E7000CF911F910F91FF90EF90DF90CF90BF9097
:100E8000AF909F900895CF93853041F0863049F020
:100E90008430D1F481E08093070219C010920702D8
:100EA00016C080E00E94FF06C82F81E00E94FF0666
:100EB000C81306C081E0C11180E08093070207C01B
:100EC00084E00E94430703C084E00E944307CF915F
:100ED0000895ECE7F0E0908190649083EAE7F0E019
:100EE00090819068908391E090930702709315022F
:100EF000609314020E944307089524982C9A089541
:100F000083B18295817091E0892708953898409A3D
:100F10000895F999FECF1FBA90E092BD81BD60BDE2
:100F2000FA9AF99A0895F999FECF90E092BD81BDA1
:100F3000F89A80B50895CF92DF92EF92FF921F93B7
:100F4000CF93DF93142FE9012AE939E949E15DE301
:100F50000E942F0E9B01AC010E944F0B24E134E74D
:100F600047EC5DE30E94490C6B017C01BE010D2E34
:100F7000000C880B990B0E94F30C2AE037ED43E23A
:100F80005EE30E942F0E9B01AC01C701B6010E94D7
:100F9000490C6B017C01112341F0662777276C1BFC
:100FA0007D0BCE010E940E0607C0BE01882799273F
:100FB0008C1B9D0B0E940E0620E030E048EC52E4B2
:100FC000C701B6010E942F0E6B017C0120E030E0CA
:100FD000A9010E94220E1816B4F4C0E0D0E08FE1FF
:100FE0009EE40197F1F700C000002196BE010D2E8E
:100FF000000C880B990B0E94F30CA70196010E942C
:10100000440C882364F360E070E080E090E00E948C
:101010000E069FEF20E782E0915020408040E1F7EC
:1010200000C00000DF91CF911F91FF90EF90DF9003
:10103000CF900895CF92DF92EF92FF920F931F937C
:1010400090E0FC01EE0FFF1FDF01A80FB91FAA0FF0
:10105000BB1FAA0FBB1FAA0FBB1FA75EBD4F4D939F
:101060005D936D937C93139714960D931D932D931D
:101070003C9317971896CD92DD92ED92FC921B97B8
:1010800040E050E060E87FE354964D935D936D93AC
:101090007C93579750961D921D921D921C925397C8
:1010A000FD0114861586168617861F910F91FF90F5
:1010B000EF90DF90CF9008952F923F924F925F92E2
:1010C0006F927F928F929F92AF92BF92CF92DF9258
:1010D000EF92FF920F931F93CF93DF9300D000D036
:1010E00000D0CDB7DEB78983CB01BA01A901980141
:1010F0000E944E0B6B017C018981082F10E01801C2
:10110000220C331CF101E00FF11FEE0FFF1FEE0F59
:10111000FF1FEE0FFF1FE75EFD4FFE83ED83848808
:101120009588A688B7882485358546855785C70163
:10113000B6010E944E0BA50194010E94490C6983DF
:101140007A838B839C83A5019401C701B6010E9419
:101150002F0EED81FE8120893189428953890E94B9
:101160004F0B4B015C01ED81FE81608B718B828B9B
:10117000938B2081318142815381C701B6010E9446
:101180002F0E2B013C01ED81FE81248135814681AA
:101190005781C501B4010E942F0E9B01AC01C30110
:1011A000B2010E944F0B4B015C01ED81FE81208555
:1011B00031854285538569817A818B819C810E942A
:1011C0002F0E9B01AC01C501B4010E944F0BF10130
:1011D000E00FF11FEE0FFF1FEE0FFF1FEE0FFF1FBF
:1011E000E75EFD4FC486D586E686F78626960FB65F
:1011F000F894DEBF0FBECDBFDF91CF911F910F914D
:10120000FF90EF90DF90CF90BF90AF909F908F9026
:101210007F906F905F904F903F902F90089590E057
:10122000FC01EE0FFF1FDF01A80FB91FAA0FBB1FA4
:10123000AA0FBB1FAA0FBB1FA75EBD4F50961D92E2
:101240001D921D921C925397FD01148615861686D9
:101250001786089510920B028EE090E0909318028A
:101260008093170210920902109208021092110244
:101270001092100285E090E0909313028093120286
:10128000089552985A9AE89AE9E6F0E080818160E0
:10129000808380818D7F8083E1EBF0E080818160BD
:1012A0008083E0E7F0E080818160808378940E9411
:1012B0002A0908958091100290911102019690934D
:1012C00011028093100208951F93CF93DF9300D0F3
:1012D00000D0CDB7DEB72091B20080E090E09091D1
:1012E0001002820F911D96958795969587954A993C
:1012F00002C010E001C012E09C012D563A402F3E82
:10130000364010F41C5F07C088579340833F9640D7
:1013100010F00E942A092091120230911302253008
:10132000310519F580911702909118020197909359
:10133000180280931702209108023091090241E0BF
:1013400050E0BA0102C0660F771F8A95E2F7CB0121
:10135000822B932B909309028093080250931302DF
:10136000409312021092B20068C081E0898381E943
:101370008A838BE98B838BEF8C83FE01E20FF31F53
:10138000818190E002C0959587951A95E2F7AC01AE
:10139000437055272417350719F0243031051CF008
:1013A0000E942A094AC0509313024093120242300D
:1013B000510561F480911702909118020197909362
:1013C000180280931702892B91F528C041305105EE
:1013D000E9F48091170290911802019790931802F6
:1013E00080931702209108023091090241E050E0F9
:1013F000BA0102C0660F771F8A95E2F7CB01822BF4
:10140000932B909309028093080211C02091170238
:1014100030911802232B59F480FD09C086E090E03A
:10142000909313028093120281E080930B0210923A
:10143000B20010921102109210020F900F900F90B4
:101440000F90DF91CF911F91089580910B02109220
:101450000B02089580910802909109020024880FE0
:10146000991F001C880F991F001C892F902D8F71C8
:10147000089580910802909109028F7308951F9238
:101480000F920FB60F9211242F933F934F935F93B8
:101490006F937F938F939F93AF93BF93EF93FF933C
:1014A0000E946409FF91EF91BF91AF919F918F913D
:1014B0007F916F915F914F913F912F910F900FBE50
:1014C0000F901F9018951F920F920FB60F92112434
:1014D0002F933F934F935F936F937F938F939F933C
:1014E000AF93BF93EF93FF930E945A09FF91EF913F
:1014F000BF91AF919F918F917F916F915F914F912C
:101500003F912F910F900FBE0F901F901895E0EC18
:10151000F0E0908195FFFDCF8093C60090E00895A4
:10152000E0ECF0E080818823ECF78091C60090E049
:101530000895DC01CB01880F991FAA1FBB1F880FDC
:10154000991FAA1FBB1F9C01AD01220F331F441F0F
:10155000551F220F331F441F551F60E072E18AE7B9
:1015600090E00E942212DA01C9010197A109B10994
:101570008093C400892F9A2FAB2FBB278093C5007F
:1015800088E18093C100E2ECF0E08081806180839B
:1015900080818660808360E97AE087E89AE00E9433
:1015A00069130895CF92DF92EF92FF921F93CF932A
:1015B000DF93C62FD82F69017A01672F70E080E092
:1015C00090E00E94F30CA70196010E942F0E0E944A
:1015D000C20C162F6D2F70E080E090E00E94F30C9B
:1015E000A70196010E942F0E0E94C20CD62F6C2FCD
:1015F00070E080E090E00E94F30CA70196010E9449
:101600002F0E0E94C20C712F8D2FDF91CF911F9151
:10161000FF90EF90DF90CF900895CF93DF932898BD
:10162000209AF8948CE092E0EC01099006D00990A1
:1016300004D009900E941D0B12C008D007D006D01C
:1016400005D004D003D002D001D00895001C289A00
:1016500008F028980000000008F428980895C09326
:101660000C02D0930D02E0930E027894D5EDDA953A
:10167000F1F70000DF91CF910895ECE0F2E0808374
:10168000618342830E940D0B089560930C02709356
:101690000D0280930E020E940D0B08955058BB2737
:1016A000AA270E94660B0C94D00D0E94C20D38F040
:1016B0000E94C90D20F039F49F3F19F426F40C94D0
:1016C000980D0EF4E095E7FB0C94690DE92F0E944C
:1016D000E10D58F3BA17620773078407950720F0E6
:1016E00079F4A6F50C941B0E0EF4E0950B2EBA2F90
:1016F000A02D0B01B90190010C01CA01A001112418
:10170000FF27591B99F0593F50F4503E68F11A16C3
:10171000F040A22F232F342F4427585FF3CF469554
:1017200037952795A795F0405395C9F77EF41F1676
:10173000BA0B620B730B840BBAF09150A1F0FF0F40
:10174000BB1F661F771F881FC2F70EC0BA0F621F2C
:10175000731F841F48F4879577956795B795F7951C
:101760009E3F08F0B0CF9395880F08F09927EE0FB1
:101770009795879508950E94C20D60F080E891E0EA
:1017800009F49EEF0E94C90D28F040E851E071F481
:101790005EEF0CC00C94980D0C941B0EE92FE078B2
:1017A0000E94E10D40F3092E052AB1F326173707F1
:1017B0004807590738F00E2E07F8E02569F0E025B4
:1017C000E0640AC0EF6307F8009407FADB01B9018F
:1017D0009D01DC01CA01AD01EF930E94600C0E94E3
:1017E000D00D0E94FE0B5F91552339F02BED3FE0A9
:1017F00049E450FD49EC0C944F0B0895DF93DD272D
:10180000B92FBF7740E85FE31616170648075B0756
:1018100018F4D92F0E94270E9F938F937F936F9375
:101820000E949C0EE8E6F0E00E949B0D0E94D00D05
:101830002F913F914F915F910E94420EDD2351F015
:101840009058A2EA2AED3FE049EC5FE3D0785D27AB
:101850000E94660BDF910C94D00D0E94030E90F055
:101860009F3748F4911116F40C941C0E60E070E060
:1018700080E89FE3089526F01B16611D711D811DF0
:101880000C946F0D0C948A0D0E94450D08F481E0B4
:1018900008950E945D0C0C94D00D0E94C90D58F063
:1018A0000E94C20D40F029F45F3F29F00C94690DAD
:1018B00051110C941C0E0C94980D0E94E10D68F3CC
:1018C0009923B1F3552391F3951B550BBB27AA27F9
:1018D00062177307840738F09F5F5F4F220F331F33
:1018E000441FAA1FA9F335D00E2E3AF0E0E832D0FB
:1018F00091505040E695001CCAF72BD0FE2F29D0FE
:10190000660F771F881FBB1F261737074807AB07CF
:10191000B0E809F0BB0B802DBF01FF2793585F4F44
:101920003AF09E3F510578F00C94690D0C941C0E12
:101930005F3FE4F3983ED4F3869577956795B79526
:10194000F7959F5FC9F7880F911D9695879597F931
:101950000895E1E0660F771F881FBB1F62177307AA
:101960008407BA0720F0621B730B840BBA0BEE1FBF
:1019700088F7E09508950E94C20C6894B1110C9408
:101980001C0E08950E94E90D88F09F5798F0B92F1A
:101990009927B751B0F0E1F0660F771F881F991FA4
:1019A0001AF0BA95C9F714C0B13091F00E941B0E1D
:1019B000B1E008950C941B0E672F782F8827B85F2D
:1019C00039F0B93FCCF3869577956795B395D9F7FC
:1019D0003EF490958095709561957F4F8F4F9F4F06
:1019E0000895E89409C097FB3EF490958095709512
:1019F00061957F4F8F4F9F4F9923A9F0F92F96E95B
:101A0000BB279395F695879577956795B795F111CF
:101A1000F8CFFAF4BB0F11F460FF1BC06F5F7F4F6C
:101A20008F4F9F4F16C0882311F096E911C077237E
:101A300021F09EE8872F762F05C0662371F096E887
:101A4000862F70E060E02AF09A95660F771F881F56
:101A5000DAF7880F9695879597F908950E94030EF7
:101A600090F09F3748F4911116F00C941C0E60E032
:101A700070E080E89FEB089526F41B16611D711D30
:101A8000811D0C946F0D0C948A0D990F0008550F51
:101A9000AA0BE0E8FEEF16161706E807F907C0F0F4
:101AA00012161306E407F50798F0621B730B840BFC
:101AB000950B39F40A2661F0232B242B252B21F4D6
:101AC00008950A2609F4A140A6958FEF811D811D76
:101AD000089597F99F6780E870E060E00895882393
:101AE00071F4772321F09850872B762F07C0662357
:101AF00011F499270DC09051862B70E060E02AF018
:101B00009A95660F771F881FDAF7880F9695879545
:101B100097F908959F3F31F0915020F4879577957C
:101B20006795B795880F911D9695879597F90895B4
:101B30009FEF80EC0895DF93CF931F930F93FF9255
:101B4000EF92DF927B018C01689406C0DA2EEF01E0
:101B50000E94420EFE01E894A59125913591459190
:101B60005591A6F3EF010E94660BFE019701A801B3
:101B7000DA9469F7DF90EF90FF900F911F91CF916A
:101B8000DF91089500240A94161617061806090610
:101B9000089500240A9412161306140605060895E3
:101BA000092E0394000C11F4882352F0BB0F40F46B
:101BB000BF2B11F460FF04C06F5F7F4F8F4F9F4FAB
:101BC000089557FD9058440F551F59F05F3F71F02D
:101BD0004795880F97FB991F61F09F3F79F0879594
:101BE0000895121613061406551FF2CF4695F1DF1D
:101BF00008C0161617061806991FF1CF86957105AD
:101C00006105089408950E94E90DA0F0BEE7B91798
:101C100088F4BB279F3860F41616B11D672F782F04
:101C20008827985FF7CF869577956795B11D93952F
:101C30009639C8F30895E894BB2766277727CB0128
:101C400097F908950E94450D08F48FEF08959B01C0
:101C5000AC0160E070E080E89FE30C94490C0E94C6
:101C6000420E0C94D00D0E94C20D38F00E94C90D96
:101C700020F0952311F00C94690D0C94980D11240B
:101C80000C941C0E0E94E10D70F3959FC1F3950F0B
:101C900050E0551F629FF001729FBB27F00DB11DF0
:101CA000639FAA27F00DB11DAA1F649F6627B00D80
:101CB000A11D661F829F2227B00DA11D621F739F69
:101CC000B00DA11D621F839FA00D611D221F749F77
:101CD0003327A00D611D231F849F600D211D822FBE
:101CE000762F6A2F11249F5750409AF0F1F08823E5
:101CF0004AF0EE0FFF1FBB1F661F771F881F915012
:101D00005040A9F79E3F510580F00C94690D0C944A
:101D10001C0E5F3FE4F3983ED4F386957795679564
:101D2000B795F795E7959F5FC1F7FE2B880F911D3B
:101D30009695879597F908959B01AC010C942F0E09
:101D40000E94450D880B990B0895A0E1B0E0EBEAE5
:101D5000FEE00C9444127C011B016A01FC01178215
:101D60001682838181FF44C39E012F5F3F4F39015B
:101D7000F7019381F10193FD859193FF81911F01FB
:101D8000882309F431C3853239F493FD859193FF9B
:101D900081911F01853239F4B70190E00E94B4139C
:101DA00056016501E5CF10E0512C912CFFE1F915AA
:101DB000D8F08B3279F038F4803279F08332A1F4A4
:101DC000F92DF0612EC08D3261F0803369F4292D38
:101DD00021602DC0392D3260932E892D8460982E7C
:101DE0002AC0E92DE86015C097FC2DC020ED280F12
:101DF0002A3088F496FE06C03AE0139F200D112485
:101E0000122F19C08AE0589E200D1124522EE92D60
:101E1000E0629E2E10C08E3231F496FCE5C2F92DA0
:101E2000F0649F2E08C08C3621F4292D2068922E54
:101E300002C0883641F4F10193FD859193FF8191B1
:101E40001F018111B3CF9BEB980F933020F4992D94
:101E50009061805E07C09BE9980F933008F066C1DF
:101E6000992D9F7E96FF16E09F73992E853619F463
:101E70009064992E08C0863621F4392F3068932E4D
:101E800002C01111115097FE07C01C3350F44424B6
:101E90004394410E27E00BC0183038F027E017E0DC
:101EA00005C027E09CE3492E02C0212F412C56019A
:101EB00084E0A80EB11CF60160817181828193815A
:101EC000042DA3010E947B126C01F981FC87F0FFB5
:101ED00002C0F3FF06C091FC06C092FE06C000E2FD
:101EE00005C00DE203C00BE201C000E08C858C70E0
:101EF00019F001115AC29BC297FE10C04C0CFC8510
:101F0000F4FF04C08A81813309F44A94141474F5EF
:101F100028E0241578F588E0482E2CC096FC2AC0CD
:101F2000812F90E08C159D059CF03CEFC3163FEF90
:101F3000D30674F0892D8068982E0AC0E2E0F0E0A4
:101F4000EC0FFD1FE10FF11D8081803319F411505A
:101F50001111F4CF97FE0EC044244394410E812FFB
:101F600090E0C816D9062CF41C1904C044244394EC
:101F700001C010E097FE06C01C141D0434F4C60115
:101F8000019605C085E090E002C081E090E001117B
:101F90000196112331F0212F30E02F5F3F4F820F48
:101FA000931F252D30E08217930714F4581A01C0AF
:101FB000512C892D897049F4552039F0B70180E200
:101FC00090E00E94B4135A94F7CF002329F0B70190
:101FD000802F90E00E94B41393FC09C0552039F083
:101FE000B70180E390E00E94B4135A94F7CF97FEB4
:101FF0004CC04601D7FE02C0812C912CC601881925
:102000009909F301E80FF91FFE87ED87960124195E
:102010003109388B2F87012F10E011950195110997
:102020003FEF8316930629F4B7018EE290E00E94F9
:10203000B413C814D9044CF08F8598898815990574
:1020400024F4ED85FE85818101C080E3F1E08F1AE3
:1020500091082D853E852F5F3F4F3E872D87801647
:1020600091062CF0B70190E00E94B413D9CFC814A8
:10207000D90441F49A81963320F4953319F43C85C0
:1020800034FF81E3B70190E04EC08A81813319F0BB
:102090009C859F7E9C87B70190E00E94B41311112C
:1020A00005C094FC18C085E690E017C0B7018EE229
:1020B00090E00E94B4131E5F82E001E0080FF3017C
:1020C000E80FF11D8081B70190E00E94B413802FCA
:1020D0000113F3CFE6CF85E490E0B7010E94B4137B
:1020E000D7FC06C0C114D10441F4EC85E4FF05C05F
:1020F000D194C194D1088DE201C08BE2B70190E088
:102100000E94B41380E32AE0C216D1042CF08F5F42
:10211000FAE0CF1AD108F7CFB70190E00E94B413CC
:10212000B701C601C0960E94B41354C1833631F082
:10213000833779F0833509F056C020C0560132E06C
:10214000A30EB11CF6018081898301E010E06301D8
:1021500012C05601F2E0AF0EB11CF601C080D18072
:1021600096FE03C0612F70E002C06FEF7FEFC601E3
:102170000E945E138C01F92DFF7714C0560122E0F6
:10218000A20EB11CF601C080D18096FE03C0612F63
:1021900070E002C06FEF7FEFC6010E9453138C0105
:1021A000F92DF0689F2EF3FD1AC0852D90E00817D9
:1021B0001907A8F4B70180E290E00E94B4135A9482
:1021C000F4CFF60197FC859197FE81916F01B701DD
:1021D00090E00E94B41351105A9401501109011556
:1021E000110579F7F7C0843611F0893661F556018B
:1021F00097FE09C024E0A20EB11CF6016081718136
:10220000828193810AC0F2E0AF0EB11CF6016081B9
:102210007181072E000C880B990BF92DFF769F2EEC
:1022200097FF09C090958095709561957F4F8F4F6E
:102230009F4FF0689F2E2AE030E0A3010E943D14DA
:10224000C82EC6183FC0092D853721F40F7E2AE01D
:1022500030E01DC0097F8F3691F018F4883559F0B1
:10226000C3C0803719F0883711F0BEC0006104FF89
:1022700009C0046007C094FE08C0066006C028E0DC
:1022800030E005C020E130E002C020E132E056013C
:1022900007FF09C084E0A80EB11CF60160817181BE
:1022A0008281938108C0F2E0AF0EB11CF60160811B
:1022B000718180E090E0A3010E943D14C82EC618F1
:1022C0000F77902E96FE0BC0092D0E7FC11650F48D
:1022D00094FE0AC092FC08C0092D0E7E05C0DC2CBD
:1022E000092D03C0DC2C01C0D12E04FF0DC0FE015E
:1022F000EC0DF11D8081803311F4097E09C002FFCD
:1023000006C0D394D39404C0802F867809F0D39468
:1023100003FD11C000FF06C01C2DD51480F4150D5F
:102320001D190DC0D51458F4B70180E290E00E9449
:10233000B413D394F7CFD51410F45D1801C0512C09
:1023400004FF10C0B70180E390E00E94B41302FFC5
:1023500017C001FD03C088E790E002C088E590E067
:10236000B7010CC0802F867859F001FF02C08BE2C4
:1023700001C080E207FD8DE2B70190E00E94B41336
:10238000C11638F4B70180E390E00E94B4131150F5
:10239000F7CFCA94F301EC0DF11D8081B70190E0F5
:1023A0000E94B413C110F5CF15C0F4E0F51560F527
:1023B00084E0581A93FE1FC0011127C02C8523FF0B
:1023C0002AC006E910E0392D3071932EF80184916E
:1023D000811124C0552009F4E4CCB70180E290E0DB
:1023E0000E94B4135A94F6CFF7018681978126C0D4
:1023F0008FEF9FEF23C0B70180E290E00E94B413FB
:102400005A945110F8CFD8CF512CB701802F90E0BB
:102410000E94B413D3CF0AE910E0D5CF91108052B7
:10242000B70190E00E94B4130F5F1F4FCFCF23E09E
:10243000251510F483E0BDCF512CC0CF6096E2E1AA
:102440000C946012A1E21A2EAA1BBB1BFD010DC049
:10245000AA1FBB1FEE1FFF1FA217B307E407F50754
:1024600020F0A21BB30BE40BF50B661F771F881F30
:10247000991F1A9469F760957095809590959B01C6
:10248000AC01BD01CF0108952F923F924F925F9210
:102490006F927F928F929F92AF92BF92CF92DF9274
:1024A000EF92FF920F931F93CF93DF93CDB7DEB7D9
:1024B000CA1BDB0B0FB6F894DEBF0FBECDBF09946D
:1024C0002A88398848885F846E847D848C849B84C4
:1024D000AA84B984C884DF80EE80FD800C811B81D2
:1024E000AA81B981CE0FD11D0FB6F894DEBF0FBE01
:1024F000CDBFED010895283008F027E03327DA0139
:10250000990F311D87FD916000966105710539F4C1
:1025100032602E5F3D9330E32A95E1F708959F3FA7
:1025200030F080387105610509F03C5F3C5F3D93F8
:10253000913008F08068911DDF93CF931F930F9324
:10254000FF92EF92192F987F9695E92F9695969581
:10255000E90FFF27E850FF4F99273327EE24FF2488
:10256000A701E70105900894079428F4360FE71EA9
:10257000F81E491F511D660F771F881F991F06946B
:10258000A1F70590079428F4E70EF81E491F561F7F
:10259000C11D770F881F991F661F0694A1F705902C
:1025A000079428F4F80E491F561FC71FD11D880F26
:1025B000991F661F771F0694A1F70590079420F4D2
:1025C000490F561FC71FD81F990F661F771F881FF7
:1025D0000694A9F784911095177041F0D695C79588
:1025E00057954795F794E7941A95C1F7EEE9F0E00F
:1025F00068941590159135916591959105907FE2BC
:102600007395E118F10A430B560BC90BD009C0F7BB
:10261000E10CF11E431F561FC91FD01D7EF47033FD
:1026200011F48A95E6CFE894015030F0080F0AF4CF
:102630000027021708F4202F2395022F7A3328F061
:1026400079E37D932A95E9F710C07D932A9589F661
:10265000069497956795379517951794E118F10AA1
:10266000430B560BC90BD00998F023957E917395B7
:102670007A3308F070E37C932013B8F77E91706191
:102680007D9330F0839571E37D9370E32A95E1F7B4
:102690001124EF90FF900F911F91CF91DF91992717
:1026A00087FD90950895FC010590615070400110E0
:1026B000D8F7809590958E0F9F1F0895FC0161506B
:1026C000704001900110D8F7809590958E0F9F1F54
:1026D00008950F931F93CF93DF93009731F4611503
:1026E000710519F480E090E03AC08B01EC016EE0D6
:1026F00070E081E090E00E949B14FC01892B91F333
:1027000080E883830115110571F01387028781E842
:1027100083838091390290913A02892B21F4F093BE
:102720003A02E09339022097C9F0D187C0878381AC
:102730008260838380913B0290913C02892B71F4EB
:10274000F0933C02E0933B0280913D0290913E0267
:10275000892B21F4F0933E02E0933D02CF01DF91FB
:10276000CF911F910F9108950F931F93CF93DF93F4
:10277000FB01238121FD03C08FEF9FEF2CC022FFBF
:1027800016C046815781248135814217530744F48E
:10279000A081B1819D012F5F3F4F318320838C93B6
:1027A000268137812F5F3F4F3783268314C08B01EB
:1027B000EC01FB010084F185E02D0995892BE1F600
:1027C000D80116968D919C911797019617969C9318
:1027D0008E931697CE01DF91CF911F910F9108959F
:1027E000A0E0B0E0E6EFF3E10C945412AE014B5FD1
:1027F0005F4FFA0161917191AF0180913B0290911D
:102800003C020E94A50EE2E00C94701260913B0223
:1028100070913C020E94B41308950F931F93CF93BD
:10282000DF93E0913B02F0913C02238121FF1BC02A
:102830008C01D0E0C0E0F80181918F0160913B02F2
:1028400070913C02DB011896ED91FC911997882359
:1028500031F00995892B79F3DFEFCFEFECCF8AE0E8
:102860000995892B19F08FEF9FEF02C08D2F9C2FB8
:10287000DF91CF911F910F910895FA01AA27283077
:1028800051F1203181F1E8946F936E7F6E5F7F4F3D
:102890008F4F9F4FAF4FB1E03ED0B4E03CD0670FB9
:1028A000781F891F9A1FA11D680F791F8A1F911D0C
:1028B000A11D6A0F711D811D911DA11D20D009F45C
:1028C00068943F912AE0269F11243019305D31939E
:1028D000DEF6CF010895462F4770405D4193B3E087
:1028E0000FD0C9F7F6CF462F4F70405D4A3318F02E
:1028F000495D31FD4052419302D0A9F7EACFB4E0DF
:10290000A6959795879577956795BA95C9F7009796
:102910006105710508959B01AC010A2E0694579537
:10292000479537952795BA95C9F7620F731F841F8E
:10293000951FA01D08950F931F93CF93DF93869F3C
:102940008001879F100D969F100D1124C8010E94D1
:10295000B714EC01009729F0A80160E070E00E9434
:10296000D815CE01DF91CF911F910F9108950F934C
:102970001F93CF93DF938230910510F482E090E0B3
:10298000E0914102F091420220E030E0A0E0B0E0AE
:10299000309719F1408151810281138148175907FD
:1029A000C8F08417950769F4109731F012960C93CC
:1029B000129713961C9327C0009341021093420272
:1029C00022C02115310519F04217530718F49A0156
:1029D000BD01EF01DF01F801DBCF21153105F9F071
:1029E000281B390B2430310580F48A819B816115C5
:1029F000710521F0FB019383828304C0909342020E
:102A000080934102FE01329644C0FE01E20FF31FA3
:102A10008193919322503109398328833AC02091C0
:102A20003F0230914002232B41F42091020130916A
:102A300003013093400220933F0220910001309126
:102A400001012115310541F42DB73EB74091040134
:102A500050910501241B350BE0913F02F09140029B
:102A6000E217F307A0F42E1B3F0B2817390778F065
:102A7000AC014E5F5F4F2417350748F04E0F5F1FC4
:102A80005093400240933F028193919302C0E0E053
:102A9000F0E0CF01DF91CF911F910F910895CF9377
:102AA000DF93009709F481C0FC01329713821282F0
:102AB000A0914102B0914202109781F420813181AE
:102AC000820F931F20913F0230914002281739074F
:102AD00051F5F0934002E0933F0267C0ED0120E022
:102AE00030E0CE17DF0740F44A815B819E0141153B
:102AF0005105F1F0EA01F5CFD383C28340815181C2
:102B0000840F951FC817D90759F488819981840FBC
:102B1000951F0296918380838A819B819383828310
:102B20002115310529F4F0934202E09341023DC0A2
:102B3000E901FB83EA8349915991C40FD51FEC1732
:102B4000FD0761F480819181840F951F0296E90150
:102B500099838883828193819B838A83E0E0F0E07C
:102B600012968D919C911397009719F0FD01DC014D
:102B7000F7CF8D919C9111979D012E5F3F4F820F52
:102B8000931F20913F02309140022817390769F4C2
:102B9000309729F4109242021092410202C013822F
:102BA0001282B0934002A0933F02DF91CF9108952B
:102BB000DC0101C06D9341505040E0F70895F89456
:022BC000FFCF45
:102BC200000043022000FF00FFFF007FFF0000FF24
:102BD2007F00FFFF007FFF0000FF0000FF7F00FF7C
:102BE200FF007FFF0000FF7F00FF4C696E652064DD
:102BF2006574656374656421205374617274206422
:102C0200697374616E6365206D6561737572656D5C
:102C1200656E74004C696E652064657465637465E5
:102C22006421204D6561737572656D656E742064F3
:102C3200697374616E6365004D6561737572656475
:102C42002064697374616E63653A0925660A0045FA
:102C52007374696D6174656420616E676C653A09AD
:102C620025660A0050726F6772616D3A20307825CE
:102C720030325809546163746963733A203078259D
:102C82003032580A004D6F746F72733A0909256425
:102C92000925640A0050726F78696D6974793A097E
:102CA200257525752575257525750A004C696E658E
:102CB2003A0909257525750925750925750A000042
:00000001FF
