S01C00005363616C616B5F53746174655F4D616368696E652E7372656345
S11300000C94CC000C947B0A0C94E9000C94E90049
S11300100C94E9000C94E9000C94E9000C94E900B8
S11300200C94E9000C949F0A0C94E9000C94E900E8
S11300300C94E9000C94E9000C94E9000C94E90098
S11300400C94E9000C94E9000C94E9000C94E90088
S11300500C94E9000C94E9000C94E9000C94E90078
S11300600C94E9000C94E900084AD73B3BCE016E9E
S113007084BCBFFDC12F3D6C74319ABD56833DDAFB
S11300803D00C77F11BED9E4BB4C3E916BAAAABE0A
S1130090000000803F006E616E00696E66000040E3
S11300A07A10F35A00A0724E18090010A5D4E80083
S11300B000E87648170000E40B54020000CA9A3B9B
S11300C0000000E1F5050000809698000000404221
S11300D00F000000A08601000000102700000000AF
S11300E0E803000000006400000000000A000000B3
S11300F000000100000000002C76D888DC674F085F
S113010023DFC1DFAE59E1B1B796E5E3E453C63A64
S1130110E651997696E8E6C28426EB898C9B62EDDB
S1130120407C6FFCEFBC9C9F40F2BAA56FA5F49095
S1130130055A2AF75C936B6CF9676DC11BFCE0E40C
S11301400D47FEF520E6B500D0ED902E0300943562
S113015077050080841E080000204E0A000000C8B5
S11301600C333333330F986E12831141EF8D211406
S1130170893BE65516CFFEE6DB18D1844B381BF7D6
S11301807C1D901DA4BBE424203284725E22810075
S1130190C9F124ECA1E53D2711241FBECFEFD8E01F
S11301A0DEBFCDBF12E0A0E0B1E0ECE2FCE202C0B1
S11301B005900D92A032B107D9F722E0A0E2B2E097
S11301C001C01D92A336B207E1F70E942A040C94E1
S11301D014160C94000010922502109224028093AD
S11301E02602682F8CE00E94C5070895CF93DF9301
S11301F0EA01209126022E3ED1F118F42E3B31F073
S113020040C0203F89F0213F29F03BC080EF0E948D
S1130210EB003AC09B01AC010E94DC0E8823A1F1E3
S113022080EF0E94EB0030C09B01AC010E94DC0E09
S1130230811104C081EF0E94EB0026C0988189815E
S1130240892B21F08EEE0E94EB001EC080912402C7
S1130250909125028431910530F401969093250202
S11302608093240211C08EEE0E94EB000DC09B010E
S1130270AC010E94DC0E811107C081EF0E94EB00EB
S113028003C08EEB0E94EB00DF91CF9108958F9213
S11302909F92AF92BF92CF92DF92EF92FF920F9311
S11302A01F93CF93DF9300D0CDB7DEB70E94D4065F
S11302B06B017C0180E00E943707898381E00E9402
S11302C037078A83AE014F5F5F4FC701B6010E94B3
S11302D0F600809126028E3E09F45EC018F48E3B2F
S11302E039F018C1803F09F440C0813F49F012C180
S11302F00E94B80791E0811190E0909336020AC100
S113030011E020E030E0A901C701B6010E945E0EB1
S113031018160CF010E01093360200E010E098017B
S1130320B701A60180E00E9498086B017C0120E0DF
S113033030E04FE753E40E948B0B0E94F70CCB0193
S11303400E94C8058C01A701960160E070E08FE768
S113035093E40E948A0B0E94F70CCB010E94C8050B
S1130360BC01C8010E944606D5C0809136028111A5
S113037007C06894EE24E7F8F12C00E010E004C014
S1130380E12CF12C00E810E080E00E944B09B70159
S1130390C8010E944606BEC069E170E089E190E0B0
S11303A00E94460680E00E943707811106C081E062
S11303B00E943707882309F4AAC08AE291E00E94C8
S11303C0421480E00E943707D82E10E000E0F12CA0
S11303D0E12C18C08FE19EE40197F1F700C0000002
S11303E026EE3CE44FE75BE3612F702F8F2D9E2DAB
S11303F00E948B0B162F072FF82EE92E84E591E02F
S11304000E94421480E00E943707882329F081E08B
S11304100E94370781110CC02FE832EC45E75CE3FA
S1130420612F702F8F2D9E2D0E94800C882394F2B3
S113043060E070E080E090E00E9446069FEF20E7D5
S113044082E0915020408040E1F700C0000026E0A7
S113045031E845E95DE3612F702F8F2D9E2D0E94B9
S11304600A0C9B01AC016BED7FE089E490E40E94EF
S11304708A0B4B015C01EF92FF920F931F9388E765
S113048091E09F938F930E942C1420E030E044E38A
S113049053E4C501B4010E946B0E2BED3FE049E427
S11304A050E40E94850C9F938F937F936F938FE802
S11304B091E09F938F930E942C1467EE7FEF87EE59
S11304C09FEF0E9446069FEF22E587E0915020406F
S11304D08040E1F700C0000060E070E080E090E060
S11304E00E9446069FEF20E782E091502040804022
S11304F0E1F700C0000029E130E04D2DC501B40151
S11305000E94D7070FB6F894DEBF0FBECDBF80E0C0
S11305100E944B090F900F90DF91CF911F910F9183
S1130520FF90EF90DF90CF90BF90AF909F908F900F
S11305300895809351028A35A1F028F48035D9F0CA
S11305408535A1F01DC0803F39F0863FC9F460EFC6
S11305508AE00E94C50717C060EF8AE00E94C507C1
S113056012C06AE58AE00E94C5070DC065E58AE00D
S11305700E94C50708C060EF8AE00E94C50703C057
S113058086EF0E94990280E00E94EB000895682F94
S11305906E7F6093560281E0860F80932A028BE07F
S11305A00E94C5070895CF93DF938091510285354A
S11305B031F0863F39F480EF0E94990203C080E550
S11305C00E9499020E94610A8823D1F10E94660A5E
S11305D0C82F0E94750AD82F809151028A35C9F01C
S11305E0803F71F5C73061F480912A02D81324C08A
S11305F08AE50E94990220C085E50E94990220C0E4
S1130600CB30F1F486EF0E9499028D2F0E94C7022D
S113061017C0C73041F480915602D81311C085E544
S11306200E9499020DC0CB3059F486EF0E949902C2
S11306308D2F0E94C70204C080915602D817E1F2A0
S1130640DF91CF9108952F923F924F925F926F92D4
S11306507F928F929F92AF92BF92CF92DF92EF924E
S1130660FF920F931F93CF93DF93CDB7DEB7A59778
S11306700FB6F894DEBF0FBECDBF49015A01270162
S1130680380124E2E6E0F1E0DE01119601900D92DA
S11306902A95E1F7A50194010E948A0B6B017C0164
S11306A020E030E040E85FE3C301B2010E948B0B1D
S11306B0A50194010E948A0B9B01AC01C701B601FC
S11306C00E94850C20E030E040E451E40E946B0E6F
S11306D04B015C010E946A0D6B017C010E94FE0CBF
S11306E070E08B01000F111F600F711F01E010E01B
S11306F00C0F1D1F060F171FC501B4010E94690CC2
S11307000E94FE0C8BEA689F812D112486958695A4
S11307108695982F990F890F880F880F681B70E0B2
S11307201B01220C331C260E371E81E090E08C0F37
S11307309D1F280E391EA7019601C501B4010E9410
S11307408A0B6B017C019B01AC0160E070E080E8E6
S11307509FE30E948A0B4B015C01F801618170E008
S113076080E090E00E942F0DA50194010E946B0E81
S11307702B013C01F101618170E080E090E00E9476
S11307802F0DA70196010E946B0E9B01AC01C301C2
S1130790B2010E948B0B0E94FE0C6DA3F8016281D2
S11307A070E080E090E00E942F0DA50194010E946A
S11307B06B0E2B013C01F101628170E080E090E05E
S11307C00E942F0DA70196010E946B0E9B01AC01A4
S11307D0C301B2010E948B0B0E94FE0C762EF8011D
S11307E0608170E080E090E00E942F0DA5019401EB
S11307F00E946B0E4B015C01F101608170E080E0AE
S113080090E00E942F0DA70196010E946B0E9B01A0
S1130810AC01C501B4010E948B0B0E94FE0C7DA1AA
S1130820872DA5960FB6F894DEBF0FBECDBFDF911E
S1130830CF911F910F91FF90EF90DF90CF90BF90D9
S1130840AF909F908F907F906F905F904F903F906C
S11308502F900895CF93DF9300D000D0CDB7DEB7AB
S113086060E076E980E090E00E94D50A0E947D096C
S1130870C12CD12C76019701860140E050E861E358
S113088073E480E00E94560863E082E00E9454060C
S113089064EF71E086E00E94A1070E947B060E943B
S11308A0B5070E94BE078BE00E94CF070E94C702D3
S11308B08AE00E94CF070E9499028CE00E94CF0731
S11308C00E94EB000F2EFBE12F2EF02D0F2EF4EAE9
S11308D08F2EF1E09F2EF02D0F2EFEEAAF2EF1E0C9
S11308E0BF2EF02D0F2EFFECCF2EF1E0DF2EF02DDA
S11308F00F2EF6EF6F2EF1E07F2EF02D0E94D30223
S1130900809151028A3509F497C020F4853509F4A1
S11309109BC0A5C0803F09F442C0863F09F09FC038
S113092060E070E080E090E00E94460640E065EA06
S11309308FEF0E94790B2FE788E391E021508040EC
S11309409040E1F700C0000040E060E080E00E94D9
S1130950790BAFE7B8E321E0A150B0402040E1F7C4
S113096000C0000040E065EA8FEF0E94790B8FE73A
S113097098E3A1E081509040A040E1F700C000005E
S113098040E060E080E00E94790BBFE728E381E06B
S1130990B15020408040E1F700C0000060C060E03A
S11309A070E080E090E00E94460660912002709121
S11309B021028091220290912302E12CF12C0AE77A
S11309C014E420E030E0A9010E9423032AE939E974
S11309D049E95EE30E940E0B0E94810B20E030E0A7
S11309E040EA50E460912002709121028091220239
S11309F0909123020E948B0B69837A838B839C835F
S1130A00A80197010E945E0E18166CF089819A81E4
S1130A10AB81BC818093200290932102A093220297
S1130A20B09323021CC01092200210922102109253
S1130A3022021092230213C040E064E680E00E9488
S1130A40790B0E9447010BC060E070E080E090E009
S1130A500E94460640E060E084E60E94790B1F9203
S1130A602F921F922F929F928F920E942C1480910A
S1130A7026021F928F93809151021F928F93BF92EF
S1130A80AF920E942C1481E00E94B705182F592EB2
S1130A9080E00E94B7055F921F939F938F93DF922C
S1130AA0CF920E942C1484E00E94B806382E83E072
S1130AB00E94B806482E82E00E94B806582E81E0B3
S1130AC00E94B806182F80E00E94B8061F923F9239
S1130AD01F924F921F925F921F921F931F928F93A8
S1130AE0AFEDB1E0BF93AF930E942C1481E00E945C
S1130AF01507082F192F80E00E941507482E392E5C
S1130B0081E00E943707582E80E00E9437071F9328
S1130B100F933F924F921F925F921F928F937F92F7
S1130B206F920E942C140FB6F894DEBF0FBECDBF97
S1130B300E94C107582E0E94B8071F925F921F920D
S1130B408F93A9E0B2E0BF93AF930E942C148FE778
S1130B5098E3A1E081509040A040E1F700C000007C
S1130B600F900F900F900F900F900F90C7CE8111A0
S1130B7005C080915202909153020895813029F466
S1130B80809154029091550208958FEF9FEF08953C
S1130B908F3F910519F014F08FEF90E081302FEF23
S1130BA0920714F481E09FEF0895811108C0CB01EE
S1130BB00E94C805909353028093520238C081303A
S1130BC041F4CB010E94C8059093550280935402CE
S1130BD005C0882361F1813009F057C08091580223
S1130BE0873011F417BC0895609154027091550236
S1130BF0072E000C880B990B0E942F0D9F770E94E3
S1130C00FE0C67BD81E090915802923009F480E0B7
S1130C1091E02091540230915502121613060CF003
S1130C2090E0891711F05F9A08955F980895809174
S1130C305702873029F41092890010928800089591
S1130C406091520270915302072E000C880B990B8D
S1130C500E942F0D9F770E94FE0C70938900609371
S1130C60880081E090915702923009F480E091E08D
S1130C702091520230915302121613060CF090E0A8
S1130C80891711F02A9A08952A980895CF93DF932B
S1130C90EB01BC0180E00E94D505BE0181E00E9409
S1130CA0D505DF91CF910895E7E5F2E08083618374
S1130CB0E2E5F2E011821082138212828AB1806C22
S1130CC08AB984B1866084B984B5836884BD85B5E6
S1130CD0816085BDE0E8F0E0808181688083E1E89F
S1130CE0F0E080818960808360E070E080E090E0E3
S1130CF00E944606089587B1877C87B984B18F73B3
S1130D0084B988B1886388B985B1806C85B9089540
S1130D108230C1F028F4882341F0813069F026C084
S1130D208330B9F08430D9F021C086B183FB992790
S1130D3090F981E08927089586B18295817091E0C8
S1130D408927089586B185FB992790F981E0892741
S1130D50089583B18095881F8827881F089583B1DB
S1130D6086FB992790F981E08927089580E008950A
S1130D70FF920F931F93CF93DF93F82ECAE0D0E036
S1130D8000E010E08F2D0E948806080F111D2197A6
S1130D90C9F781E0073011050CF480E0DF91CF91B1
S1130DA01F910F91FF9008958F929F92AF92BF92DF
S1130DB0CF92DF92EF92FF920F931F93CF930EEF98
S1130DC01FEFC0E0C12CD12CE12CF12C8C2F0E9400
S1130DD0B806882329F08FEFE81AF80AC00ED11E4E
S1130DE0CF5F0F5F1F4FC53089F7B601DD0C880B4D
S1130DF0990B0E942F0D4B015C01B701FF0C880B6E
S1130E00990B0E942F0D9B01AC01C501B4010E94F6
S1130E10850CCF911F910F91FF90EF90DF90CF90B1
S1130E20BF90AF909F908F900895ECE7F0E0908191
S1130E30907F9083882319F0813039F00BC0ECE760
S1130E40F0E080818260808305C0ECE7F0E080817F
S1130E5081608083EAE7F0E0808180648083808120
S1130E6086FDFDCF809178009091790008959F923E
S1130E70AF92BF92CF92DF92EF92FF920F931F93A4
S1130E80CF93DF93982E05E010E0E12CF12CCC24D5
S1130E90C394D12CA12CB12CC0912702D0E0892D70
S1130EA00E9415072C2D3D2D40913402509135029E
S1130EB08417950710F02A2D3B2D8C2D9D2D2C1772
S1130EC03D0711F08A2D9B2DE80EF91E01501109E2
S1130ED019F781E093E0E916F1040CF480E0DF9166
S1130EE0CF911F910F91FF90EF90DF90CF90BF9023
S1130EF0AF909F900895CF93853041F0863049F0AC
S1130F008430D1F481E08093270219C01092270223
S1130F1016C080E00E943707C82F81E00E9437077F
S1130F20C81306C081E0C11180E08093270207C086
S1130F3084E00E947B0703C084E00E947B07CF917A
S1130F400895ECE7F0E0908190649083EAE7F0E0A4
S1130F5090819068908391E090932702709335027A
S1130F60609334020E947B07089524982C9A089574
S1130F7083B18295817091E0892708953898409AC9
S1130F80089586B1809581700895F999FECF1FBAAE
S1130F9090E092BD81BD60BDFA9AF99A0895F999DD
S1130FA0FECF90E092BD81BDF89A80B50895CF92AE
S1130FB0DF92EF92FF921F93CF93DF93142FE901F7
S1130FC02AE939E949E15DE30E946B0E9B01AC011A
S1130FD00E948B0B24E134E747EC5DE30E94850C0F
S1130FE06B017C01BE010D2E000C880B990B0E9435
S1130FF02F0D2AE037ED43E25EE30E946B0E9B0166
S1131000AC01C701B6010E94850C6B017C01112360
S113101041F0662777276C1B7D0BCE010E944606A4
S113102007C0BE01882799278C1B9D0B0E9446068A
S113103020E030E048EC52E4C701B6010E946B0E98
S11310406B017C0120E030E0A9010E945E0E1816BD
S1131050B4F4C0E0D0E08FE19EE40197F1F700C062
S113106000002196BE010D2E000C880B990B0E94E6
S11310702F0DA70196010E94800C882364F360E081
S113108070E080E090E00E9446069FEF20E782E057
S1131090915020408040E1F700C00000DF91CF91E3
S11310A01F91FF90EF90DF90CF900895CF92DF9241
S11310B0EF92FF920F931F9390E0FC01EE0FFF1F3E
S11310C0DF01A80FB91FAA0FBB1FAA0FBB1FAA0FCE
S11310D0BB1FA75CBD4F4D935D936D937C9313979A
S11310E014960D931D932D933C9317971896CD92B8
S11310F0DD92ED92FC921B9740E050E060E87FE3C4
S113110054964D935D936D937C93579750961D928F
S11311101D921D921C925397FD0114861586168606
S113112017861F910F91FF90EF90DF90CF90089555
S11311302F923F924F925F926F927F928F929F92E3
S1131140AF92BF92CF92DF92EF92FF920F931F93D1
S1131150CF93DF9300D000D000D0CDB7DEB7898322
S1131160CB01BA01A90198010E948A0B6B017C0191
S11311708981082F10E01801220C331CF101E00FC3
S1131180F11FEE0FFF1FEE0FFF1FEE0FFF1FE75CB7
S1131190FD4FFE83ED8384889588A688B7882485CF
S11311A0358546855785C701B6010E948A0BA5017E
S11311B094010E94850C69837A838B839C83A501A7
S11311C09401C701B6010E946B0EED81FE81208956
S11311D03189428953890E948B0B4B015C01ED815B
S11311E0FE81608B718B828B938B20813181428154
S11311F05381C701B6010E946B0E2B013C01ED81A6
S1131200FE812481358146815781C501B4010E9444
S11312106B0E9B01AC01C301B2010E948B0B4B010D
S11312205C01ED81FE81208531854285538569818C
S11312307A818B819C810E946B0E9B01AC01C5015C
S1131240B4010E948B0BF101E00FF11FEE0FFF1FA1
S1131250EE0FFF1FEE0FFF1FE75CFD4FC486D58620
S1131260E686F78626960FB6F894DEBF0FBECDBF8E
S1131270DF91CF911F910F91FF90EF90DF90CF906E
S1131280BF90AF909F908F907F906F905F904F90A2
S11312903F902F90089590E0FC01EE0FFF1FDF01B7
S11312A0A80FB91FAA0FBB1FAA0FBB1FAA0FBB1FF2
S11312B0A75CBD4F50961D921D921D921C92539790
S11312C0FD011486158616861786089510922B0242
S11312D08EE090E0909338028093370210922902B6
S11312E010922802109231021092300285E090E0B0
S11312F09093330280933202089552985A9AE89A4E
S1131300E9E6F0E080818160808380818D7F808345
S1131310E1EBF0E0808181608083E0E7F0E08081B0
S11313208160808378940E946609089580913002D8
S11313309091310201969093310280933002089586
S11313401F93CF93DF9300D000D0CDB7DEB72091A9
S1131350B20080E090E090913002820F911D96954A
S11313608795969587954A9902C010E001C012E0CE
S11313709C012D563A402F3E364010F41C5F07C0A6
S113138088579340833F964010F00E94660920914D
S11313903202309133022530310519F5809137023C
S11313A090913802019790933802809337022091EC
S11313B028023091290241E050E0BA0102C0660FD0
S11313C0771F8A95E2F7CB01822B932B9093290206
S11313D08093280250933302409332021092B20059
S11313E068C081E0898381E98A838BE98B838BEFF1
S11313F08C83FE01E20FF31F818190E002C095957A
S113140087951A95E2F7AC014370552724173507E1
S113141019F0243031051CF00E9466094AC050932B
S11314203302409332024230510561F48091370215
S11314309091380201979093380280933702892B58
S113144091F528C041305105E9F48091370290911B
S11314503802019790933802809337022091280232
S11314603091290241E050E0BA0102C0660F771FB3
S11314708A95E2F7CB01822B932B909329028093D8
S1131480280211C02091370230913802232B59F4DD
S113149080FD09C086E090E090933302809332028D
S11314A081E080932B021092B200109231021092CC
S11314B030020F900F900F900F90DF91CF911F91FA
S11314C0089580912B0210922B0208958091280296
S11314D0909129020024880F991F001C880F991FDE
S11314E0001C892F902D8F7108958091280290916E
S11314F029028F7308951F920F920FB60F92112431
S11315002F933F934F935F936F937F938F939F9307
S1131510AF93BF93EF93FF930E94A009FF91EF91C4
S1131520BF91AF919F918F917F916F915F914F91F7
S11315303F912F910F900FBE0F901F9018951F92FF
S11315400F920FB60F9211242F933F934F935F93F3
S11315506F937F938F939F93AF93BF93EF93FF9377
S11315600E949609FF91EF91BF91AF919F918F9146
S11315707F916F915F914F913F912F910F900FBE8B
S11315800F901F901895E0ECF0E0908195FFFDCF4F
S11315908093C60090E00895E0ECF0E08081882319
S11315A0ECF78091C60090E00895DC01CB01880F30
S11315B0991FAA1FBB1F880F991FAA1FBB1F9C013D
S11315C0AD01220F331F441F551F220F331F441F29
S11315D0551F60E072E18AE790E00E945E12DA0132
S11315E0C9010197A109B1098093C400892F9A2FD9
S11315F0AB2FBB278093C50088E18093C100E2EC48
S1131600F0E08081806180838081866080836CECDF
S11316107AE083EC9AE00E94A5130895CF92DF92BA
S1131620EF92FF921F93CF93DF93C62FD82F6901B8
S11316307A01672F70E080E090E00E942F0DA701EF
S113164096010E946B0E0E94FE0C162F6D2F70E007
S113165080E090E00E942F0DA70196010E946B0E7E
S11316600E94FE0CD62F6C2F70E080E090E00E9468
S11316702F0DA70196010E946B0E0E94FE0C712F84
S11316808D2FDF91CF911F91FF90EF90DF90CF903E
S11316900895CF93DF932898209AF8948CE292E0EF
S11316A0EC01099006D0099004D009900E94590BCE
S11316B012C008D007D006D005D004D003D002D081
S11316C001D00895001C289A08F028980000000012
S11316D008F428980895C0932C02D0932D02E09327
S11316E02E027894D5EDDA95F1F70000DF91CF91D1
S11316F00895ECE2F2E08083618342830E94490B07
S1131700089560932C0270932D0280932E020E9400
S1131710490B08955058BB27AA270E94A20B0C948A
S11317200C0E0E94FE0D38F00E94050E20F039F4D4
S11317309F3F19F426F40C94D40D0EF4E095E7FBC6
S11317400C94A50DE92F0E941D0E58F3BA176207D9
S113175073078407950720F079F4A6F50C94570EC7
S11317600EF4E0950B2EBA2FA02D0B01B9019001B8
S11317700C01CA01A0011124FF27591B99F0593FFC
S113178050F4503E68F11A16F040A22F232F342F44
S11317904427585FF3CF469537952795A795F04092
S11317A05395C9F77EF41F16BA0B620B730B840BA7
S11317B0BAF09150A1F0FF0FBB1F661F771F881F5F
S11317C0C2F70EC0BA0F621F731F841F48F48795B7
S11317D077956795B795F7959E3F08F0B0CF9395A9
S11317E0880F08F09927EE0F9795879508950E9422
S11317F0FE0D60F080E891E009F49EEF0E94050E72
S113180028F040E851E071F45EEF0CC00C94D40D64
S11318100C94570EE92FE0780E941D0E40F3092E18
S1131820052AB1F3261737074807590738F00E2E53
S113183007F8E02569F0E025E0640AC0EF6307F8E3
S1131840009407FADB01B9019D01DC01CA01AD0175
S1131850EF930E949C0C0E940C0E0E943A0C5F9124
S1131860552339F02BED3FE049E450FD49EC0C944D
S11318708B0B0895DF93DD27B92FBF7740E85FE333
S11318801616170648075B0718F4D92F0E94630E33
S11318909F938F937F936F930E94D80EE8E6F0E0B6
S11318A00E94D70D0E940C0E2F913F914F915F9192
S11318B00E947E0EDD2351F09058A2EA2AED3FE00B
S11318C049EC5FE3D0785D270E94A20BDF910C9472
S11318D00C0E0E943F0E90F09F3748F4911116F4BD
S11318E00C94580E60E070E080E89FE3089526F0C1
S11318F01B16611D711D811D0C94AB0D0C94C60D3E
S11319000E94810D08F481E008950E94990C0C94C2
S11319100C0E0E94050E58F00E94FE0D40F029F4B2
S11319205F3F29F00C94A50D51110C94580E0C94A2
S1131930D40D0E941D0E68F39923B1F3552391F33E
S1131940951B550BBB27AA2762177307840738F02A
S11319509F5F5F4F220F331F441FAA1FA9F335D087
S11319600E2E3AF0E0E832D091505040E695001C3B
S1131970CAF72BD0FE2F29D0660F771F881FBB1FF5
S1131980261737074807AB07B0E809F0BB0B802DD3
S1131990BF01FF2793585F4F3AF09E3F510578F0FF
S11319A00C94A50D0C94580E5F3FE4F3983ED4F3C9
S11319B0869577956795B795F7959F5FC9F7880FD3
S11319C0911D9695879597F90895E1E0660F771F25
S11319D0881FBB1F621773078407BA0720F0621BB6
S11319E0730B840BBA0BEE1F88F7E09508950E94E1
S11319F0FE0C6894B1110C94580E08950E94250EA3
S1131A0088F09F5798F0B92F9927B751B0F0E1F0BB
S1131A10660F771F881F991F1AF0BA95C9F714C06B
S1131A20B13091F00E94570EB1E008950C94570E16
S1131A30672F782F8827B85F39F0B93FCCF38695A4
S1131A4077956795B395D9F73EF490958095709501
S1131A5061957F4F8F4F9F4F0895E89409C097FB7E
S1131A603EF490958095709561957F4F8F4F9F4F71
S1131A709923A9F0F92F96E9BB279395F6958795B5
S1131A8077956795B795F111F8CFFAF4BB0F11F478
S1131A9060FF1BC06F5F7F4F8F4F9F4F16C088231F
S1131AA011F096E911C0772321F09EE8872F762F55
S1131AB005C0662371F096E8862F70E060E02AF096
S1131AC09A95660F771F881FDAF7880F9695879582
S1131AD097F908950E943F0E90F09F3748F49111B2
S1131AE016F00C94580E60E070E080E89FEB0895C7
S1131AF026F41B16611D711D811D0C94AB0D0C94F5
S1131B00C60D990F0008550FAA0BE0E8FEEF161654
S1131B101706E807F907C0F012161306E407F507DD
S1131B2098F0621B730B840B950B39F40A2661F051
S1131B30232B242B252B21F408950A2609F4A140F4
S1131B40A6958FEF811D811D089597F99F6780E801
S1131B5070E060E00895882371F4772321F09850B1
S1131B60872B762F07C0662311F499270DC0905157
S1131B70862B70E060E02AF09A95660F771F881F25
S1131B80DAF7880F9695879597F908959F3F31F076
S1131B90915020F4879577956795B795880F911D97
S1131BA09695879597F908959FEF80EC0895DF93B4
S1131BB0CF931F930F93FF92EF92DF927B018C01DF
S1131BC0689406C0DA2EEF010E947E0EFE01E894AE
S1131BD0A5912591359145915591A6F3EF010E9468
S1131BE0A20BFE019701A801DA9469F7DF90EF9048
S1131BF0FF900F911F91CF91DF91089500240A94D3
S1131C001616170618060906089500240A941216D3
S1131C101306140605060895092E0394000C11F406
S1131C20882352F0BB0F40F4BF2B11F460FF04C0B3
S1131C306F5F7F4F8F4F9F4F089557FD9058440F0C
S1131C40551F59F05F3F71F04795880F97FB991F17
S1131C5061F09F3F79F087950895121613061406D4
S1131C60551FF2CF4695F1DF08C016161706180661
S1131C70991FF1CF869571056105089408950E9416
S1131C80250EA0F0BEE7B91788F4BB279F3860F48F
S1131C901616B11D672F782F8827985FF7CF869582
S1131CA077956795B11D93959639C8F30895E8948F
S1131CB0BB2766277727CB0197F908950E94810DEA
S1131CC008F48FEF08959B01AC0160E070E080E8B8
S1131CD09FE30C94850C0E947E0E0C940C0E0E94C3
S1131CE0FE0D38F00E94050E20F0952311F00C949F
S1131CF0A50D0C94D40D11240C94580E0E941D0EA5
S1131D0070F3959FC1F3950F50E0551F629FF0014A
S1131D10729FBB27F00DB11D639FAA27F00DB11D63
S1131D20AA1F649F6627B00DA11D661F829F2227EC
S1131D30B00DA11D621F739FB00DA11D621F839F73
S1131D40A00D611D221F749F3327A00D611D231F49
S1131D50849F600D211D822F762F6A2F11249F5797
S1131D6050409AF0F1F088234AF0EE0FFF1FBB1F9A
S1131D70661F771F881F91505040A9F79E3F510559
S1131D8080F00C94A50D0C94580E5F3FE4F3983E3C
S1131D90D4F3869577956795B795F795E7959F5F03
S1131DA0C1F7FE2B880F911D9695879597F9089595
S1131DB09B01AC010C946B0E0E94810D880B990B56
S1131DC00895A0E1B0E0E7EEFEE00C9480127C01FF
S1131DD01B016A01FC0117821682838181FF44C3BF
S1131DE09E012F5F3F4F3901F7019381F10193FD6C
S1131DF0859193FF81911F01882309F431C38532B2
S1131E0039F493FD859193FF81911F01853239F453
S1131E10B70190E00E94F01356016501E5CF10E090
S1131E20512C912CFFE1F915D8F08B3279F038F46C
S1131E30803279F08332A1F4F92DF0612EC08D3215
S1131E4061F0803369F4292D21602DC0392D326071
S1131E50932E892D8460982E2AC0E92DE86015C040
S1131E6097FC2DC020ED280F2A3088F496FE06C07A
S1131E703AE0139F200D1124122F19C08AE0589EB6
S1131E80200D1124522EE92DE0629E2E10C08E32B8
S1131E9031F496FCE5C2F92DF0649F2E08C08C360F
S1131EA021F4292D2068922E02C0883641F4F101D4
S1131EB093FD859193FF81911F018111B3CF9BEB1A
S1131EC0980F933020F4992D9061805E07C09BE9B0
S1131ED0980F933008F066C1992D9F7E96FF16E007
S1131EE09F73992E853619F49064992E08C086360E
S1131EF021F4392F3068932E02C01111115097FE2E
S1131F0007C01C3350F444244394410E27E00BC013
S1131F10183038F027E017E005C027E09CE3492E8D
S1131F2002C0212F412C560184E0A80EB11CF601F9
S1131F306081718182819381042DA3010E94B71273
S1131F406C01F981FC87F0FF02C0F3FF06C091FC2D
S1131F5006C092FE06C000E205C00DE203C00BE21B
S1131F6001C000E08C858C7019F001115AC29BC22B
S1131F7097FE10C04C0CFC85F4FF04C08A818133A9
S1131F8009F44A94141474F528E0241578F588E0CB
S1131F90482E2CC096FC2AC0812F90E08C159D05FC
S1131FA09CF03CEFC3163FEFD30674F0892D806894
S1131FB0982E0AC0E2E0F0E0EC0FFD1FE10FF11DE6
S1131FC08081803319F411501111F4CF97FE0EC0A3
S1131FD044244394410E812F90E0C816D9062CF472
S1131FE01C1904C04424439401C010E097FE06C0A9
S1131FF01C141D0434F4C601019605C085E090E06C
S113200002C081E090E001110196112331F0212FEB
S113201030E02F5F3F4F820F931F252D30E0821752
S1132020930714F4581A01C0512C892D897049F46E
S1132030552039F0B70180E290E00E94F0135A94E1
S1132040F7CF002329F0B701802F90E00E94F0130E
S113205093FC09C0552039F0B70180E390E00E9459
S1132060F0135A94F7CF97FE4CC04601D7FE02C036
S1132070812C912CC60188199909F301E80FF91FE5
S1132080FE87ED87960124193109388B2F87012F9C
S113209010E01195019511093FEF8316930629F479
S11320A0B7018EE290E00E94F013C814D9044CF0FA
S11320B08F8598898815990524F4ED85FE8581819D
S11320C001C080E3F1E08F1A91082D853E852F5FD2
S11320D03F4F3E872D87801691062CF0B70190E084
S11320E00E94F013D9CFC814D90441F49A819633CD
S11320F020F4953319F43C8534FF81E3B70190E073
S11321004EC08A81813319F09C859F7E9C87B701DC
S113211090E00E94F013111105C094FC18C085E6EC
S113212090E017C0B7018EE290E00E94F0131E5FAA
S113213082E001E0080FF301E80FF11D8081B7018F
S113214090E00E94F013802F0113F3CFE6CF85E4D3
S113215090E0B7010E94F013D7FC06C0C114D1046B
S113216041F4EC85E4FF05C0D194C194D1088DE21B
S113217001C08BE2B70190E00E94F01380E32AE0F3
S1132180C216D1042CF08F5FFAE0CF1AD108F7CF32
S1132190B70190E00E94F013B701C601C0960E94F7
S11321A0F01354C1833631F0833779F0833509F065
S11321B056C020C0560132E0A30EB11CF601808146
S11321C0898301E010E0630112C05601F2E0AF0E12
S11321D0B11CF601C080D18096FE03C0612F70E06F
S11321E002C06FEF7FEFC6010E949A138C01F92D94
S11321F0FF7714C0560122E0A20EB11CF601C08084
S1132200D18096FE03C0612F70E002C06FEF7FEFB4
S1132210C6010E948F138C01F92DF0689F2EF3FDE7
S11322201AC0852D90E008171907A8F4B70180E2B9
S113223090E00E94F0135A94F4CFF60197FC859134
S113224097FE81916F01B70190E00E94F013511045
S11322505A94015011090115110579F7F7C0843614
S113226011F0893661F5560197FE09C024E0A20EEB
S1132270B11CF60160817181828193810AC0F2E010
S1132280AF0EB11CF60160817181072E000C880B22
S1132290990BF92DFF769F2E97FF09C09095809595
S11322A0709561957F4F8F4F9F4FF0689F2E2AE066
S11322B030E0A3010E947214C82EC6183FC0092D35
S11322C0853721F40F7E2AE030E01DC0097F8F3668
S11322D091F018F4883559F0C3C0803719F0883765
S11322E011F0BEC0006104FF09C0046007C094FE81
S11322F008C0066006C028E030E005C020E130E0F8
S113230002C020E132E0560107FF09C084E0A80EB4
S1132310B11CF601608171818281938108C0F2E071
S1132320AF0EB11CF6016081718180E090E0A301E1
S11323300E947214C82EC6180F77902E96FE0BC0FA
S1132340092D0E7FC11650F494FE0AC092FC08C0F9
S1132350092D0E7E05C0DC2C092D03C0DC2C01C028
S1132360D12E04FF0DC0FE01EC0DF11D80818033E0
S113237011F4097E09C002FF06C0D394D39404C0AB
S1132380802F867809F0D39403FD11C000FF06C0A6
S11323901C2DD51480F4150D1D190DC0D51458F439
S11323A0B70180E290E00E94F013D394F7CFD514E4
S11323B010F45D1801C0512C04FF10C0B70180E374
S11323C090E00E94F01302FF17C001FD03C088E7EC
S11323D090E002C088E590E0B7010CC0802F8678B9
S11323E059F001FF02C08BE201C080E207FD8DE2DB
S11323F0B70190E00E94F013C11638F4B70180E3EE
S113240090E00E94F0131150F7CFCA94F301EC0D41
S1132410F11D8081B70190E00E94F013C110F5CF47
S113242015C0F4E0F51560F584E0581A93FE1FC05A
S1132430011127C02C8523FF2AC006E910E0392D9D
S11324403071932EF8018491811124C0552009F430
S1132450E4CCB70180E290E00E94F0135A94F6CFE6
S1132460F7018681978126C08FEF9FEF23C0B701C4
S113247080E290E00E94F0135A945110F8CFD8CF24
S1132480512CB701802F90E00E94F013D3CF0AE9BA
S113249010E0D5CF91108052B70190E00E94F01364
S11324A00F5F1F4FCFCF23E0251510F483E0BDCF7E
S11324B0512CC0CF6096E2E10C949C12A1E21A2E3A
S11324C0AA1BBB1BFD010DC0AA1FBB1FEE1FFF1FD4
S11324D0A217B307E407F50720F0A21BB30BE40B24
S11324E0F50B661F771F881F991F1A9469F760956B
S11324F07095809590959B01AC01BD01CF01089525
S11325002F923F924F925F926F927F928F929F92FF
S1132510AF92BF92CF92DF92EF92FF920F931F93ED
S1132520CF93DF93CDB7DEB7CA1BDB0B0FB6F8949E
S1132530DEBF0FBECDBF09942A88398848885F84DE
S11325406E847D848C849B84AA84B984C884DF804F
S1132550EE80FD800C811B81AA81B981CE0FD11D33
S11325600FB6F894DEBF0FBECDBFED01089528303D
S113257008F027E03327DA01990F311D87FD9160B8
S113258000966105710539F432602E5F3D9330E3A6
S11325902A95E1F708959F3F30F080387105610571
S11325A009F03C5F3C5F3D93913008F08068911DD9
S11325B0DF93CF931F930F93FF92EF92192F987F7E
S11325C09695E92F96959695E90FFF27E850FF4FCA
S11325D099273327EE24FF24A701E70105900894E7
S11325E0079428F4360FE71EF81E491F511D660F85
S11325F0771F881F991F0694A1F70590079428F464
S1132600E70EF81E491F561FC11D770F881F991F1B
S1132610661F0694A1F70590079428F4F80E491F45
S1132620561FC71FD11D880F991F661F771F069459
S1132630A1F70590079420F4490F561FC71FD81F10
S1132640990F661F771F881F0694A9F78491109528
S1132650177041F0D695C79557954795F794E79429
S11326601A95C1F7EEE9F0E068941590159135914B
S11326706591959105907FE27395E118F10A430BFA
S1132680560BC90BD009C0F7E10CF11E431F561FAE
S1132690C91FD01D7EF4703311F48A95E6CFE894F7
S11326A0015030F0080F0AF40027021708F4202F15
S11326B02395022F7A3328F079E37D932A95E9F75D
S11326C010C07D932A9589F606949795679537955A
S11326D017951794E118F10A430B560BC90BD0094F
S11326E098F023957E9173957A3308F070E37C9388
S11326F02013B8F77E9170617D9330F0839571E378
S11327007D9370E32A95E1F71124EF90FF900F91E8
S11327101F91CF91DF91992787FD90950895FC0132
S11327200590615070400110D8F7809590958E0FF8
S11327309F1F0895FC016150704001900110D8F76B
S1132740809590958E0F9F1F08950F931F93CF939D
S1132750DF93009731F46115710519F480E090E07E
S11327603AC08B01EC016EE070E081E090E00E94E1
S1132770D014FC01892B91F380E8838301151105A2
S113278071F01387028781E88383809159029091C5
S11327905A02892B21F4F0935A02E09359022097AC
S11327A0C9F0D187C08783818260838380915B0273
S11327B090915C02892B71F4F0935C02E0935B02CC
S11327C080915D0290915E02892B21F4F0935E0268
S11327D0E0935D02CF01DF91CF911F910F91089596
S11327E00F931F93CF93DF93FB01238121FD03C03C
S11327F08FEF9FEF2CC022FF16C0468157812481A2
S113280035814217530744F4A081B1819D012F5FA4
S11328103F4F318320838C93268137812F5F3F4F35
S11328203783268314C08B01EC01FB010084F185FE
S1132830E02D0995892BE1F6D80116968D919C918E
S11328401797019617969C938E931697CE01DF9156
S1132850CF911F910F910895A0E0B0E0E2E3F4E17D
S11328600C949012AE014B5F5F4FFA01619171912C
S1132870AF0180915B0290915C020E94E10EE2E064
S11328800C94AC120F931F93CF93DF93E0915B02F0
S1132890F0915C02238121FF1BC08C01D0E0C0E0D9
S11328A0F80181918F0160915B0270915C02DB0100
S11328B01896ED91FC911997882331F00995892B8D
S11328C079F3DFEFCFEFECCF8AE00995892B19F08C
S11328D08FEF9FEF02C08D2F9C2FDF91CF911F911F
S11328E00F910895FA01AA27283051F1203181F17E
S11328F0E8946F936E7F6E5F7F4F8F4F9F4FAF4F04
S1132900B1E03ED0B4E03CD0670F781F891F9A1F16
S1132910A11D680F791F8A1F911DA11D6A0F711DCA
S1132920811D911DA11D20D009F468943F912AE0D6
S1132930269F11243019305D3193DEF6CF010895BE
S1132940462F4770405D4193B3E00FD0C9F7F6CFEF
S1132950462F4F70405D4A3318F0495D31FD4052B7
S1132960419302D0A9F7EACFB4E0A695979587954D
S113297077956795BA95C9F700976105710508952C
S11329809B01AC010A2E06945795479537952795D8
S1132990BA95C9F7620F731F841F951FA01D089570
S11329A00F931F93CF93DF93869F8001879F100D12
S11329B0969F100D1124C8010E94EC14EC0100979D
S11329C029F0A80160E070E00E940D16CE01DF91AD
S11329D0CF911F910F9108950F931F93CF93DF937E
S11329E08230910510F482E090E0E0916102F09170
S11329F0620220E030E0A0E0B0E0309719F14081BD
S1132A0051810281138148175907C8F0841795072B
S1132A1069F4109731F012960C93129713961C9345
S1132A2027C0009361021093620222C02115310570
S1132A3019F04217530718F49A01BD01EF01DF01A1
S1132A40F801DBCF21153105F9F0281B390B2430AF
S1132A50310580F48A819B816115710521F0FB01A8
S1132A609383828304C09093620280936102FE0187
S1132A70329644C0FE01E20FF31F819391932250DA
S1132A803109398328833AC020915F023091600272
S1132A90232B41F420910201309103013093600211
S1132AA020935F022091000130910101211531052D
S1132AB041F42DB73EB74091040150910501241B08
S1132AC0350BE0915F02F0916002E217F307A0F486
S1132AD02E1B3F0B2817390778F0AC014E5F5F4F70
S1132AE02417350748F04E0F5F1F50936002409340
S1132AF05F028193919302C0E0E0F0E0CF01DF91A7
S1132B00CF911F910F910895CF93DF93009709F40C
S1132B1081C0FC01329713821282A0916102B091AC
S1132B206202109781F420813181820F931F2091DA
S1132B305F02309160022817390751F5F093600263
S1132B40E0935F0267C0ED0120E030E0CE17DF07BD
S1132B5040F44A815B819E0141155105F1F0EA017F
S1132B60F5CFD383C28340815181840F951FC81749
S1132B70D90759F488819981840F951F029691830E
S1132B8080838A819B81938382832115310529F473
S1132B90F0936202E09361023DC0E901FB83EA83A2
S1132BA049915991C40FD51FEC17FD0761F4808139
S1132BB09181840F951F0296E9019983888382810C
S1132BC093819B838A83E0E0F0E012968D919C913F
S1132BD01397009719F0FD01DC01F7CF8D919C91BB
S1132BE011979D012E5F3F4F820F931F20915F022B
S1132BF0309160022817390769F4309729F410924C
S1132C0062021092610202C013821282B0936002C7
S1132C10A0935F02DF91CF910895DC0101C06D9311
S10F2C2041505040E0F70895F894FFCFB5
S1132C2C000063022000FF00FFFF007FFF0000FF95
S1132C3C7F00FFFF007FFF0000FF0000FF7F00FF0D
S1132C4CFF007FFF0000FF7F00FF4C696E6520646E
S1132C5C65746563746564212053746172742064B3
S1132C6C697374616E6365206D6561737572656DEE
S1132C7C656E74004C696E65206465746563746577
S1132C8C6421204D6561737572656D656E74206485
S1132C9C697374616E6365004D6561737572656407
S1132CAC2064697374616E63653A0925660A00458C
S1132CBC7374696D6174656420616E676C653A093F
S1132CCC25660A0025635B324A25635B4800507213
S1132CDC6F6772616D3A093078253032580A546145
S1132CEC63746963733A093078253032580A004D9D
S1132CFC6F746F72733A090925640925640A0050CC
S1132D0C726F78696D6974793A092575257525751D
S1132D1C257525750A004C696E653A0909257525D2
S1132D2C750925750925750A005377697463683A22
S1132D3C0925750A427574746F6E3A0925750A0073
S9030000FC
